{
  "_format": "hh-sol-artifact-1",
  "contractName": "ProjectRegistry",
  "sourceName": "contracts/ProjectRegistry.sol",
  "abi": [
    {
      "inputs": [],
      "name": "InvalidAddress",
      "type": "error"
    },
    {
      "inputs": [],
      "name": "InvalidName",
      "type": "error"
    },
    {
      "inputs": [
        {
          "internalType": "string",
          "name": "name",
          "type": "string"
        },
        {
          "internalType": "address",
          "name": "caller",
          "type": "address"
        }
      ],
      "name": "NotProjectOwner",
      "type": "error"
    },
    {
      "inputs": [
        {
          "internalType": "string",
          "name": "name",
          "type": "string"
        }
      ],
      "name": "ProjectAlreadyExists",
      "type": "error"
    },
    {
      "inputs": [
        {
          "internalType": "string",
          "name": "name",
          "type": "string"
        }
      ],
      "name": "ProjectNotFound",
      "type": "error"
    },
    {
      "anonymous": false,
      "inputs": [
        {
          "indexed": true,
          "internalType": "string",
          "name": "nameHash",
          "type": "string"
        },
        {
          "indexed": false,
          "internalType": "string",
          "name": "name",
          "type": "string"
        },
        {
          "indexed": true,
          "internalType": "address",
          "name": "founder",
          "type": "address"
        },
        {
          "indexed": false,
          "internalType": "string",
          "name": "manifest",
          "type": "string"
        },
        {
          "indexed": false,
          "internalType": "uint256",
          "name": "timestamp",
          "type": "uint256"
        }
      ],
      "name": "ProjectRegistered",
      "type": "event"
    },
    {
      "anonymous": false,
      "inputs": [
        {
          "indexed": true,
          "internalType": "string",
          "name": "nameHash",
          "type": "string"
        },
        {
          "indexed": false,
          "internalType": "string",
          "name": "name",
          "type": "string"
        },
        {
          "indexed": true,
          "internalType": "address",
          "name": "oldFounder",
          "type": "address"
        },
        {
          "indexed": true,
          "internalType": "address",
          "name": "newFounder",
          "type": "address"
        }
      ],
      "name": "ProjectTransferred",
      "type": "event"
    },
    {
      "anonymous": false,
      "inputs": [
        {
          "indexed": true,
          "internalType": "string",
          "name": "nameHash",
          "type": "string"
        },
        {
          "indexed": false,
          "internalType": "string",
          "name": "name",
          "type": "string"
        },
        {
          "indexed": false,
          "internalType": "string",
          "name": "manifest",
          "type": "string"
        },
        {
          "indexed": false,
          "internalType": "uint256",
          "name": "timestamp",
          "type": "uint256"
        }
      ],
      "name": "ProjectUpdated",
      "type": "event"
    },
    {
      "inputs": [
        {
          "internalType": "address",
          "name": "",
          "type": "address"
        },
        {
          "internalType": "uint256",
          "name": "",
          "type": "uint256"
        }
      ],
      "name": "founderProjects",
      "outputs": [
        {
          "internalType": "string",
          "name": "",
          "type": "string"
        }
      ],
      "stateMutability": "view",
      "type": "function"
    },
    {
      "inputs": [
        {
          "internalType": "string",
          "name": "name",
          "type": "string"
        }
      ],
      "name": "getProject",
      "outputs": [
        {
          "internalType": "string",
          "name": "projectName",
          "type": "string"
        },
        {
          "internalType": "string",
          "name": "manifest",
          "type": "string"
        },
        {
          "internalType": "address",
          "name": "founder",
          "type": "address"
        },
        {
          "internalType": "uint256",
          "name": "registeredAt",
          "type": "uint256"
        },
        {
          "internalType": "bool",
          "name": "exists",
          "type": "bool"
        }
      ],
      "stateMutability": "view",
      "type": "function"
    },
    {
      "inputs": [
        {
          "internalType": "address",
          "name": "founder",
          "type": "address"
        }
      ],
      "name": "getProjectsByFounder",
      "outputs": [
        {
          "internalType": "string[]",
          "name": "",
          "type": "string[]"
        }
      ],
      "stateMutability": "view",
      "type": "function"
    },
    {
      "inputs": [
        {
          "internalType": "string",
          "name": "name",
          "type": "string"
        }
      ],
      "name": "isNameAvailable",
      "outputs": [
        {
          "internalType": "bool",
          "name": "",
          "type": "bool"
        }
      ],
      "stateMutability": "view",
      "type": "function"
    },
    {
      "inputs": [
        {
          "internalType": "string",
          "name": "",
          "type": "string"
        }
      ],
      "name": "projects",
      "outputs": [
        {
          "internalType": "string",
          "name": "name",
          "type": "string"
        },
        {
          "internalType": "string",
          "name": "manifest",
          "type": "string"
        },
        {
          "internalType": "address",
          "name": "founder",
          "type": "address"
        },
        {
          "internalType": "uint256",
          "name": "registeredAt",
          "type": "uint256"
        },
        {
          "internalType": "bool",
          "name": "exists",
          "type": "bool"
        }
      ],
      "stateMutability": "view",
      "type": "function"
    },
    {
      "inputs": [
        {
          "internalType": "string",
          "name": "name",
          "type": "string"
        },
        {
          "internalType": "string",
          "name": "manifest",
          "type": "string"
        }
      ],
      "name": "registerProject",
      "outputs": [],
      "stateMutability": "nonpayable",
      "type": "function"
    },
    {
      "inputs": [],
      "name": "totalProjects",
      "outputs": [
        {
          "internalType": "uint256",
          "name": "",
          "type": "uint256"
        }
      ],
      "stateMutability": "view",
      "type": "function"
    },
    {
      "inputs": [
        {
          "internalType": "string",
          "name": "name",
          "type": "string"
        },
        {
          "internalType": "address",
          "name": "newFounder",
          "type": "address"
        }
      ],
      "name": "transferProjectOwnership",
      "outputs": [],
      "stateMutability": "nonpayable",
      "type": "function"
    },
    {
      "inputs": [
        {
          "internalType": "string",
          "name": "name",
          "type": "string"
        },
        {
          "internalType": "string",
          "name": "manifest",
          "type": "string"
        }
      ],
      "name": "updateManifest",
      "outputs": [],
      "stateMutability": "nonpayable",
      "type": "function"
    }
  ],
  "bytecode": "0x608060405234801561001057600080fd5b5061154e806100206000396000f3fe608060405234801561001057600080fd5b50600436106100935760003560e01c80638cf44d21116100665780638cf44d211461010d57806391c9b268146101305780639c361e4e14610143578063c25578ac1461015a578063d23bf6ea1461017a57600080fd5b8063177b30101461009857806342f709d3146100ad5780634fa691e2146100d65780636f2e5254146100fa575b600080fd5b6100ab6100a6366004610d5b565b61018d565b005b6100c06100bb366004610de3565b6103ce565b6040516100cd9190610e4b565b60405180910390f35b6100e96100e4366004610eaf565b6104bd565b6040516100cd959493929190610ef1565b6100ab610108366004610d5b565b610673565b61012061011b366004610eaf565b6107a8565b60405190151581526020016100cd565b6100e961013e366004610f55565b6107db565b61014c60025481565b6040519081526020016100cd565b61016d610168366004611006565b610933565b6040516100cd9190611030565b6100ab610188366004611043565b6109ec565b82158061019a5750602083115b156101b85760405163430f13b360e01b815260040160405180910390fd5b600084846040516101ca929190611097565b9081526040519081900360200190206004015460ff161561020b5783836040516315004fff60e31b81526004016102029291906110d0565b60405180910390fd5b6040518060a0016040528085858080601f016020809104026020016040519081016040528093929190818152602001838380828437600092019190915250505090825250604080516020601f860181900481028201810190925284815291810191908590859081908401838280828437600092018290525093855250503360208401525042604080840191909152600160609093019290925290516102b39087908790611097565b908152604051908190036020019020815181906102d0908261118c565b50602082015160018201906102e5908261118c565b506040828101516002830180546001600160a01b0319166001600160a01b03909216919091179055606083015160038301556080909201516004909101805460ff19169115159190911790553360009081526001602081815292822080549182018155825291902001610359848683611246565b506002805490600061036a83611317565b909155505060405133906103819086908690611097565b60405180910390207f3f292f7a778ac097002ed47157cec3686b450c59ce48a45f5165a441b848d57486868686426040516103c0959493929190611330565b60405180910390a350505050565b6001600160a01b0381166000908152600160209081526040808320805482518185028101850190935280835260609492939192909184015b828210156104b2578382906000526020600020018054610425906110ec565b80601f0160208091040260200160405190810160405280929190818152602001828054610451906110ec565b801561049e5780601f106104735761010080835404028352916020019161049e565b820191906000526020600020905b81548152906001019060200180831161048157829003601f168201915b505050505081526020019060010190610406565b505050509050919050565b606080600080600080600088886040516104d8929190611097565b90815260200160405180910390206040518060a0016040529081600082018054610501906110ec565b80601f016020809104026020016040519081016040528092919081815260200182805461052d906110ec565b801561057a5780601f1061054f5761010080835404028352916020019161057a565b820191906000526020600020905b81548152906001019060200180831161055d57829003601f168201915b50505050508152602001600182018054610593906110ec565b80601f01602080910402602001604051908101604052809291908181526020018280546105bf906110ec565b801561060c5780601f106105e15761010080835404028352916020019161060c565b820191906000526020600020905b8154815290600101906020018083116105ef57829003601f168201915b505050918352505060028201546001600160a01b0316602080830191909152600383015460408084019190915260049093015460ff1615156060928301528351908401519284015191840151608090940151909c929b509099509197509095509350505050565b60008484604051610685929190611097565b9081526040519081900360200190206004015460ff166106bc57838360405163812a843d60e01b81526004016102029291906110d0565b336001600160a01b0316600085856040516106d8929190611097565b908152604051908190036020019020600201546001600160a01b03161461071857838333604051630ddf984d60e31b81526004016102029392919061136a565b81816000868660405161072c929190611097565b9081526020016040518091039020600101918261074a929190611246565b50838360405161075b929190611097565b60405180910390207f0b3af9b7016604878cc3430323242cef46b2479fb2a8a0102c7ee2e58eeb82c5858585854260405161079a959493929190611330565b60405180910390a250505050565b60008083836040516107bb929190611097565b9081526040519081900360200190206004015460ff161590505b92915050565b8051602081830181018051600082529282019190930120915280548190610801906110ec565b80601f016020809104026020016040519081016040528092919081815260200182805461082d906110ec565b801561087a5780601f1061084f5761010080835404028352916020019161087a565b820191906000526020600020905b81548152906001019060200180831161085d57829003601f168201915b50505050509080600101805461088f906110ec565b80601f01602080910402602001604051908101604052809291908181526020018280546108bb906110ec565b80156109085780601f106108dd57610100808354040283529160200191610908565b820191906000526020600020905b8154815290600101906020018083116108eb57829003601f168201915b505050506002830154600384015460049094015492936001600160a01b039091169290915060ff1685565b6001602052816000526040600020818154811061094f57600080fd5b9060005260206000200160009150915050805461096b906110ec565b80601f0160208091040260200160405190810160405280929190818152602001828054610997906110ec565b80156109e45780601f106109b9576101008083540402835291602001916109e4565b820191906000526020600020905b8154815290600101906020018083116109c757829003601f168201915b505050505081565b600083836040516109fe929190611097565b9081526040519081900360200190206004015460ff16610a3557828260405163812a843d60e01b81526004016102029291906110d0565b336001600160a01b031660008484604051610a51929190611097565b908152604051908190036020019020600201546001600160a01b031614610a9157828233604051630ddf984d60e31b81526004016102029392919061136a565b6001600160a01b038116610ab85760405163e6c4247b60e01b815260040160405180910390fd5b6000808484604051610acb929190611097565b908152604051908190036020018120600201546001600160a01b031691508290600090610afb9087908790611097565b908152604080516020928190038301902060020180546001600160a01b0319166001600160a01b03948516179055918416600090815260018083529281208054938401815581522001610b4f848683611246565b506001600160a01b0381166000908152600160205260408120905b8154811015610c4f578585604051610b83929190611097565b6040518091039020828281548110610b9d57610b9d611396565b90600052602060002001604051610bb491906113ac565b604051809103902003610c475781548290610bd190600190611422565b81548110610be157610be1611396565b90600052602060002001828281548110610bfd57610bfd611396565b906000526020600020019081610c139190611435565b5081805480610c2457610c24611502565b600190038181906000526020600020016000610c409190610cbc565b9055610c4f565b600101610b6a565b50826001600160a01b0316826001600160a01b03168686604051610c74929190611097565b60405180910390207f1d0e14976de3e8875cc6833b47f0141bf324bebfd2827511e0d6f13d1055257f8888604051610cad9291906110d0565b60405180910390a45050505050565b508054610cc8906110ec565b6000825580601f10610cd8575050565b601f016020900490600052602060002090810190610cf69190610cf9565b50565b5b80821115610d0e5760008155600101610cfa565b5090565b60008083601f840112610d2457600080fd5b50813567ffffffffffffffff811115610d3c57600080fd5b602083019150836020828501011115610d5457600080fd5b9250929050565b60008060008060408587031215610d7157600080fd5b843567ffffffffffffffff80821115610d8957600080fd5b610d9588838901610d12565b90965094506020870135915080821115610dae57600080fd5b50610dbb87828801610d12565b95989497509550505050565b80356001600160a01b0381168114610dde57600080fd5b919050565b600060208284031215610df557600080fd5b610dfe82610dc7565b9392505050565b6000815180845260005b81811015610e2b57602081850181015186830182015201610e0f565b506000602082860101526020601f19601f83011685010191505092915050565b600060208083016020845280855180835260408601915060408160051b87010192506020870160005b82811015610ea257603f19888603018452610e90858351610e05565b94509285019290850190600101610e74565b5092979650505050505050565b60008060208385031215610ec257600080fd5b823567ffffffffffffffff811115610ed957600080fd5b610ee585828601610d12565b90969095509350505050565b60a081526000610f0460a0830188610e05565b8281036020840152610f168188610e05565b6001600160a01b0396909616604084015250506060810192909252151560809091015292915050565b634e487b7160e01b600052604160045260246000fd5b600060208284031215610f6757600080fd5b813567ffffffffffffffff80821115610f7f57600080fd5b818401915084601f830112610f9357600080fd5b813581811115610fa557610fa5610f3f565b604051601f8201601f19908116603f01168101908382118183101715610fcd57610fcd610f3f565b81604052828152876020848701011115610fe657600080fd5b826020860160208301376000928101602001929092525095945050505050565b6000806040838503121561101957600080fd5b61102283610dc7565b946020939093013593505050565b602081526000610dfe6020830184610e05565b60008060006040848603121561105857600080fd5b833567ffffffffffffffff81111561106f57600080fd5b61107b86828701610d12565b909450925061108e905060208501610dc7565b90509250925092565b8183823760009101908152919050565b81835281816020850137506000828201602090810191909152601f909101601f19169091010190565b6020815260006110e46020830184866110a7565b949350505050565b600181811c9082168061110057607f821691505b60208210810361112057634e487b7160e01b600052602260045260246000fd5b50919050565b601f821115611172576000816000526020600020601f850160051c8101602086101561114f5750805b601f850160051c820191505b8181101561116e5782815560010161115b565b5050505b505050565b600019600383901b1c191660019190911b1790565b815167ffffffffffffffff8111156111a6576111a6610f3f565b6111ba816111b484546110ec565b84611126565b602080601f8311600181146111e957600084156111d75750858301515b6111e18582611177565b86555061116e565b600085815260208120601f198616915b82811015611218578886015182559484019460019091019084016111f9565b50858210156112365787850151600019600388901b60f8161c191681555b5050505050600190811b01905550565b67ffffffffffffffff83111561125e5761125e610f3f565b6112728361126c83546110ec565b83611126565b6000601f8411600181146112a0576000851561128e5750838201355b6112988682611177565b8455506112fa565b600083815260209020601f19861690835b828110156112d157868501358255602094850194600190920191016112b1565b50868210156112ee5760001960f88860031b161c19848701351681555b505060018560011b0183555b5050505050565b634e487b7160e01b600052601160045260246000fd5b60006001820161132957611329611301565b5060010190565b6060815260006113446060830187896110a7565b82810360208401526113578186886110a7565b9150508260408301529695505050505050565b60408152600061137e6040830185876110a7565b905060018060a01b0383166020830152949350505050565b634e487b7160e01b600052603260045260246000fd5b60008083546113ba816110ec565b600182811680156113d257600181146113e757611416565b60ff1984168752821515830287019450611416565b8760005260208060002060005b8581101561140d5781548a8201529084019082016113f4565b50505082870194505b50929695505050505050565b818103818111156107d5576107d5611301565b818103611440575050565b61144a82546110ec565b67ffffffffffffffff81111561146257611462610f3f565b611470816111b484546110ec565b6000601f82116001811461149e576000831561148c5750848201545b6114968482611177565b8555506112fa565b600085815260209020601f19841690600086815260209020845b838110156114d857828601548255600195860195909101906020016114b8565b50858310156112365793015460001960f8600387901b161c19169092555050600190811b01905550565b634e487b7160e01b600052603160045260246000fdfea2646970667358221220e54800455c7724f9a790a2de8372e063883a972663834b98ed2569c193dfa0ef64736f6c63430008180033",
  "linkReferences": {},
  "deployedLinkReferences": {}
}