{"contracts/HubDAO.sol":{"HubDAO":{"abi":[{"inputs":[{"internalType":"address","name":"_treasuryToken","type":"address"},{"internalType":"address","name":"_initialOwner","type":"address"}],"stateMutability":"nonpayable","type":"constructor"},{"inputs":[{"internalType":"address","name":"owner","type":"address"}],"name":"OwnableInvalidOwner","type":"error"},{"inputs":[{"internalType":"address","name":"account","type":"address"}],"name":"OwnableUnauthorizedAccount","type":"error"},{"inputs":[],"name":"ReentrancyGuardReentrantCall","type":"error"},{"anonymous":false,"inputs":[{"indexed":true,"internalType":"uint256","name":"quarter","type":"uint256"},{"indexed":false,"internalType":"uint256","name":"amount","type":"uint256"}],"name":"BudgetApproved","type":"event"},{"anonymous":false,"inputs":[{"indexed":true,"internalType":"uint256","name":"quarter","type":"uint256"},{"indexed":true,"internalType":"address","name":"recipient","type":"address"},{"indexed":false,"internalType":"uint256","name":"amount","type":"uint256"}],"name":"BudgetExecuted","type":"event"},{"anonymous":false,"inputs":[{"indexed":true,"internalType":"uint256","name":"quarter","type":"uint256"},{"indexed":false,"internalType":"uint256","name":"amount","type":"uint256"}],"name":"BudgetProposed","type":"event"},{"anonymous":false,"inputs":[{"indexed":true,"internalType":"uint256","name":"quarter","type":"uint256"},{"indexed":true,"internalType":"address","name":"voter","type":"address"},{"indexed":false,"internalType":"bool","name":"support","type":"bool"}],"name":"BudgetVoted","type":"event"},{"anonymous":false,"inputs":[{"indexed":true,"internalType":"address","name":"previousOwner","type":"address"},{"indexed":true,"internalType":"address","name":"newOwner","type":"address"}],"name":"OwnershipTransferred","type":"event"},{"anonymous":false,"inputs":[{"indexed":true,"internalType":"uint256","name":"quarter","type":"uint256"},{"indexed":true,"internalType":"address","name":"vetoer","type":"address"}],"name":"VetoExecuted","type":"event"},{"inputs":[],"name":"MIN_VOTING_THRESHOLD","outputs":[{"internalType":"uint256","name":"","type":"uint256"}],"stateMutability":"view","type":"function"},{"inputs":[{"internalType":"uint256","name":"squadId","type":"uint256"},{"internalType":"uint256","name":"amount","type":"uint256"}],"name":"allocateSquadBudget","outputs":[],"stateMutability":"nonpayable","type":"function"},{"inputs":[{"internalType":"uint256","name":"quarter","type":"uint256"}],"name":"approveBudget","outputs":[],"stateMutability":"nonpayable","type":"function"},{"inputs":[],"name":"currentQuarter","outputs":[{"internalType":"uint256","name":"","type":"uint256"}],"stateMutability":"view","type":"function"},{"inputs":[{"internalType":"uint256","name":"quarter","type":"uint256"},{"internalType":"address","name":"recipient","type":"address"},{"internalType":"uint256","name":"amount","type":"uint256"}],"name":"executeBudget","outputs":[],"stateMutability":"nonpayable","type":"function"},{"inputs":[],"name":"getTreasuryBalance","outputs":[{"internalType":"uint256","name":"","type":"uint256"}],"stateMutability":"view","type":"function"},{"inputs":[],"name":"owner","outputs":[{"internalType":"address","name":"","type":"address"}],"stateMutability":"view","type":"function"},{"inputs":[{"internalType":"uint256","name":"amount","type":"uint256"}],"name":"proposeBudget","outputs":[],"stateMutability":"nonpayable","type":"function"},{"inputs":[{"internalType":"uint256","name":"","type":"uint256"}],"name":"quarterlyBudgets","outputs":[{"internalType":"uint256","name":"amount","type":"uint256"},{"internalType":"uint256","name":"startTime","type":"uint256"},{"internalType":"uint256","name":"endTime","type":"uint256"},{"internalType":"bool","name":"approved","type":"bool"},{"internalType":"uint256","name":"voteCount","type":"uint256"}],"stateMutability":"view","type":"function"},{"inputs":[],"name":"renounceOwnership","outputs":[],"stateMutability":"nonpayable","type":"function"},{"inputs":[{"internalType":"address","name":"_squadsContract","type":"address"}],"name":"setSquadsContract","outputs":[],"stateMutability":"nonpayable","type":"function"},{"inputs":[{"internalType":"address","name":"holder","type":"address"},{"internalType":"bool","name":"hasPower","type":"bool"}],"name":"setVetoPower","outputs":[],"stateMutability":"nonpayable","type":"function"},{"inputs":[],"name":"squadsContract","outputs":[{"internalType":"address","name":"","type":"address"}],"stateMutability":"view","type":"function"},{"inputs":[{"internalType":"address","name":"newOwner","type":"address"}],"name":"transferOwnership","outputs":[],"stateMutability":"nonpayable","type":"function"},{"inputs":[],"name":"treasuryToken","outputs":[{"internalType":"contract IERC20","name":"","type":"address"}],"stateMutability":"view","type":"function"},{"inputs":[{"internalType":"uint256","name":"quarter","type":"uint256"}],"name":"vetoBudget","outputs":[],"stateMutability":"nonpayable","type":"function"},{"inputs":[{"internalType":"address","name":"","type":"address"}],"name":"vetoPowerHolders","outputs":[{"internalType":"bool","name":"","type":"bool"}],"stateMutability":"view","type":"function"},{"inputs":[{"internalType":"uint256","name":"quarter","type":"uint256"},{"internalType":"bool","name":"support","type":"bool"}],"name":"voteOnBudget","outputs":[],"stateMutability":"nonpayable","type":"function"}],"evm":{"bytecode":{"linkReferences":{},"object":"608060405234801561001057600080fd5b50604051610fab380380610fab83398101604081905261002f91610103565b806001600160a01b03811661005e57604051631e4fbdf760e01b81526000600482015260240160405180910390fd5b61006781610097565b505060018055600280546001600160a01b0319166001600160a01b03929092169190911790556000600555610136565b600080546001600160a01b038381166001600160a01b0319831681178455604051919092169283917f8be0079c531659141344cd1fd0a4f28419497f9722a3daafe3b4186f6b6457e09190a35050565b80516001600160a01b03811681146100fe57600080fd5b919050565b6000806040838503121561011657600080fd5b61011f836100e7565b915061012d602084016100e7565b90509250929050565b610e66806101456000396000f3fe608060405234801561001057600080fd5b50600436106101165760003560e01c80638da5cb5b116100a2578063b7e05ace11610071578063b7e05ace14610239578063d54923ed1461024c578063e15aacd21461025f578063e7f33bb6146102c9578063f2fde38b146102d257600080fd5b80638da5cb5b146101e657806397c59aa71461020b5780639b5655dc1461021e578063b2ce514b1461022657600080fd5b806352fd9c85116100e957806352fd9c85146101725780635ac78fe3146101855780636242d1bb1461019857806368b7c683146101ab578063715018a6146101de57600080fd5b8063131409771461011b5780631495a9db1461013757806347a9b8311461014c57806352a1b3961461015f575b600080fd5b61012460055481565b6040519081526020015b60405180910390f35b61014a610145366004610c78565b6102e5565b005b61014a61015a366004610cbb565b61042f565b61014a61016d366004610cf2565b610462565b61014a610180366004610d14565b61048c565b61014a610193366004610c78565b6106e3565b61014a6101a6366004610c78565b6107d0565b6101ce6101b9366004610cf2565b60066020526000908152604090205460ff1681565b604051901515815260200161012e565b61014a61085a565b6000546001600160a01b03165b6040516001600160a01b03909116815260200161012e565b61014a610219366004610d49565b61086e565b610124610990565b6002546101f3906001600160a01b031681565b6003546101f3906001600160a01b031681565b61014a61025a366004610d6e565b610a02565b61029f61026d366004610c78565b6004602052600090815260409020805460018201546002830154600384015460059094015492939192909160ff169085565b6040805195865260208601949094529284019190915215156060830152608082015260a00161012e565b61012461138881565b61014a6102e0366004610cf2565b610b93565b6000818152600460205260409020600381015460ff16156103405760405162461bcd60e51b815260206004820152601060248201526f105b1c9958591e48185c1c1c9bdd995960821b60448201526064015b60405180910390fd5b806002015442111561038a5760405162461bcd60e51b8152602060048201526013602482015272159bdd1a5b99c81c195c9a5bd908195b991959606a1b6044820152606401610337565b6103976064611388610da6565b816005015410156103df5760405162461bcd60e51b8152602060048201526012602482015271496e73756666696369656e7420766f74657360701b6044820152606401610337565b60038101805460ff19166001179055805460405183917fec0512968391c35579495aff653c08aeef4e904cf2c3132db897600a660fbc649161042391815260200190565b60405180910390a25050565b610437610bd1565b6001600160a01b03919091166000908152600660205260409020805460ff1916911515919091179055565b61046a610bd1565b600380546001600160a01b0319166001600160a01b0392909216919091179055565b610494610bd1565b61049c610bfe565b6000838152600460205260409020600381015460ff166104f45760405162461bcd60e51b8152602060048201526013602482015272109d5919d95d081b9bdd08185c1c1c9bdd9959606a1b6044820152606401610337565b80600101544210156105485760405162461bcd60e51b815260206004820152601960248201527f42756467657420706572696f64206e6f742073746172746564000000000000006044820152606401610337565b80600201544211156105925760405162461bcd60e51b8152602060048201526013602482015272109d5919d95d081c195c9a5bd908195b991959606a1b6044820152606401610337565b80548211156105db5760405162461bcd60e51b8152602060048201526015602482015274105b5bdd5b9d08195e18d959591cc8189d5919d95d605a1b6044820152606401610337565b60025460405163a9059cbb60e01b81526001600160a01b038581166004830152602482018590529091169063a9059cbb906044016020604051808303816000875af115801561062e573d6000803e3d6000fd5b505050506040513d601f19601f820116820180604052508101906106529190610dc8565b6106905760405162461bcd60e51b815260206004820152600f60248201526e151c985b9cd9995c8819985a5b1959608a1b6044820152606401610337565b826001600160a01b0316847f3956940bfa5bbd79742039f90631b7cb178db749d78823d1a02d2eb89a5749ee846040516106cc91815260200190565b60405180910390a3506106de60018055565b505050565b3360009081526006602052604090205460ff1661073b5760405162461bcd60e51b81526020600482015260166024820152754e6f7420617574686f72697a656420746f207665746f60501b6044820152606401610337565b6000818152600460205260409020600381015460ff166107935760405162461bcd60e51b8152602060048201526013602482015272109d5919d95d081b9bdd08185c1c1c9bdd9959606a1b6044820152606401610337565b60038101805460ff19169055604051339083907f8a83735a0c8ef69bbee8ed9c9721d442b12b4ae3c84ae4e131715d021bbbe06d90600090a35050565b6107d8610bd1565b600580549060006107e883610de5565b909155505060055460009081526004602052604090208181554260018201819055610816906276a700610dfe565b600282015560038101805460ff191690556005546040518381527fa37a3ba1c1ea5b97e00cfb0292e9898143760651a8c88468e80e8f9a2f89514f90602001610423565b610862610bd1565b61086c6000610c28565b565b600082815260046020526040902060028101544211156108c65760405162461bcd60e51b8152602060048201526013602482015272159bdd1a5b99c81c195c9a5bd908195b991959606a1b6044820152606401610337565b33600090815260048201602052604090205460ff16156109185760405162461bcd60e51b815260206004820152600d60248201526c105b1c9958591e481d9bdd1959609a1b6044820152606401610337565b3360009081526004820160205260409020805460ff1916600117905581156109525760058101805490600061094c83610de5565b91905055505b6040518215158152339084907f1a8f08a371d0efc0f335f0d3b64a1bd98338bc3f127d675b041bb3f0b6bcb94f9060200160405180910390a3505050565b6002546040516370a0823160e01b81523060048201526000916001600160a01b0316906370a0823190602401602060405180830381865afa1580156109d9573d6000803e3d6000fd5b505050506040513d601f19601f820116820180604052508101906109fd9190610e17565b905090565b610a0a610bd1565b610a12610bfe565b6003546001600160a01b0316610a6a5760405162461bcd60e51b815260206004820152601760248201527f53717561647320636f6e7472616374206e6f74207365740000000000000000006044820152606401610337565b60025460035460405163a9059cbb60e01b81526001600160a01b0391821660048201526024810184905291169063a9059cbb906044016020604051808303816000875af1158015610abf573d6000803e3d6000fd5b505050506040513d601f19601f82011682018060405250810190610ae39190610dc8565b610b215760405162461bcd60e51b815260206004820152600f60248201526e151c985b9cd9995c8819985a5b1959608a1b6044820152606401610337565b600354604051638d443ea160e01b815260048101849052602481018390526001600160a01b0390911690638d443ea190604401600060405180830381600087803b158015610b6e57600080fd5b505af1158015610b82573d6000803e3d6000fd5b50505050610b8f60018055565b5050565b610b9b610bd1565b6001600160a01b038116610bc557604051631e4fbdf760e01b815260006004820152602401610337565b610bce81610c28565b50565b6000546001600160a01b0316331461086c5760405163118cdaa760e01b8152336004820152602401610337565b600260015403610c2157604051633ee5aeb560e01b815260040160405180910390fd5b6002600155565b600080546001600160a01b038381166001600160a01b0319831681178455604051919092169283917f8be0079c531659141344cd1fd0a4f28419497f9722a3daafe3b4186f6b6457e09190a35050565b600060208284031215610c8a57600080fd5b5035919050565b80356001600160a01b0381168114610ca857600080fd5b919050565b8015158114610bce57600080fd5b60008060408385031215610cce57600080fd5b610cd783610c91565b91506020830135610ce781610cad565b809150509250929050565b600060208284031215610d0457600080fd5b610d0d82610c91565b9392505050565b600080600060608486031215610d2957600080fd5b83359250610d3960208501610c91565b9150604084013590509250925092565b60008060408385031215610d5c57600080fd5b823591506020830135610ce781610cad565b60008060408385031215610d8157600080fd5b50508035926020909101359150565b634e487b7160e01b600052601160045260246000fd5b600082610dc357634e487b7160e01b600052601260045260246000fd5b500490565b600060208284031215610dda57600080fd5b8151610d0d81610cad565b600060018201610df757610df7610d90565b5060010190565b80820180821115610e1157610e11610d90565b92915050565b600060208284031215610e2957600080fd5b505191905056fea26469706673582212205b2945f009fee13149a1e36808a9eea4146a9b61e42f9d8acc10ca9a13ff863564736f6c63430008180033","opcodes":"PUSH1 0x80 PUSH1 0x40 MSTORE CALLVALUE DUP1 ISZERO PUSH2 0x10 JUMPI PUSH1 0x0 DUP1 REVERT JUMPDEST POP PUSH1 0x40 MLOAD PUSH2 0xFAB CODESIZE SUB DUP1 PUSH2 0xFAB DUP4 CODECOPY DUP2 ADD PUSH1 0x40 DUP2 SWAP1 MSTORE PUSH2 0x2F SWAP2 PUSH2 0x103 JUMP JUMPDEST DUP1 PUSH1 0x1 PUSH1 0x1 PUSH1 0xA0 SHL SUB DUP2 AND PUSH2 0x5E JUMPI PUSH1 0x40 MLOAD PUSH4 0x1E4FBDF7 PUSH1 0xE0 SHL DUP2 MSTORE PUSH1 0x0 PUSH1 0x4 DUP3 ADD MSTORE PUSH1 0x24 ADD PUSH1 0x40 MLOAD DUP1 SWAP2 SUB SWAP1 REVERT JUMPDEST PUSH2 0x67 DUP2 PUSH2 0x97 JUMP JUMPDEST POP POP PUSH1 0x1 DUP1 SSTORE PUSH1 0x2 DUP1 SLOAD PUSH1 0x1 PUSH1 0x1 PUSH1 0xA0 SHL SUB NOT AND PUSH1 0x1 PUSH1 0x1 PUSH1 0xA0 SHL SUB SWAP3 SWAP1 SWAP3 AND SWAP2 SWAP1 SWAP2 OR SWAP1 SSTORE PUSH1 0x0 PUSH1 0x5 SSTORE PUSH2 0x136 JUMP JUMPDEST PUSH1 0x0 DUP1 SLOAD PUSH1 0x1 PUSH1 0x1 PUSH1 0xA0 SHL SUB DUP4 DUP2 AND PUSH1 0x1 PUSH1 0x1 PUSH1 0xA0 SHL SUB NOT DUP4 AND DUP2 OR DUP5 SSTORE PUSH1 0x40 MLOAD SWAP2 SWAP1 SWAP3 AND SWAP3 DUP4 SWAP2 PUSH32 0x8BE0079C531659141344CD1FD0A4F28419497F9722A3DAAFE3B4186F6B6457E0 SWAP2 SWAP1 LOG3 POP POP JUMP JUMPDEST DUP1 MLOAD PUSH1 0x1 PUSH1 0x1 PUSH1 0xA0 SHL SUB DUP2 AND DUP2 EQ PUSH2 0xFE JUMPI PUSH1 0x0 DUP1 REVERT JUMPDEST SWAP2 SWAP1 POP JUMP JUMPDEST PUSH1 0x0 DUP1 PUSH1 0x40 DUP4 DUP6 SUB SLT ISZERO PUSH2 0x116 JUMPI PUSH1 0x0 DUP1 REVERT JUMPDEST PUSH2 0x11F DUP4 PUSH2 0xE7 JUMP JUMPDEST SWAP2 POP PUSH2 0x12D PUSH1 0x20 DUP5 ADD PUSH2 0xE7 JUMP JUMPDEST SWAP1 POP SWAP3 POP SWAP3 SWAP1 POP JUMP JUMPDEST PUSH2 0xE66 DUP1 PUSH2 0x145 PUSH1 0x0 CODECOPY PUSH1 0x0 RETURN INVALID PUSH1 0x80 PUSH1 0x40 MSTORE CALLVALUE DUP1 ISZERO PUSH2 0x10 JUMPI PUSH1 0x0 DUP1 REVERT JUMPDEST POP PUSH1 0x4 CALLDATASIZE LT PUSH2 0x116 JUMPI PUSH1 0x0 CALLDATALOAD PUSH1 0xE0 SHR DUP1 PUSH4 0x8DA5CB5B GT PUSH2 0xA2 JUMPI DUP1 PUSH4 0xB7E05ACE GT PUSH2 0x71 JUMPI DUP1 PUSH4 0xB7E05ACE EQ PUSH2 0x239 JUMPI DUP1 PUSH4 0xD54923ED EQ PUSH2 0x24C JUMPI DUP1 PUSH4 0xE15AACD2 EQ PUSH2 0x25F JUMPI DUP1 PUSH4 0xE7F33BB6 EQ PUSH2 0x2C9 JUMPI DUP1 PUSH4 0xF2FDE38B EQ PUSH2 0x2D2 JUMPI PUSH1 0x0 DUP1 REVERT JUMPDEST DUP1 PUSH4 0x8DA5CB5B EQ PUSH2 0x1E6 JUMPI DUP1 PUSH4 0x97C59AA7 EQ PUSH2 0x20B JUMPI DUP1 PUSH4 0x9B5655DC EQ PUSH2 0x21E JUMPI DUP1 PUSH4 0xB2CE514B EQ PUSH2 0x226 JUMPI PUSH1 0x0 DUP1 REVERT JUMPDEST DUP1 PUSH4 0x52FD9C85 GT PUSH2 0xE9 JUMPI DUP1 PUSH4 0x52FD9C85 EQ PUSH2 0x172 JUMPI DUP1 PUSH4 0x5AC78FE3 EQ PUSH2 0x185 JUMPI DUP1 PUSH4 0x6242D1BB EQ PUSH2 0x198 JUMPI DUP1 PUSH4 0x68B7C683 EQ PUSH2 0x1AB JUMPI DUP1 PUSH4 0x715018A6 EQ PUSH2 0x1DE JUMPI PUSH1 0x0 DUP1 REVERT JUMPDEST DUP1 PUSH4 0x13140977 EQ PUSH2 0x11B JUMPI DUP1 PUSH4 0x1495A9DB EQ PUSH2 0x137 JUMPI DUP1 PUSH4 0x47A9B831 EQ PUSH2 0x14C JUMPI DUP1 PUSH4 0x52A1B396 EQ PUSH2 0x15F JUMPI JUMPDEST PUSH1 0x0 DUP1 REVERT JUMPDEST PUSH2 0x124 PUSH1 0x5 SLOAD DUP2 JUMP JUMPDEST PUSH1 0x40 MLOAD SWAP1 DUP2 MSTORE PUSH1 0x20 ADD JUMPDEST PUSH1 0x40 MLOAD DUP1 SWAP2 SUB SWAP1 RETURN JUMPDEST PUSH2 0x14A PUSH2 0x145 CALLDATASIZE PUSH1 0x4 PUSH2 0xC78 JUMP JUMPDEST PUSH2 0x2E5 JUMP JUMPDEST STOP JUMPDEST PUSH2 0x14A PUSH2 0x15A CALLDATASIZE PUSH1 0x4 PUSH2 0xCBB JUMP JUMPDEST PUSH2 0x42F JUMP JUMPDEST PUSH2 0x14A PUSH2 0x16D CALLDATASIZE PUSH1 0x4 PUSH2 0xCF2 JUMP JUMPDEST PUSH2 0x462 JUMP JUMPDEST PUSH2 0x14A PUSH2 0x180 CALLDATASIZE PUSH1 0x4 PUSH2 0xD14 JUMP JUMPDEST PUSH2 0x48C JUMP JUMPDEST PUSH2 0x14A PUSH2 0x193 CALLDATASIZE PUSH1 0x4 PUSH2 0xC78 JUMP JUMPDEST PUSH2 0x6E3 JUMP JUMPDEST PUSH2 0x14A PUSH2 0x1A6 CALLDATASIZE PUSH1 0x4 PUSH2 0xC78 JUMP JUMPDEST PUSH2 0x7D0 JUMP JUMPDEST PUSH2 0x1CE PUSH2 0x1B9 CALLDATASIZE PUSH1 0x4 PUSH2 0xCF2 JUMP JUMPDEST PUSH1 0x6 PUSH1 0x20 MSTORE PUSH1 0x0 SWAP1 DUP2 MSTORE PUSH1 0x40 SWAP1 KECCAK256 SLOAD PUSH1 0xFF AND DUP2 JUMP JUMPDEST PUSH1 0x40 MLOAD SWAP1 ISZERO ISZERO DUP2 MSTORE PUSH1 0x20 ADD PUSH2 0x12E JUMP JUMPDEST PUSH2 0x14A PUSH2 0x85A JUMP JUMPDEST PUSH1 0x0 SLOAD PUSH1 0x1 PUSH1 0x1 PUSH1 0xA0 SHL SUB AND JUMPDEST PUSH1 0x40 MLOAD PUSH1 0x1 PUSH1 0x1 PUSH1 0xA0 SHL SUB SWAP1 SWAP2 AND DUP2 MSTORE PUSH1 0x20 ADD PUSH2 0x12E JUMP JUMPDEST PUSH2 0x14A PUSH2 0x219 CALLDATASIZE PUSH1 0x4 PUSH2 0xD49 JUMP JUMPDEST PUSH2 0x86E JUMP JUMPDEST PUSH2 0x124 PUSH2 0x990 JUMP JUMPDEST PUSH1 0x2 SLOAD PUSH2 0x1F3 SWAP1 PUSH1 0x1 PUSH1 0x1 PUSH1 0xA0 SHL SUB AND DUP2 JUMP JUMPDEST PUSH1 0x3 SLOAD PUSH2 0x1F3 SWAP1 PUSH1 0x1 PUSH1 0x1 PUSH1 0xA0 SHL SUB AND DUP2 JUMP JUMPDEST PUSH2 0x14A PUSH2 0x25A CALLDATASIZE PUSH1 0x4 PUSH2 0xD6E JUMP JUMPDEST PUSH2 0xA02 JUMP JUMPDEST PUSH2 0x29F PUSH2 0x26D CALLDATASIZE PUSH1 0x4 PUSH2 0xC78 JUMP JUMPDEST PUSH1 0x4 PUSH1 0x20 MSTORE PUSH1 0x0 SWAP1 DUP2 MSTORE PUSH1 0x40 SWAP1 KECCAK256 DUP1 SLOAD PUSH1 0x1 DUP3 ADD SLOAD PUSH1 0x2 DUP4 ADD SLOAD PUSH1 0x3 DUP5 ADD SLOAD PUSH1 0x5 SWAP1 SWAP5 ADD SLOAD SWAP3 SWAP4 SWAP2 SWAP3 SWAP1 SWAP2 PUSH1 0xFF AND SWAP1 DUP6 JUMP JUMPDEST PUSH1 0x40 DUP1 MLOAD SWAP6 DUP7 MSTORE PUSH1 0x20 DUP7 ADD SWAP5 SWAP1 SWAP5 MSTORE SWAP3 DUP5 ADD SWAP2 SWAP1 SWAP2 MSTORE ISZERO ISZERO PUSH1 0x60 DUP4 ADD MSTORE PUSH1 0x80 DUP3 ADD MSTORE PUSH1 0xA0 ADD PUSH2 0x12E JUMP JUMPDEST PUSH2 0x124 PUSH2 0x1388 DUP2 JUMP JUMPDEST PUSH2 0x14A PUSH2 0x2E0 CALLDATASIZE PUSH1 0x4 PUSH2 0xCF2 JUMP JUMPDEST PUSH2 0xB93 JUMP JUMPDEST PUSH1 0x0 DUP2 DUP2 MSTORE PUSH1 0x4 PUSH1 0x20 MSTORE PUSH1 0x40 SWAP1 KECCAK256 PUSH1 0x3 DUP2 ADD SLOAD PUSH1 0xFF AND ISZERO PUSH2 0x340 JUMPI PUSH1 0x40 MLOAD PUSH3 0x461BCD PUSH1 0xE5 SHL DUP2 MSTORE PUSH1 0x20 PUSH1 0x4 DUP3 ADD MSTORE PUSH1 0x10 PUSH1 0x24 DUP3 ADD MSTORE PUSH16 0x105B1C9958591E48185C1C1C9BDD9959 PUSH1 0x82 SHL PUSH1 0x44 DUP3 ADD MSTORE PUSH1 0x64 ADD JUMPDEST PUSH1 0x40 MLOAD DUP1 SWAP2 SUB SWAP1 REVERT JUMPDEST DUP1 PUSH1 0x2 ADD SLOAD TIMESTAMP GT ISZERO PUSH2 0x38A JUMPI PUSH1 0x40 MLOAD PUSH3 0x461BCD PUSH1 0xE5 SHL DUP2 MSTORE PUSH1 0x20 PUSH1 0x4 DUP3 ADD MSTORE PUSH1 0x13 PUSH1 0x24 DUP3 ADD MSTORE PUSH19 0x159BDD1A5B99C81C195C9A5BD908195B991959 PUSH1 0x6A SHL PUSH1 0x44 DUP3 ADD MSTORE PUSH1 0x64 ADD PUSH2 0x337 JUMP JUMPDEST PUSH2 0x397 PUSH1 0x64 PUSH2 0x1388 PUSH2 0xDA6 JUMP JUMPDEST DUP2 PUSH1 0x5 ADD SLOAD LT ISZERO PUSH2 0x3DF JUMPI PUSH1 0x40 MLOAD PUSH3 0x461BCD PUSH1 0xE5 SHL DUP2 MSTORE PUSH1 0x20 PUSH1 0x4 DUP3 ADD MSTORE PUSH1 0x12 PUSH1 0x24 DUP3 ADD MSTORE PUSH18 0x496E73756666696369656E7420766F746573 PUSH1 0x70 SHL PUSH1 0x44 DUP3 ADD MSTORE PUSH1 0x64 ADD PUSH2 0x337 JUMP JUMPDEST PUSH1 0x3 DUP2 ADD DUP1 SLOAD PUSH1 0xFF NOT AND PUSH1 0x1 OR SWAP1 SSTORE DUP1 SLOAD PUSH1 0x40 MLOAD DUP4 SWAP2 PUSH32 0xEC0512968391C35579495AFF653C08AEEF4E904CF2C3132DB897600A660FBC64 SWAP2 PUSH2 0x423 SWAP2 DUP2 MSTORE PUSH1 0x20 ADD SWAP1 JUMP JUMPDEST PUSH1 0x40 MLOAD DUP1 SWAP2 SUB SWAP1 LOG2 POP POP JUMP JUMPDEST PUSH2 0x437 PUSH2 0xBD1 JUMP JUMPDEST PUSH1 0x1 PUSH1 0x1 PUSH1 0xA0 SHL SUB SWAP2 SWAP1 SWAP2 AND PUSH1 0x0 SWAP1 DUP2 MSTORE PUSH1 0x6 PUSH1 0x20 MSTORE PUSH1 0x40 SWAP1 KECCAK256 DUP1 SLOAD PUSH1 0xFF NOT AND SWAP2 ISZERO ISZERO SWAP2 SWAP1 SWAP2 OR SWAP1 SSTORE JUMP JUMPDEST PUSH2 0x46A PUSH2 0xBD1 JUMP JUMPDEST PUSH1 0x3 DUP1 SLOAD PUSH1 0x1 PUSH1 0x1 PUSH1 0xA0 SHL SUB NOT AND PUSH1 0x1 PUSH1 0x1 PUSH1 0xA0 SHL SUB SWAP3 SWAP1 SWAP3 AND SWAP2 SWAP1 SWAP2 OR SWAP1 SSTORE JUMP JUMPDEST PUSH2 0x494 PUSH2 0xBD1 JUMP JUMPDEST PUSH2 0x49C PUSH2 0xBFE JUMP JUMPDEST PUSH1 0x0 DUP4 DUP2 MSTORE PUSH1 0x4 PUSH1 0x20 MSTORE PUSH1 0x40 SWAP1 KECCAK256 PUSH1 0x3 DUP2 ADD SLOAD PUSH1 0xFF AND PUSH2 0x4F4 JUMPI PUSH1 0x40 MLOAD PUSH3 0x461BCD PUSH1 0xE5 SHL DUP2 MSTORE PUSH1 0x20 PUSH1 0x4 DUP3 ADD MSTORE PUSH1 0x13 PUSH1 0x24 DUP3 ADD MSTORE PUSH19 0x109D5919D95D081B9BDD08185C1C1C9BDD9959 PUSH1 0x6A SHL PUSH1 0x44 DUP3 ADD MSTORE PUSH1 0x64 ADD PUSH2 0x337 JUMP JUMPDEST DUP1 PUSH1 0x1 ADD SLOAD TIMESTAMP LT ISZERO PUSH2 0x548 JUMPI PUSH1 0x40 MLOAD PUSH3 0x461BCD PUSH1 0xE5 SHL DUP2 MSTORE PUSH1 0x20 PUSH1 0x4 DUP3 ADD MSTORE PUSH1 0x19 PUSH1 0x24 DUP3 ADD MSTORE PUSH32 0x42756467657420706572696F64206E6F74207374617274656400000000000000 PUSH1 0x44 DUP3 ADD MSTORE PUSH1 0x64 ADD PUSH2 0x337 JUMP JUMPDEST DUP1 PUSH1 0x2 ADD SLOAD TIMESTAMP GT ISZERO PUSH2 0x592 JUMPI PUSH1 0x40 MLOAD PUSH3 0x461BCD PUSH1 0xE5 SHL DUP2 MSTORE PUSH1 0x20 PUSH1 0x4 DUP3 ADD MSTORE PUSH1 0x13 PUSH1 0x24 DUP3 ADD MSTORE PUSH19 0x109D5919D95D081C195C9A5BD908195B991959 PUSH1 0x6A SHL PUSH1 0x44 DUP3 ADD MSTORE PUSH1 0x64 ADD PUSH2 0x337 JUMP JUMPDEST DUP1 SLOAD DUP3 GT ISZERO PUSH2 0x5DB JUMPI PUSH1 0x40 MLOAD PUSH3 0x461BCD PUSH1 0xE5 SHL DUP2 MSTORE PUSH1 0x20 PUSH1 0x4 DUP3 ADD MSTORE PUSH1 0x15 PUSH1 0x24 DUP3 ADD MSTORE PUSH21 0x105B5BDD5B9D08195E18D959591CC8189D5919D95D PUSH1 0x5A SHL PUSH1 0x44 DUP3 ADD MSTORE PUSH1 0x64 ADD PUSH2 0x337 JUMP JUMPDEST PUSH1 0x2 SLOAD PUSH1 0x40 MLOAD PUSH4 0xA9059CBB PUSH1 0xE0 SHL DUP2 MSTORE PUSH1 0x1 PUSH1 0x1 PUSH1 0xA0 SHL SUB DUP6 DUP2 AND PUSH1 0x4 DUP4 ADD MSTORE PUSH1 0x24 DUP3 ADD DUP6 SWAP1 MSTORE SWAP1 SWAP2 AND SWAP1 PUSH4 0xA9059CBB SWAP1 PUSH1 0x44 ADD PUSH1 0x20 PUSH1 0x40 MLOAD DUP1 DUP4 SUB DUP2 PUSH1 0x0 DUP8 GAS CALL ISZERO DUP1 ISZERO PUSH2 0x62E JUMPI RETURNDATASIZE PUSH1 0x0 DUP1 RETURNDATACOPY RETURNDATASIZE PUSH1 0x0 REVERT JUMPDEST POP POP POP POP PUSH1 0x40 MLOAD RETURNDATASIZE PUSH1 0x1F NOT PUSH1 0x1F DUP3 ADD AND DUP3 ADD DUP1 PUSH1 0x40 MSTORE POP DUP2 ADD SWAP1 PUSH2 0x652 SWAP2 SWAP1 PUSH2 0xDC8 JUMP JUMPDEST PUSH2 0x690 JUMPI PUSH1 0x40 MLOAD PUSH3 0x461BCD PUSH1 0xE5 SHL DUP2 MSTORE PUSH1 0x20 PUSH1 0x4 DUP3 ADD MSTORE PUSH1 0xF PUSH1 0x24 DUP3 ADD MSTORE PUSH15 0x151C985B9CD9995C8819985A5B1959 PUSH1 0x8A SHL PUSH1 0x44 DUP3 ADD MSTORE PUSH1 0x64 ADD PUSH2 0x337 JUMP JUMPDEST DUP3 PUSH1 0x1 PUSH1 0x1 PUSH1 0xA0 SHL SUB AND DUP5 PUSH32 0x3956940BFA5BBD79742039F90631B7CB178DB749D78823D1A02D2EB89A5749EE DUP5 PUSH1 0x40 MLOAD PUSH2 0x6CC SWAP2 DUP2 MSTORE PUSH1 0x20 ADD SWAP1 JUMP JUMPDEST PUSH1 0x40 MLOAD DUP1 SWAP2 SUB SWAP1 LOG3 POP PUSH2 0x6DE PUSH1 0x1 DUP1 SSTORE JUMP JUMPDEST POP POP POP JUMP JUMPDEST CALLER PUSH1 0x0 SWAP1 DUP2 MSTORE PUSH1 0x6 PUSH1 0x20 MSTORE PUSH1 0x40 SWAP1 KECCAK256 SLOAD PUSH1 0xFF AND PUSH2 0x73B JUMPI PUSH1 0x40 MLOAD PUSH3 0x461BCD PUSH1 0xE5 SHL DUP2 MSTORE PUSH1 0x20 PUSH1 0x4 DUP3 ADD MSTORE PUSH1 0x16 PUSH1 0x24 DUP3 ADD MSTORE PUSH22 0x4E6F7420617574686F72697A656420746F207665746F PUSH1 0x50 SHL PUSH1 0x44 DUP3 ADD MSTORE PUSH1 0x64 ADD PUSH2 0x337 JUMP JUMPDEST PUSH1 0x0 DUP2 DUP2 MSTORE PUSH1 0x4 PUSH1 0x20 MSTORE PUSH1 0x40 SWAP1 KECCAK256 PUSH1 0x3 DUP2 ADD SLOAD PUSH1 0xFF AND PUSH2 0x793 JUMPI PUSH1 0x40 MLOAD PUSH3 0x461BCD PUSH1 0xE5 SHL DUP2 MSTORE PUSH1 0x20 PUSH1 0x4 DUP3 ADD MSTORE PUSH1 0x13 PUSH1 0x24 DUP3 ADD MSTORE PUSH19 0x109D5919D95D081B9BDD08185C1C1C9BDD9959 PUSH1 0x6A SHL PUSH1 0x44 DUP3 ADD MSTORE PUSH1 0x64 ADD PUSH2 0x337 JUMP JUMPDEST PUSH1 0x3 DUP2 ADD DUP1 SLOAD PUSH1 0xFF NOT AND SWAP1 SSTORE PUSH1 0x40 MLOAD CALLER SWAP1 DUP4 SWAP1 PUSH32 0x8A83735A0C8EF69BBEE8ED9C9721D442B12B4AE3C84AE4E131715D021BBBE06D SWAP1 PUSH1 0x0 SWAP1 LOG3 POP POP JUMP JUMPDEST PUSH2 0x7D8 PUSH2 0xBD1 JUMP JUMPDEST PUSH1 0x5 DUP1 SLOAD SWAP1 PUSH1 0x0 PUSH2 0x7E8 DUP4 PUSH2 0xDE5 JUMP JUMPDEST SWAP1 SWAP2 SSTORE POP POP PUSH1 0x5 SLOAD PUSH1 0x0 SWAP1 DUP2 MSTORE PUSH1 0x4 PUSH1 0x20 MSTORE PUSH1 0x40 SWAP1 KECCAK256 DUP2 DUP2 SSTORE TIMESTAMP PUSH1 0x1 DUP3 ADD DUP2 SWAP1 SSTORE PUSH2 0x816 SWAP1 PUSH3 0x76A700 PUSH2 0xDFE JUMP JUMPDEST PUSH1 0x2 DUP3 ADD SSTORE PUSH1 0x3 DUP2 ADD DUP1 SLOAD PUSH1 0xFF NOT AND SWAP1 SSTORE PUSH1 0x5 SLOAD PUSH1 0x40 MLOAD DUP4 DUP2 MSTORE PUSH32 0xA37A3BA1C1EA5B97E00CFB0292E9898143760651A8C88468E80E8F9A2F89514F SWAP1 PUSH1 0x20 ADD PUSH2 0x423 JUMP JUMPDEST PUSH2 0x862 PUSH2 0xBD1 JUMP JUMPDEST PUSH2 0x86C PUSH1 0x0 PUSH2 0xC28 JUMP JUMPDEST JUMP JUMPDEST PUSH1 0x0 DUP3 DUP2 MSTORE PUSH1 0x4 PUSH1 0x20 MSTORE PUSH1 0x40 SWAP1 KECCAK256 PUSH1 0x2 DUP2 ADD SLOAD TIMESTAMP GT ISZERO PUSH2 0x8C6 JUMPI PUSH1 0x40 MLOAD PUSH3 0x461BCD PUSH1 0xE5 SHL DUP2 MSTORE PUSH1 0x20 PUSH1 0x4 DUP3 ADD MSTORE PUSH1 0x13 PUSH1 0x24 DUP3 ADD MSTORE PUSH19 0x159BDD1A5B99C81C195C9A5BD908195B991959 PUSH1 0x6A SHL PUSH1 0x44 DUP3 ADD MSTORE PUSH1 0x64 ADD PUSH2 0x337 JUMP JUMPDEST CALLER PUSH1 0x0 SWAP1 DUP2 MSTORE PUSH1 0x4 DUP3 ADD PUSH1 0x20 MSTORE PUSH1 0x40 SWAP1 KECCAK256 SLOAD PUSH1 0xFF AND ISZERO PUSH2 0x918 JUMPI PUSH1 0x40 MLOAD PUSH3 0x461BCD PUSH1 0xE5 SHL DUP2 MSTORE PUSH1 0x20 PUSH1 0x4 DUP3 ADD MSTORE PUSH1 0xD PUSH1 0x24 DUP3 ADD MSTORE PUSH13 0x105B1C9958591E481D9BDD1959 PUSH1 0x9A SHL PUSH1 0x44 DUP3 ADD MSTORE PUSH1 0x64 ADD PUSH2 0x337 JUMP JUMPDEST CALLER PUSH1 0x0 SWAP1 DUP2 MSTORE PUSH1 0x4 DUP3 ADD PUSH1 0x20 MSTORE PUSH1 0x40 SWAP1 KECCAK256 DUP1 SLOAD PUSH1 0xFF NOT AND PUSH1 0x1 OR SWAP1 SSTORE DUP2 ISZERO PUSH2 0x952 JUMPI PUSH1 0x5 DUP2 ADD DUP1 SLOAD SWAP1 PUSH1 0x0 PUSH2 0x94C DUP4 PUSH2 0xDE5 JUMP JUMPDEST SWAP2 SWAP1 POP SSTORE POP JUMPDEST PUSH1 0x40 MLOAD DUP3 ISZERO ISZERO DUP2 MSTORE CALLER SWAP1 DUP5 SWAP1 PUSH32 0x1A8F08A371D0EFC0F335F0D3B64A1BD98338BC3F127D675B041BB3F0B6BCB94F SWAP1 PUSH1 0x20 ADD PUSH1 0x40 MLOAD DUP1 SWAP2 SUB SWAP1 LOG3 POP POP POP JUMP JUMPDEST PUSH1 0x2 SLOAD PUSH1 0x40 MLOAD PUSH4 0x70A08231 PUSH1 0xE0 SHL DUP2 MSTORE ADDRESS PUSH1 0x4 DUP3 ADD MSTORE PUSH1 0x0 SWAP2 PUSH1 0x1 PUSH1 0x1 PUSH1 0xA0 SHL SUB AND SWAP1 PUSH4 0x70A08231 SWAP1 PUSH1 0x24 ADD PUSH1 0x20 PUSH1 0x40 MLOAD DUP1 DUP4 SUB DUP2 DUP7 GAS STATICCALL ISZERO DUP1 ISZERO PUSH2 0x9D9 JUMPI RETURNDATASIZE PUSH1 0x0 DUP1 RETURNDATACOPY RETURNDATASIZE PUSH1 0x0 REVERT JUMPDEST POP POP POP POP PUSH1 0x40 MLOAD RETURNDATASIZE PUSH1 0x1F NOT PUSH1 0x1F DUP3 ADD AND DUP3 ADD DUP1 PUSH1 0x40 MSTORE POP DUP2 ADD SWAP1 PUSH2 0x9FD SWAP2 SWAP1 PUSH2 0xE17 JUMP JUMPDEST SWAP1 POP SWAP1 JUMP JUMPDEST PUSH2 0xA0A PUSH2 0xBD1 JUMP JUMPDEST PUSH2 0xA12 PUSH2 0xBFE JUMP JUMPDEST PUSH1 0x3 SLOAD PUSH1 0x1 PUSH1 0x1 PUSH1 0xA0 SHL SUB AND PUSH2 0xA6A JUMPI PUSH1 0x40 MLOAD PUSH3 0x461BCD PUSH1 0xE5 SHL DUP2 MSTORE PUSH1 0x20 PUSH1 0x4 DUP3 ADD MSTORE PUSH1 0x17 PUSH1 0x24 DUP3 ADD MSTORE PUSH32 0x53717561647320636F6E7472616374206E6F7420736574000000000000000000 PUSH1 0x44 DUP3 ADD MSTORE PUSH1 0x64 ADD PUSH2 0x337 JUMP JUMPDEST PUSH1 0x2 SLOAD PUSH1 0x3 SLOAD PUSH1 0x40 MLOAD PUSH4 0xA9059CBB PUSH1 0xE0 SHL DUP2 MSTORE PUSH1 0x1 PUSH1 0x1 PUSH1 0xA0 SHL SUB SWAP2 DUP3 AND PUSH1 0x4 DUP3 ADD MSTORE PUSH1 0x24 DUP2 ADD DUP5 SWAP1 MSTORE SWAP2 AND SWAP1 PUSH4 0xA9059CBB SWAP1 PUSH1 0x44 ADD PUSH1 0x20 PUSH1 0x40 MLOAD DUP1 DUP4 SUB DUP2 PUSH1 0x0 DUP8 GAS CALL ISZERO DUP1 ISZERO PUSH2 0xABF JUMPI RETURNDATASIZE PUSH1 0x0 DUP1 RETURNDATACOPY RETURNDATASIZE PUSH1 0x0 REVERT JUMPDEST POP POP POP POP PUSH1 0x40 MLOAD RETURNDATASIZE PUSH1 0x1F NOT PUSH1 0x1F DUP3 ADD AND DUP3 ADD DUP1 PUSH1 0x40 MSTORE POP DUP2 ADD SWAP1 PUSH2 0xAE3 SWAP2 SWAP1 PUSH2 0xDC8 JUMP JUMPDEST PUSH2 0xB21 JUMPI PUSH1 0x40 MLOAD PUSH3 0x461BCD PUSH1 0xE5 SHL DUP2 MSTORE PUSH1 0x20 PUSH1 0x4 DUP3 ADD MSTORE PUSH1 0xF PUSH1 0x24 DUP3 ADD MSTORE PUSH15 0x151C985B9CD9995C8819985A5B1959 PUSH1 0x8A SHL PUSH1 0x44 DUP3 ADD MSTORE PUSH1 0x64 ADD PUSH2 0x337 JUMP JUMPDEST PUSH1 0x3 SLOAD PUSH1 0x40 MLOAD PUSH4 0x8D443EA1 PUSH1 0xE0 SHL DUP2 MSTORE PUSH1 0x4 DUP2 ADD DUP5 SWAP1 MSTORE PUSH1 0x24 DUP2 ADD DUP4 SWAP1 MSTORE PUSH1 0x1 PUSH1 0x1 PUSH1 0xA0 SHL SUB SWAP1 SWAP2 AND SWAP1 PUSH4 0x8D443EA1 SWAP1 PUSH1 0x44 ADD PUSH1 0x0 PUSH1 0x40 MLOAD DUP1 DUP4 SUB DUP2 PUSH1 0x0 DUP8 DUP1 EXTCODESIZE ISZERO DUP1 ISZERO PUSH2 0xB6E JUMPI PUSH1 0x0 DUP1 REVERT JUMPDEST POP GAS CALL ISZERO DUP1 ISZERO PUSH2 0xB82 JUMPI RETURNDATASIZE PUSH1 0x0 DUP1 RETURNDATACOPY RETURNDATASIZE PUSH1 0x0 REVERT JUMPDEST POP POP POP POP PUSH2 0xB8F PUSH1 0x1 DUP1 SSTORE JUMP JUMPDEST POP POP JUMP JUMPDEST PUSH2 0xB9B PUSH2 0xBD1 JUMP JUMPDEST PUSH1 0x1 PUSH1 0x1 PUSH1 0xA0 SHL SUB DUP2 AND PUSH2 0xBC5 JUMPI PUSH1 0x40 MLOAD PUSH4 0x1E4FBDF7 PUSH1 0xE0 SHL DUP2 MSTORE PUSH1 0x0 PUSH1 0x4 DUP3 ADD MSTORE PUSH1 0x24 ADD PUSH2 0x337 JUMP JUMPDEST PUSH2 0xBCE DUP2 PUSH2 0xC28 JUMP JUMPDEST POP JUMP JUMPDEST PUSH1 0x0 SLOAD PUSH1 0x1 PUSH1 0x1 PUSH1 0xA0 SHL SUB AND CALLER EQ PUSH2 0x86C JUMPI PUSH1 0x40 MLOAD PUSH4 0x118CDAA7 PUSH1 0xE0 SHL DUP2 MSTORE CALLER PUSH1 0x4 DUP3 ADD MSTORE PUSH1 0x24 ADD PUSH2 0x337 JUMP JUMPDEST PUSH1 0x2 PUSH1 0x1 SLOAD SUB PUSH2 0xC21 JUMPI PUSH1 0x40 MLOAD PUSH4 0x3EE5AEB5 PUSH1 0xE0 SHL DUP2 MSTORE PUSH1 0x4 ADD PUSH1 0x40 MLOAD DUP1 SWAP2 SUB SWAP1 REVERT JUMPDEST PUSH1 0x2 PUSH1 0x1 SSTORE JUMP JUMPDEST PUSH1 0x0 DUP1 SLOAD PUSH1 0x1 PUSH1 0x1 PUSH1 0xA0 SHL SUB DUP4 DUP2 AND PUSH1 0x1 PUSH1 0x1 PUSH1 0xA0 SHL SUB NOT DUP4 AND DUP2 OR DUP5 SSTORE PUSH1 0x40 MLOAD SWAP2 SWAP1 SWAP3 AND SWAP3 DUP4 SWAP2 PUSH32 0x8BE0079C531659141344CD1FD0A4F28419497F9722A3DAAFE3B4186F6B6457E0 SWAP2 SWAP1 LOG3 POP POP JUMP JUMPDEST PUSH1 0x0 PUSH1 0x20 DUP3 DUP5 SUB SLT ISZERO PUSH2 0xC8A JUMPI PUSH1 0x0 DUP1 REVERT JUMPDEST POP CALLDATALOAD SWAP2 SWAP1 POP JUMP JUMPDEST DUP1 CALLDATALOAD PUSH1 0x1 PUSH1 0x1 PUSH1 0xA0 SHL SUB DUP2 AND DUP2 EQ PUSH2 0xCA8 JUMPI PUSH1 0x0 DUP1 REVERT JUMPDEST SWAP2 SWAP1 POP JUMP JUMPDEST DUP1 ISZERO ISZERO DUP2 EQ PUSH2 0xBCE JUMPI PUSH1 0x0 DUP1 REVERT JUMPDEST PUSH1 0x0 DUP1 PUSH1 0x40 DUP4 DUP6 SUB SLT ISZERO PUSH2 0xCCE JUMPI PUSH1 0x0 DUP1 REVERT JUMPDEST PUSH2 0xCD7 DUP4 PUSH2 0xC91 JUMP JUMPDEST SWAP2 POP PUSH1 0x20 DUP4 ADD CALLDATALOAD PUSH2 0xCE7 DUP2 PUSH2 0xCAD JUMP JUMPDEST DUP1 SWAP2 POP POP SWAP3 POP SWAP3 SWAP1 POP JUMP JUMPDEST PUSH1 0x0 PUSH1 0x20 DUP3 DUP5 SUB SLT ISZERO PUSH2 0xD04 JUMPI PUSH1 0x0 DUP1 REVERT JUMPDEST PUSH2 0xD0D DUP3 PUSH2 0xC91 JUMP JUMPDEST SWAP4 SWAP3 POP POP POP JUMP JUMPDEST PUSH1 0x0 DUP1 PUSH1 0x0 PUSH1 0x60 DUP5 DUP7 SUB SLT ISZERO PUSH2 0xD29 JUMPI PUSH1 0x0 DUP1 REVERT JUMPDEST DUP4 CALLDATALOAD SWAP3 POP PUSH2 0xD39 PUSH1 0x20 DUP6 ADD PUSH2 0xC91 JUMP JUMPDEST SWAP2 POP PUSH1 0x40 DUP5 ADD CALLDATALOAD SWAP1 POP SWAP3 POP SWAP3 POP SWAP3 JUMP JUMPDEST PUSH1 0x0 DUP1 PUSH1 0x40 DUP4 DUP6 SUB SLT ISZERO PUSH2 0xD5C JUMPI PUSH1 0x0 DUP1 REVERT JUMPDEST DUP3 CALLDATALOAD SWAP2 POP PUSH1 0x20 DUP4 ADD CALLDATALOAD PUSH2 0xCE7 DUP2 PUSH2 0xCAD JUMP JUMPDEST PUSH1 0x0 DUP1 PUSH1 0x40 DUP4 DUP6 SUB SLT ISZERO PUSH2 0xD81 JUMPI PUSH1 0x0 DUP1 REVERT JUMPDEST POP POP DUP1 CALLDATALOAD SWAP3 PUSH1 0x20 SWAP1 SWAP2 ADD CALLDATALOAD SWAP2 POP JUMP JUMPDEST PUSH4 0x4E487B71 PUSH1 0xE0 SHL PUSH1 0x0 MSTORE PUSH1 0x11 PUSH1 0x4 MSTORE PUSH1 0x24 PUSH1 0x0 REVERT JUMPDEST PUSH1 0x0 DUP3 PUSH2 0xDC3 JUMPI PUSH4 0x4E487B71 PUSH1 0xE0 SHL PUSH1 0x0 MSTORE PUSH1 0x12 PUSH1 0x4 MSTORE PUSH1 0x24 PUSH1 0x0 REVERT JUMPDEST POP DIV SWAP1 JUMP JUMPDEST PUSH1 0x0 PUSH1 0x20 DUP3 DUP5 SUB SLT ISZERO PUSH2 0xDDA JUMPI PUSH1 0x0 DUP1 REVERT JUMPDEST DUP2 MLOAD PUSH2 0xD0D DUP2 PUSH2 0xCAD JUMP JUMPDEST PUSH1 0x0 PUSH1 0x1 DUP3 ADD PUSH2 0xDF7 JUMPI PUSH2 0xDF7 PUSH2 0xD90 JUMP JUMPDEST POP PUSH1 0x1 ADD SWAP1 JUMP JUMPDEST DUP1 DUP3 ADD DUP1 DUP3 GT ISZERO PUSH2 0xE11 JUMPI PUSH2 0xE11 PUSH2 0xD90 JUMP JUMPDEST SWAP3 SWAP2 POP POP JUMP JUMPDEST PUSH1 0x0 PUSH1 0x20 DUP3 DUP5 SUB SLT ISZERO PUSH2 0xE29 JUMPI PUSH1 0x0 DUP1 REVERT JUMPDEST POP MLOAD SWAP2 SWAP1 POP JUMP INVALID LOG2 PUSH5 0x6970667358 0x22 SLT KECCAK256 JUMPDEST 0x29 GASLIMIT CREATE MULMOD INVALID 0xE1 BALANCE BLOBHASH LOG1 0xE3 PUSH9 0x8A9EEA4146A9B61E4 0x2F SWAP14 DUP11 0xCC LT 0xCA SWAP11 SGT SELFDESTRUCT DUP7 CALLDATALOAD PUSH5 0x736F6C6343 STOP ADDMOD XOR STOP CALLER "},"methodIdentifiers":{"MIN_VOTING_THRESHOLD()":"e7f33bb6","allocateSquadBudget(uint256,uint256)":"d54923ed","approveBudget(uint256)":"1495a9db","currentQuarter()":"13140977","executeBudget(uint256,address,uint256)":"52fd9c85","getTreasuryBalance()":"9b5655dc","owner()":"8da5cb5b","proposeBudget(uint256)":"6242d1bb","quarterlyBudgets(uint256)":"e15aacd2","renounceOwnership()":"715018a6","setSquadsContract(address)":"52a1b396","setVetoPower(address,bool)":"47a9b831","squadsContract()":"b7e05ace","transferOwnership(address)":"f2fde38b","treasuryToken()":"b2ce514b","vetoBudget(uint256)":"5ac78fe3","vetoPowerHolders(address)":"68b7c683","voteOnBudget(uint256,bool)":"97c59aa7"}}}}}