{"@uniswap/v4-core/src/libraries/LPFeeLibrary.sol":{"LPFeeLibrary":{"abi":[{"inputs":[{"internalType":"uint24","name":"fee","type":"uint24"}],"name":"LPFeeTooLarge","type":"error"},{"inputs":[],"name":"DYNAMIC_FEE_FLAG","outputs":[{"internalType":"uint24","name":"","type":"uint24"}],"stateMutability":"view","type":"function"},{"inputs":[],"name":"MAX_LP_FEE","outputs":[{"internalType":"uint24","name":"","type":"uint24"}],"stateMutability":"view","type":"function"},{"inputs":[],"name":"OVERRIDE_FEE_FLAG","outputs":[{"internalType":"uint24","name":"","type":"uint24"}],"stateMutability":"view","type":"function"},{"inputs":[],"name":"REMOVE_OVERRIDE_MASK","outputs":[{"internalType":"uint24","name":"","type":"uint24"}],"stateMutability":"view","type":"function"}],"evm":{"bytecode":{"linkReferences":{},"object":"60c8610039600b82828239805160001a60731461002c57634e487b7160e01b600052600060045260246000fd5b30600052607381538281f3fe730000000000000000000000000000000000000000301460806040526004361060515760003560e01c80633b01d64d1460565780633fc48eba1460775780636f95ebcf146080578063f26ef49d146089575b600080fd5b605f6240000081565b60405162ffffff909116815260200160405180910390f35b605f620f424081565b605f62bfffff81565b605f628000008156fea2646970667358221220ab8560b285e49d6cabd347e9a4f8a103bbddf7600ceef3b31a8ff077536704bc64736f6c63430008180033","opcodes":"PUSH1 0xC8 PUSH2 0x39 PUSH1 0xB DUP3 DUP3 DUP3 CODECOPY DUP1 MLOAD PUSH1 0x0 BYTE PUSH1 0x73 EQ PUSH2 0x2C JUMPI PUSH4 0x4E487B71 PUSH1 0xE0 SHL PUSH1 0x0 MSTORE PUSH1 0x0 PUSH1 0x4 MSTORE PUSH1 0x24 PUSH1 0x0 REVERT JUMPDEST ADDRESS PUSH1 0x0 MSTORE PUSH1 0x73 DUP2 MSTORE8 DUP3 DUP2 RETURN INVALID PUSH20 0x0 ADDRESS EQ PUSH1 0x80 PUSH1 0x40 MSTORE PUSH1 0x4 CALLDATASIZE LT PUSH1 0x51 JUMPI PUSH1 0x0 CALLDATALOAD PUSH1 0xE0 SHR DUP1 PUSH4 0x3B01D64D EQ PUSH1 0x56 JUMPI DUP1 PUSH4 0x3FC48EBA EQ PUSH1 0x77 JUMPI DUP1 PUSH4 0x6F95EBCF EQ PUSH1 0x80 JUMPI DUP1 PUSH4 0xF26EF49D EQ PUSH1 0x89 JUMPI JUMPDEST PUSH1 0x0 DUP1 REVERT JUMPDEST PUSH1 0x5F PUSH3 0x400000 DUP2 JUMP JUMPDEST PUSH1 0x40 MLOAD PUSH3 0xFFFFFF SWAP1 SWAP2 AND DUP2 MSTORE PUSH1 0x20 ADD PUSH1 0x40 MLOAD DUP1 SWAP2 SUB SWAP1 RETURN JUMPDEST PUSH1 0x5F PUSH3 0xF4240 DUP2 JUMP JUMPDEST PUSH1 0x5F PUSH3 0xBFFFFF DUP2 JUMP JUMPDEST PUSH1 0x5F PUSH3 0x800000 DUP2 JUMP INVALID LOG2 PUSH5 0x6970667358 0x22 SLT KECCAK256 0xAB DUP6 PUSH1 0xB2 DUP6 0xE4 SWAP14 PUSH13 0xABD347E9A4F8A103BBDDF7600C 0xEE RETURN 0xB3 BYTE DUP16 CREATE PUSH24 0x536704BC64736F6C63430008180033000000000000000000 "},"methodIdentifiers":{"DYNAMIC_FEE_FLAG()":"f26ef49d","MAX_LP_FEE()":"3fc48eba","OVERRIDE_FEE_FLAG()":"3b01d64d","REMOVE_OVERRIDE_MASK()":"6f95ebcf"}}}}}