{"contracts/AntiRugHook.sol":{"AntiRugHook":{"abi":[{"inputs":[{"internalType":"contract IPoolManager","name":"_poolManager","type":"address"}],"stateMutability":"nonpayable","type":"constructor"},{"inputs":[],"name":"AlreadyInitialized","type":"error"},{"inputs":[],"name":"HookNotImplemented","type":"error"},{"inputs":[],"name":"InvalidDuration","type":"error"},{"inputs":[{"internalType":"uint256","name":"requested","type":"uint256"},{"internalType":"uint256","name":"available","type":"uint256"}],"name":"NotEnoughVested","type":"error"},{"inputs":[],"name":"NotInitialized","type":"error"},{"inputs":[],"name":"NotPoolManager","type":"error"},{"inputs":[{"internalType":"uint256","name":"timeRemaining","type":"uint256"}],"name":"VestingPeriodActive","type":"error"},{"anonymous":false,"inputs":[{"indexed":true,"internalType":"PoolId","name":"poolId","type":"bytes32"},{"indexed":true,"internalType":"address","name":"founder","type":"address"},{"indexed":false,"internalType":"uint256","name":"attemptedAmount","type":"uint256"},{"indexed":false,"internalType":"uint256","name":"timeRemaining","type":"uint256"}],"name":"FounderSellBlocked","type":"event"},{"anonymous":false,"inputs":[{"indexed":true,"internalType":"PoolId","name":"poolId","type":"bytes32"},{"indexed":true,"internalType":"address","name":"founder","type":"address"},{"indexed":false,"internalType":"uint256","name":"amount","type":"uint256"}],"name":"TokensReleased","type":"event"},{"anonymous":false,"inputs":[{"indexed":true,"internalType":"PoolId","name":"poolId","type":"bytes32"},{"indexed":true,"internalType":"address","name":"founder","type":"address"},{"indexed":false,"internalType":"uint256","name":"cliffDuration","type":"uint256"},{"indexed":false,"internalType":"uint256","name":"vestingDuration","type":"uint256"},{"indexed":false,"internalType":"uint256","name":"totalLocked","type":"uint256"}],"name":"VestingInitialized","type":"event"},{"inputs":[{"internalType":"address","name":"sender","type":"address"},{"components":[{"internalType":"Currency","name":"currency0","type":"address"},{"internalType":"Currency","name":"currency1","type":"address"},{"internalType":"uint24","name":"fee","type":"uint24"},{"internalType":"int24","name":"tickSpacing","type":"int24"},{"internalType":"contract IHooks","name":"hooks","type":"address"}],"internalType":"struct PoolKey","name":"key","type":"tuple"},{"components":[{"internalType":"int24","name":"tickLower","type":"int24"},{"internalType":"int24","name":"tickUpper","type":"int24"},{"internalType":"int256","name":"liquidityDelta","type":"int256"},{"internalType":"bytes32","name":"salt","type":"bytes32"}],"internalType":"struct ModifyLiquidityParams","name":"params","type":"tuple"},{"internalType":"BalanceDelta","name":"delta","type":"int256"},{"internalType":"BalanceDelta","name":"feesAccrued","type":"int256"},{"internalType":"bytes","name":"hookData","type":"bytes"}],"name":"afterAddLiquidity","outputs":[{"internalType":"bytes4","name":"","type":"bytes4"},{"internalType":"BalanceDelta","name":"","type":"int256"}],"stateMutability":"nonpayable","type":"function"},{"inputs":[{"internalType":"address","name":"sender","type":"address"},{"components":[{"internalType":"Currency","name":"currency0","type":"address"},{"internalType":"Currency","name":"currency1","type":"address"},{"internalType":"uint24","name":"fee","type":"uint24"},{"internalType":"int24","name":"tickSpacing","type":"int24"},{"internalType":"contract IHooks","name":"hooks","type":"address"}],"internalType":"struct PoolKey","name":"key","type":"tuple"},{"internalType":"uint256","name":"amount0","type":"uint256"},{"internalType":"uint256","name":"amount1","type":"uint256"},{"internalType":"bytes","name":"hookData","type":"bytes"}],"name":"afterDonate","outputs":[{"internalType":"bytes4","name":"","type":"bytes4"}],"stateMutability":"nonpayable","type":"function"},{"inputs":[{"internalType":"address","name":"sender","type":"address"},{"components":[{"internalType":"Currency","name":"currency0","type":"address"},{"internalType":"Currency","name":"currency1","type":"address"},{"internalType":"uint24","name":"fee","type":"uint24"},{"internalType":"int24","name":"tickSpacing","type":"int24"},{"internalType":"contract IHooks","name":"hooks","type":"address"}],"internalType":"struct PoolKey","name":"key","type":"tuple"},{"internalType":"uint160","name":"sqrtPriceX96","type":"uint160"},{"internalType":"int24","name":"tick","type":"int24"}],"name":"afterInitialize","outputs":[{"internalType":"bytes4","name":"","type":"bytes4"}],"stateMutability":"nonpayable","type":"function"},{"inputs":[{"internalType":"address","name":"sender","type":"address"},{"components":[{"internalType":"Currency","name":"currency0","type":"address"},{"internalType":"Currency","name":"currency1","type":"address"},{"internalType":"uint24","name":"fee","type":"uint24"},{"internalType":"int24","name":"tickSpacing","type":"int24"},{"internalType":"contract IHooks","name":"hooks","type":"address"}],"internalType":"struct PoolKey","name":"key","type":"tuple"},{"components":[{"internalType":"int24","name":"tickLower","type":"int24"},{"internalType":"int24","name":"tickUpper","type":"int24"},{"internalType":"int256","name":"liquidityDelta","type":"int256"},{"internalType":"bytes32","name":"salt","type":"bytes32"}],"internalType":"struct ModifyLiquidityParams","name":"params","type":"tuple"},{"internalType":"BalanceDelta","name":"delta","type":"int256"},{"internalType":"BalanceDelta","name":"feesAccrued","type":"int256"},{"internalType":"bytes","name":"hookData","type":"bytes"}],"name":"afterRemoveLiquidity","outputs":[{"internalType":"bytes4","name":"","type":"bytes4"},{"internalType":"BalanceDelta","name":"","type":"int256"}],"stateMutability":"nonpayable","type":"function"},{"inputs":[{"internalType":"address","name":"sender","type":"address"},{"components":[{"internalType":"Currency","name":"currency0","type":"address"},{"internalType":"Currency","name":"currency1","type":"address"},{"internalType":"uint24","name":"fee","type":"uint24"},{"internalType":"int24","name":"tickSpacing","type":"int24"},{"internalType":"contract IHooks","name":"hooks","type":"address"}],"internalType":"struct PoolKey","name":"key","type":"tuple"},{"components":[{"internalType":"bool","name":"zeroForOne","type":"bool"},{"internalType":"int256","name":"amountSpecified","type":"int256"},{"internalType":"uint160","name":"sqrtPriceLimitX96","type":"uint160"}],"internalType":"struct SwapParams","name":"params","type":"tuple"},{"internalType":"BalanceDelta","name":"delta","type":"int256"},{"internalType":"bytes","name":"hookData","type":"bytes"}],"name":"afterSwap","outputs":[{"internalType":"bytes4","name":"","type":"bytes4"},{"internalType":"int128","name":"","type":"int128"}],"stateMutability":"nonpayable","type":"function"},{"inputs":[{"internalType":"address","name":"sender","type":"address"},{"components":[{"internalType":"Currency","name":"currency0","type":"address"},{"internalType":"Currency","name":"currency1","type":"address"},{"internalType":"uint24","name":"fee","type":"uint24"},{"internalType":"int24","name":"tickSpacing","type":"int24"},{"internalType":"contract IHooks","name":"hooks","type":"address"}],"internalType":"struct PoolKey","name":"key","type":"tuple"},{"components":[{"internalType":"int24","name":"tickLower","type":"int24"},{"internalType":"int24","name":"tickUpper","type":"int24"},{"internalType":"int256","name":"liquidityDelta","type":"int256"},{"internalType":"bytes32","name":"salt","type":"bytes32"}],"internalType":"struct ModifyLiquidityParams","name":"params","type":"tuple"},{"internalType":"bytes","name":"hookData","type":"bytes"}],"name":"beforeAddLiquidity","outputs":[{"internalType":"bytes4","name":"","type":"bytes4"}],"stateMutability":"nonpayable","type":"function"},{"inputs":[{"internalType":"address","name":"sender","type":"address"},{"components":[{"internalType":"Currency","name":"currency0","type":"address"},{"internalType":"Currency","name":"currency1","type":"address"},{"internalType":"uint24","name":"fee","type":"uint24"},{"internalType":"int24","name":"tickSpacing","type":"int24"},{"internalType":"contract IHooks","name":"hooks","type":"address"}],"internalType":"struct PoolKey","name":"key","type":"tuple"},{"internalType":"uint256","name":"amount0","type":"uint256"},{"internalType":"uint256","name":"amount1","type":"uint256"},{"internalType":"bytes","name":"hookData","type":"bytes"}],"name":"beforeDonate","outputs":[{"internalType":"bytes4","name":"","type":"bytes4"}],"stateMutability":"nonpayable","type":"function"},{"inputs":[{"internalType":"address","name":"sender","type":"address"},{"components":[{"internalType":"Currency","name":"currency0","type":"address"},{"internalType":"Currency","name":"currency1","type":"address"},{"internalType":"uint24","name":"fee","type":"uint24"},{"internalType":"int24","name":"tickSpacing","type":"int24"},{"internalType":"contract IHooks","name":"hooks","type":"address"}],"internalType":"struct PoolKey","name":"key","type":"tuple"},{"internalType":"uint160","name":"sqrtPriceX96","type":"uint160"}],"name":"beforeInitialize","outputs":[{"internalType":"bytes4","name":"","type":"bytes4"}],"stateMutability":"nonpayable","type":"function"},{"inputs":[{"internalType":"address","name":"sender","type":"address"},{"components":[{"internalType":"Currency","name":"currency0","type":"address"},{"internalType":"Currency","name":"currency1","type":"address"},{"internalType":"uint24","name":"fee","type":"uint24"},{"internalType":"int24","name":"tickSpacing","type":"int24"},{"internalType":"contract IHooks","name":"hooks","type":"address"}],"internalType":"struct PoolKey","name":"key","type":"tuple"},{"components":[{"internalType":"int24","name":"tickLower","type":"int24"},{"internalType":"int24","name":"tickUpper","type":"int24"},{"internalType":"int256","name":"liquidityDelta","type":"int256"},{"internalType":"bytes32","name":"salt","type":"bytes32"}],"internalType":"struct ModifyLiquidityParams","name":"params","type":"tuple"},{"internalType":"bytes","name":"hookData","type":"bytes"}],"name":"beforeRemoveLiquidity","outputs":[{"internalType":"bytes4","name":"","type":"bytes4"}],"stateMutability":"nonpayable","type":"function"},{"inputs":[{"internalType":"address","name":"sender","type":"address"},{"components":[{"internalType":"Currency","name":"currency0","type":"address"},{"internalType":"Currency","name":"currency1","type":"address"},{"internalType":"uint24","name":"fee","type":"uint24"},{"internalType":"int24","name":"tickSpacing","type":"int24"},{"internalType":"contract IHooks","name":"hooks","type":"address"}],"internalType":"struct PoolKey","name":"key","type":"tuple"},{"components":[{"internalType":"bool","name":"zeroForOne","type":"bool"},{"internalType":"int256","name":"amountSpecified","type":"int256"},{"internalType":"uint160","name":"sqrtPriceLimitX96","type":"uint160"}],"internalType":"struct SwapParams","name":"params","type":"tuple"},{"internalType":"bytes","name":"hookData","type":"bytes"}],"name":"beforeSwap","outputs":[{"internalType":"bytes4","name":"","type":"bytes4"},{"internalType":"BeforeSwapDelta","name":"","type":"int256"},{"internalType":"uint24","name":"","type":"uint24"}],"stateMutability":"nonpayable","type":"function"},{"inputs":[{"components":[{"internalType":"address","name":"founder","type":"address"},{"internalType":"uint256","name":"lockStartTime","type":"uint256"},{"internalType":"uint256","name":"cliffDuration","type":"uint256"},{"internalType":"uint256","name":"vestingDuration","type":"uint256"},{"internalType":"uint256","name":"totalLocked","type":"uint256"},{"internalType":"uint256","name":"released","type":"uint256"},{"internalType":"bool","name":"initialized","type":"bool"}],"internalType":"struct AntiRugHook.VestingConfig","name":"config","type":"tuple"},{"internalType":"uint256","name":"timeElapsed","type":"uint256"}],"name":"calculateVestedAmount","outputs":[{"internalType":"uint256","name":"","type":"uint256"}],"stateMutability":"pure","type":"function"},{"inputs":[],"name":"getHookPermissions","outputs":[{"components":[{"internalType":"bool","name":"beforeInitialize","type":"bool"},{"internalType":"bool","name":"afterInitialize","type":"bool"},{"internalType":"bool","name":"beforeAddLiquidity","type":"bool"},{"internalType":"bool","name":"afterAddLiquidity","type":"bool"},{"internalType":"bool","name":"beforeRemoveLiquidity","type":"bool"},{"internalType":"bool","name":"afterRemoveLiquidity","type":"bool"},{"internalType":"bool","name":"beforeSwap","type":"bool"},{"internalType":"bool","name":"afterSwap","type":"bool"},{"internalType":"bool","name":"beforeDonate","type":"bool"},{"internalType":"bool","name":"afterDonate","type":"bool"},{"internalType":"bool","name":"beforeSwapReturnDelta","type":"bool"},{"internalType":"bool","name":"afterSwapReturnDelta","type":"bool"},{"internalType":"bool","name":"afterAddLiquidityReturnDelta","type":"bool"},{"internalType":"bool","name":"afterRemoveLiquidityReturnDelta","type":"bool"}],"internalType":"struct Hooks.Permissions","name":"","type":"tuple"}],"stateMutability":"pure","type":"function"},{"inputs":[{"components":[{"internalType":"Currency","name":"currency0","type":"address"},{"internalType":"Currency","name":"currency1","type":"address"},{"internalType":"uint24","name":"fee","type":"uint24"},{"internalType":"int24","name":"tickSpacing","type":"int24"},{"internalType":"contract IHooks","name":"hooks","type":"address"}],"internalType":"struct PoolKey","name":"key","type":"tuple"}],"name":"getVestingStatus","outputs":[{"internalType":"bool","name":"initialized","type":"bool"},{"internalType":"address","name":"founder","type":"address"},{"internalType":"uint256","name":"totalLocked","type":"uint256"},{"internalType":"uint256","name":"vested","type":"uint256"},{"internalType":"uint256","name":"released","type":"uint256"},{"internalType":"uint256","name":"available","type":"uint256"},{"internalType":"uint256","name":"timeUntilFullyVested","type":"uint256"}],"stateMutability":"view","type":"function"},{"inputs":[{"components":[{"internalType":"Currency","name":"currency0","type":"address"},{"internalType":"Currency","name":"currency1","type":"address"},{"internalType":"uint24","name":"fee","type":"uint24"},{"internalType":"int24","name":"tickSpacing","type":"int24"},{"internalType":"contract IHooks","name":"hooks","type":"address"}],"internalType":"struct PoolKey","name":"key","type":"tuple"},{"internalType":"address","name":"founder","type":"address"},{"internalType":"uint256","name":"cliffDuration","type":"uint256"},{"internalType":"uint256","name":"vestingDuration","type":"uint256"},{"internalType":"uint256","name":"totalLocked","type":"uint256"}],"name":"initializeVesting","outputs":[],"stateMutability":"nonpayable","type":"function"},{"inputs":[],"name":"poolManager","outputs":[{"internalType":"contract IPoolManager","name":"","type":"address"}],"stateMutability":"view","type":"function"},{"inputs":[{"internalType":"PoolId","name":"","type":"bytes32"}],"name":"vestingConfigs","outputs":[{"internalType":"address","name":"founder","type":"address"},{"internalType":"uint256","name":"lockStartTime","type":"uint256"},{"internalType":"uint256","name":"cliffDuration","type":"uint256"},{"internalType":"uint256","name":"vestingDuration","type":"uint256"},{"internalType":"uint256","name":"totalLocked","type":"uint256"},{"internalType":"uint256","name":"released","type":"uint256"},{"internalType":"bool","name":"initialized","type":"bool"}],"stateMutability":"view","type":"function"}],"evm":{"bytecode":{"linkReferences":{},"object":"60a06040523480156200001157600080fd5b50604051620017df380380620017df8339810160408190526200003491620002c7565b6001600160a01b038116608052806200004d3062000055565b5050620002f9565b6200014d8162000147604080516101c081018252600080825260208201819052918101829052606081018290526080810182905260a0810182905260c0810182905260e08101829052610100810182905261012081018290526101408101829052610160810182905261018081018290526101a081019190915250604080516101c0810182526000808252600160208301819052928201819052606082018190526080820181905260a0820181905260c082019290925260e08101829052610100810182905261012081018290526101408101829052610160810182905261018081018290526101a081019190915290565b62000150565b50565b8051151561200083161515141580620001755750602081015115156110008316151514155b806200018d5750604081015115156108008316151514155b80620001a55750606081015115156104008316151514155b80620001bd5750608081015115156102008316151514155b80620001d5575060a081015115156101008316151514155b80620001ec575060c0810151151560808316151514155b8062000203575060e0810151151560408316151514155b806200021b5750610100810151151560208316151514155b80620002335750610120810151151560108316151514155b806200024b5750610140810151151560088316151514155b80620002635750610160810151151560048316151514155b806200027b5750610180810151151560028316151514155b806200029357506101a0810151151560018316151514155b15620002ac57620002ac630732d7b560e51b83620002b0565b5050565b816000526001600160a01b03811660045260246000fd5b600060208284031215620002da57600080fd5b81516001600160a01b0381168114620002f257600080fd5b9392505050565b6080516114996200034660003960008181610422015281816107280152818161080a01528181610875015281816108df0152818161093c015281816109a40152610a0801526114996000f3fe608060405234801561001057600080fd5b50600436106101005760003560e01c80636fe7e6eb11610097578063c4e833ce11610066578063c4e833ce14610324578063dc4c90d31461041d578063dc98354e1461045c578063e1b4af691461031157600080fd5b80636fe7e6eb146102c85780639f063efc14610295578063b47b2fb1146102db578063b6a8b0fa1461031157600080fd5b80633f11b4b5116100d35780633f11b4b51461019d578063575e24b4146101be5780636057292b146101fc5780636c2bbe7e1461029557600080fd5b806308e06d1814610105578063147c713e1461015c57806321d0ee7014610171578063259982e514610171575b600080fd5b610118610113366004610d2d565b61046f565b6040805197151588526001600160a01b039096166020880152948601939093526060850191909152608084015260a083015260c082015260e0015b60405180910390f35b61016f61016a366004610d68565b6105bf565b005b61018461017f366004610e15565b61071b565b6040516001600160e01b03199091168152602001610153565b6101b06101ab366004610edd565b61077d565b604051908152602001610153565b6101d16101cc366004610f7b565b6107fb565b604080516001600160e01b03199094168452602084019290925262ffffff1690820152606001610153565b61025461020a366004610fda565b60006020819052908152604090208054600182015460028301546003840154600485015460058601546006909601546001600160a01b039095169593949293919290919060ff1687565b604080516001600160a01b0390981688526020880196909652948601939093526060850191909152608084015260a0830152151560c082015260e001610153565b6102a86102a3366004610ff3565b610867565b604080516001600160e01b03199093168352602083019190915201610153565b6101846102d6366004611096565b6108d2565b6102ee6102e93660046110f0565b61092e565b604080516001600160e01b03199093168352600f9190910b602083015201610153565b61018461031f366004611176565b610997565b610410604080516101c081018252600080825260208201819052918101829052606081018290526080810182905260a0810182905260c0810182905260e08101829052610100810182905261012081018290526101408101829052610160810182905261018081018290526101a081019190915250604080516101c0810182526000808252600160208301819052928201819052606082018190526080820181905260a0820181905260c082019290925260e08101829052610100810182905261012081018290526101408101829052610160810182905261018081018290526101a081019190915290565b60405161015391906111d5565b6104447f000000000000000000000000000000000000000000000000000000000000000081565b6040516001600160a01b039091168152602001610153565b61018461046a3660046112c1565b6109fb565b60008080808080808061049161048a368b90038b018b61130b565b60a0902090565b60008181526020818152604091829020825160e08101845281546001600160a01b031681526001820154928101929092526002810154928201929092526003820154606082015260048201546080820152600582015460a082015260069091015460ff16151560c0820181905291925090610526576000806000806000806000985098509850985098509850985050506105b4565b600081602001514261053891906113cd565b90506000610546838361077d565b905060008360a00151821161055c57600061056b565b60a084015161056b90836113cd565b90506000846060015184101561058e5783856060015161058b91906113cd565b90505b8451608086015160a09096015160019e50909c50949a5091985092965091945090925050505b919395979092949650565b60006105d361048a3688900388018861130b565b60008181526020819052604090206006015490915060ff16156106085760405162dc149f60e41b815260040160405180910390fd5b82158061061457508284115b1561063257604051637616640160e01b815260040160405180910390fd5b6040805160e0810182526001600160a01b038781168083524260208085019182528486018a815260608087018b8152608088018b8152600060a08a01818152600160c08c018181528e8452838952928d90209b518c546001600160a01b0319169b169a909a178b559651988a019890985592516002890155516003880155905160048701559151600586015592516006909401805460ff191694151594909417909355835188815291820187905292810185905283917f79e0c45688136e9fb4d975d6a4202eac9b34f7286254a419923f1388633acdf0910160405180910390a3505050505050565b6000336001600160a01b037f000000000000000000000000000000000000000000000000000000000000000016146107665760405163570c108560e11b815260040160405180910390fd5b6107738686868686610a59565b9695505050505050565b60008260400151821015610793575060006107f5565b826060015182106107a9575060808201516107f5565b60008360400151836107bb91906113cd565b90506000846040015185606001516107d391906113cd565b9050808286608001516107e691906113e0565b6107f091906113f7565b925050505b92915050565b60008080336001600160a01b037f000000000000000000000000000000000000000000000000000000000000000016146108485760405163570c108560e11b815260040160405180910390fd5b6108558888888888610a74565b9250925092505b955095509592505050565b600080336001600160a01b037f000000000000000000000000000000000000000000000000000000000000000016146108b35760405163570c108560e11b815260040160405180910390fd5b6108c289898989898989610cf9565b9150915097509795505050505050565b6000336001600160a01b037f0000000000000000000000000000000000000000000000000000000000000000161461091d5760405163570c108560e11b815260040160405180910390fd5b636fe7e6eb60e01b95945050505050565b600080336001600160a01b037f0000000000000000000000000000000000000000000000000000000000000000161461097a5760405163570c108560e11b815260040160405180910390fd5b610988888888888888610cf9565b91509150965096945050505050565b6000336001600160a01b037f000000000000000000000000000000000000000000000000000000000000000016146109e25760405163570c108560e11b815260040160405180910390fd5b6109f0878787878787610a59565b979650505050505050565b6000336001600160a01b037f00000000000000000000000000000000000000000000000000000000000000001614610a465760405163570c108560e11b815260040160405180910390fd5b610a51848484610a59565b949350505050565b6000604051630a85dc2960e01b815260040160405180910390fd5b6000808080610a8b61048a368a90038a018a61130b565b600081815260208190526040902060068101549192509060ff16610ac257506315d7892d60e21b93506000925082915061085c9050565b80546001600160a01b03908116908b1603610cde576000610ae660208a018a611419565b90508015610cdc576000826001015442610b0091906113cd565b90508260020154811015610bac576000818460020154610b2091906113cd565b84549091506001600160a01b0316857f5ec97b32acff10f485353f329ca619e91ee1900795e9a96353b9c5850573756e600060208f013513610b6e57610b6960208f0135611434565b610b74565b8d602001355b60408051918252602082018690520160405180910390a360405163310c0d3560e11b8152600481018290526024015b60405180910390fd5b6040805160e08101825284546001600160a01b03168152600185015460208201526002850154918101919091526003840154606082015260048401546080820152600584015460a0820152600684015460ff16151560c0820152600090610c13908361077d565b90506000846005015482610c2791906113cd565b90506000808d6020013513610c4857610c4360208e0135611434565b610c4e565b8c602001355b905081811115610c7b5760405163b36a323960e01b81526004810182905260248101839052604401610ba3565b80866005016000828254610c8f9190611450565b909155505085546040518281526001600160a01b039091169088907f62eb4bd96d9a7a66875a9f46f9f9d8bf6cfed3fe0578671b752301427d2a4f669060200160405180910390a3505050505b505b506315d7892d60e21b99600099508998509650505050505050565b600080604051630a85dc2960e01b815260040160405180910390fd5b600060a08284031215610d2757600080fd5b50919050565b600060a08284031215610d3f57600080fd5b610d498383610d15565b9392505050565b6001600160a01b0381168114610d6557600080fd5b50565b60008060008060006101208688031215610d8157600080fd5b610d8b8787610d15565b945060a0860135610d9b81610d50565b949794965050505060c08301359260e081013592610100909101359150565b600060808284031215610d2757600080fd5b60008083601f840112610dde57600080fd5b50813567ffffffffffffffff811115610df657600080fd5b602083019150836020828501011115610e0e57600080fd5b9250929050565b60008060008060006101608688031215610e2e57600080fd5b8535610e3981610d50565b9450610e488760208801610d15565b9350610e578760c08801610dba565b925061014086013567ffffffffffffffff811115610e7457600080fd5b610e8088828901610dcc565b969995985093965092949392505050565b60405160e0810167ffffffffffffffff81118282101715610ec257634e487b7160e01b600052604160045260246000fd5b60405290565b80358015158114610ed857600080fd5b919050565b600080828403610100811215610ef257600080fd5b60e0811215610f0057600080fd5b50610f09610e91565b8335610f1481610d50565b808252506020840135602082015260408401356040820152606084013560608201526080840135608082015260a084013560a0820152610f5660c08501610ec8565b60c08201529460e0939093013593505050565b600060608284031215610d2757600080fd5b60008060008060006101408688031215610f9457600080fd5b8535610f9f81610d50565b9450610fae8760208801610d15565b9350610fbd8760c08801610f69565b925061012086013567ffffffffffffffff811115610e7457600080fd5b600060208284031215610fec57600080fd5b5035919050565b60008060008060008060006101a0888a03121561100f57600080fd5b873561101a81610d50565b96506110298960208a01610d15565b95506110388960c08a01610dba565b94506101408801359350610160880135925061018088013567ffffffffffffffff81111561106557600080fd5b6110718a828b01610dcc565b989b979a50959850939692959293505050565b8035600281900b8114610ed857600080fd5b60008060008061010085870312156110ad57600080fd5b84356110b881610d50565b93506110c78660208701610d15565b925060c08501356110d781610d50565b91506110e560e08601611084565b905092959194509250565b600080600080600080610160878903121561110a57600080fd5b863561111581610d50565b95506111248860208901610d15565b94506111338860c08901610f69565b9350610120870135925061014087013567ffffffffffffffff81111561115857600080fd5b61116489828a01610dcc565b979a9699509497509295939492505050565b600080600080600080610120878903121561119057600080fd5b863561119b81610d50565b95506111aa8860208901610d15565b945060c0870135935060e0870135925061010087013567ffffffffffffffff81111561115857600080fd5b8151151581526101c0810160208301516111f3602084018215159052565b506040830151611207604084018215159052565b50606083015161121b606084018215159052565b50608083015161122f608084018215159052565b5060a083015161124360a084018215159052565b5060c083015161125760c084018215159052565b5060e083015161126b60e084018215159052565b5061010083810151151590830152610120808401511515908301526101408084015115159083015261016080840151151590830152610180808401511515908301526101a0928301511515929091019190915290565b600080600060e084860312156112d657600080fd5b83356112e181610d50565b92506112f08560208601610d15565b915060c084013561130081610d50565b809150509250925092565b600060a0828403121561131d57600080fd5b60405160a0810181811067ffffffffffffffff8211171561134e57634e487b7160e01b600052604160045260246000fd5b604052823561135c81610d50565b8152602083013561136c81610d50565b6020820152604083013562ffffff8116811461138757600080fd5b604082015261139860608401611084565b606082015260808301356113ab81610d50565b60808201529392505050565b634e487b7160e01b600052601160045260246000fd5b818103818111156107f5576107f56113b7565b80820281158282048414176107f5576107f56113b7565b60008261141457634e487b7160e01b600052601260045260246000fd5b500490565b60006020828403121561142b57600080fd5b610d4982610ec8565b6000600160ff1b8201611449576114496113b7565b5060000390565b808201808211156107f5576107f56113b756fea2646970667358221220add5fe81866582d45338f22153150ff662f36c7fef2556b7beda7aa422f0c37d64736f6c63430008180033","opcodes":"PUSH1 0xA0 PUSH1 0x40 MSTORE CALLVALUE DUP1 ISZERO PUSH3 0x11 JUMPI PUSH1 0x0 DUP1 REVERT JUMPDEST POP PUSH1 0x40 MLOAD PUSH3 0x17DF CODESIZE SUB DUP1 PUSH3 0x17DF DUP4 CODECOPY DUP2 ADD PUSH1 0x40 DUP2 SWAP1 MSTORE PUSH3 0x34 SWAP2 PUSH3 0x2C7 JUMP JUMPDEST PUSH1 0x1 PUSH1 0x1 PUSH1 0xA0 SHL SUB DUP2 AND PUSH1 0x80 MSTORE DUP1 PUSH3 0x4D ADDRESS PUSH3 0x55 JUMP JUMPDEST POP POP PUSH3 0x2F9 JUMP JUMPDEST PUSH3 0x14D DUP2 PUSH3 0x147 PUSH1 0x40 DUP1 MLOAD PUSH2 0x1C0 DUP2 ADD DUP3 MSTORE PUSH1 0x0 DUP1 DUP3 MSTORE PUSH1 0x20 DUP3 ADD DUP2 SWAP1 MSTORE SWAP2 DUP2 ADD DUP3 SWAP1 MSTORE PUSH1 0x60 DUP2 ADD DUP3 SWAP1 MSTORE PUSH1 0x80 DUP2 ADD DUP3 SWAP1 MSTORE PUSH1 0xA0 DUP2 ADD DUP3 SWAP1 MSTORE PUSH1 0xC0 DUP2 ADD DUP3 SWAP1 MSTORE PUSH1 0xE0 DUP2 ADD DUP3 SWAP1 MSTORE PUSH2 0x100 DUP2 ADD DUP3 SWAP1 MSTORE PUSH2 0x120 DUP2 ADD DUP3 SWAP1 MSTORE PUSH2 0x140 DUP2 ADD DUP3 SWAP1 MSTORE PUSH2 0x160 DUP2 ADD DUP3 SWAP1 MSTORE PUSH2 0x180 DUP2 ADD DUP3 SWAP1 MSTORE PUSH2 0x1A0 DUP2 ADD SWAP2 SWAP1 SWAP2 MSTORE POP PUSH1 0x40 DUP1 MLOAD PUSH2 0x1C0 DUP2 ADD DUP3 MSTORE PUSH1 0x0 DUP1 DUP3 MSTORE PUSH1 0x1 PUSH1 0x20 DUP4 ADD DUP2 SWAP1 MSTORE SWAP3 DUP3 ADD DUP2 SWAP1 MSTORE PUSH1 0x60 DUP3 ADD DUP2 SWAP1 MSTORE PUSH1 0x80 DUP3 ADD DUP2 SWAP1 MSTORE PUSH1 0xA0 DUP3 ADD DUP2 SWAP1 MSTORE PUSH1 0xC0 DUP3 ADD SWAP3 SWAP1 SWAP3 MSTORE PUSH1 0xE0 DUP2 ADD DUP3 SWAP1 MSTORE PUSH2 0x100 DUP2 ADD DUP3 SWAP1 MSTORE PUSH2 0x120 DUP2 ADD DUP3 SWAP1 MSTORE PUSH2 0x140 DUP2 ADD DUP3 SWAP1 MSTORE PUSH2 0x160 DUP2 ADD DUP3 SWAP1 MSTORE PUSH2 0x180 DUP2 ADD DUP3 SWAP1 MSTORE PUSH2 0x1A0 DUP2 ADD SWAP2 SWAP1 SWAP2 MSTORE SWAP1 JUMP JUMPDEST PUSH3 0x150 JUMP JUMPDEST POP JUMP JUMPDEST DUP1 MLOAD ISZERO ISZERO PUSH2 0x2000 DUP4 AND ISZERO ISZERO EQ ISZERO DUP1 PUSH3 0x175 JUMPI POP PUSH1 0x20 DUP2 ADD MLOAD ISZERO ISZERO PUSH2 0x1000 DUP4 AND ISZERO ISZERO EQ ISZERO JUMPDEST DUP1 PUSH3 0x18D JUMPI POP PUSH1 0x40 DUP2 ADD MLOAD ISZERO ISZERO PUSH2 0x800 DUP4 AND ISZERO ISZERO EQ ISZERO JUMPDEST DUP1 PUSH3 0x1A5 JUMPI POP PUSH1 0x60 DUP2 ADD MLOAD ISZERO ISZERO PUSH2 0x400 DUP4 AND ISZERO ISZERO EQ ISZERO JUMPDEST DUP1 PUSH3 0x1BD JUMPI POP PUSH1 0x80 DUP2 ADD MLOAD ISZERO ISZERO PUSH2 0x200 DUP4 AND ISZERO ISZERO EQ ISZERO JUMPDEST DUP1 PUSH3 0x1D5 JUMPI POP PUSH1 0xA0 DUP2 ADD MLOAD ISZERO ISZERO PUSH2 0x100 DUP4 AND ISZERO ISZERO EQ ISZERO JUMPDEST DUP1 PUSH3 0x1EC JUMPI POP PUSH1 0xC0 DUP2 ADD MLOAD ISZERO ISZERO PUSH1 0x80 DUP4 AND ISZERO ISZERO EQ ISZERO JUMPDEST DUP1 PUSH3 0x203 JUMPI POP PUSH1 0xE0 DUP2 ADD MLOAD ISZERO ISZERO PUSH1 0x40 DUP4 AND ISZERO ISZERO EQ ISZERO JUMPDEST DUP1 PUSH3 0x21B JUMPI POP PUSH2 0x100 DUP2 ADD MLOAD ISZERO ISZERO PUSH1 0x20 DUP4 AND ISZERO ISZERO EQ ISZERO JUMPDEST DUP1 PUSH3 0x233 JUMPI POP PUSH2 0x120 DUP2 ADD MLOAD ISZERO ISZERO PUSH1 0x10 DUP4 AND ISZERO ISZERO EQ ISZERO JUMPDEST DUP1 PUSH3 0x24B JUMPI POP PUSH2 0x140 DUP2 ADD MLOAD ISZERO ISZERO PUSH1 0x8 DUP4 AND ISZERO ISZERO EQ ISZERO JUMPDEST DUP1 PUSH3 0x263 JUMPI POP PUSH2 0x160 DUP2 ADD MLOAD ISZERO ISZERO PUSH1 0x4 DUP4 AND ISZERO ISZERO EQ ISZERO JUMPDEST DUP1 PUSH3 0x27B JUMPI POP PUSH2 0x180 DUP2 ADD MLOAD ISZERO ISZERO PUSH1 0x2 DUP4 AND ISZERO ISZERO EQ ISZERO JUMPDEST DUP1 PUSH3 0x293 JUMPI POP PUSH2 0x1A0 DUP2 ADD MLOAD ISZERO ISZERO PUSH1 0x1 DUP4 AND ISZERO ISZERO EQ ISZERO JUMPDEST ISZERO PUSH3 0x2AC JUMPI PUSH3 0x2AC PUSH4 0x732D7B5 PUSH1 0xE5 SHL DUP4 PUSH3 0x2B0 JUMP JUMPDEST POP POP JUMP JUMPDEST DUP2 PUSH1 0x0 MSTORE PUSH1 0x1 PUSH1 0x1 PUSH1 0xA0 SHL SUB DUP2 AND PUSH1 0x4 MSTORE PUSH1 0x24 PUSH1 0x0 REVERT JUMPDEST PUSH1 0x0 PUSH1 0x20 DUP3 DUP5 SUB SLT ISZERO PUSH3 0x2DA JUMPI PUSH1 0x0 DUP1 REVERT JUMPDEST DUP2 MLOAD PUSH1 0x1 PUSH1 0x1 PUSH1 0xA0 SHL SUB DUP2 AND DUP2 EQ PUSH3 0x2F2 JUMPI PUSH1 0x0 DUP1 REVERT JUMPDEST SWAP4 SWAP3 POP POP POP JUMP JUMPDEST PUSH1 0x80 MLOAD PUSH2 0x1499 PUSH3 0x346 PUSH1 0x0 CODECOPY PUSH1 0x0 DUP2 DUP2 PUSH2 0x422 ADD MSTORE DUP2 DUP2 PUSH2 0x728 ADD MSTORE DUP2 DUP2 PUSH2 0x80A ADD MSTORE DUP2 DUP2 PUSH2 0x875 ADD MSTORE DUP2 DUP2 PUSH2 0x8DF ADD MSTORE DUP2 DUP2 PUSH2 0x93C ADD MSTORE DUP2 DUP2 PUSH2 0x9A4 ADD MSTORE PUSH2 0xA08 ADD MSTORE PUSH2 0x1499 PUSH1 0x0 RETURN INVALID PUSH1 0x80 PUSH1 0x40 MSTORE CALLVALUE DUP1 ISZERO PUSH2 0x10 JUMPI PUSH1 0x0 DUP1 REVERT JUMPDEST POP PUSH1 0x4 CALLDATASIZE LT PUSH2 0x100 JUMPI PUSH1 0x0 CALLDATALOAD PUSH1 0xE0 SHR DUP1 PUSH4 0x6FE7E6EB GT PUSH2 0x97 JUMPI DUP1 PUSH4 0xC4E833CE GT PUSH2 0x66 JUMPI DUP1 PUSH4 0xC4E833CE EQ PUSH2 0x324 JUMPI DUP1 PUSH4 0xDC4C90D3 EQ PUSH2 0x41D JUMPI DUP1 PUSH4 0xDC98354E EQ PUSH2 0x45C JUMPI DUP1 PUSH4 0xE1B4AF69 EQ PUSH2 0x311 JUMPI PUSH1 0x0 DUP1 REVERT JUMPDEST DUP1 PUSH4 0x6FE7E6EB EQ PUSH2 0x2C8 JUMPI DUP1 PUSH4 0x9F063EFC EQ PUSH2 0x295 JUMPI DUP1 PUSH4 0xB47B2FB1 EQ PUSH2 0x2DB JUMPI DUP1 PUSH4 0xB6A8B0FA EQ PUSH2 0x311 JUMPI PUSH1 0x0 DUP1 REVERT JUMPDEST DUP1 PUSH4 0x3F11B4B5 GT PUSH2 0xD3 JUMPI DUP1 PUSH4 0x3F11B4B5 EQ PUSH2 0x19D JUMPI DUP1 PUSH4 0x575E24B4 EQ PUSH2 0x1BE JUMPI DUP1 PUSH4 0x6057292B EQ PUSH2 0x1FC JUMPI DUP1 PUSH4 0x6C2BBE7E EQ PUSH2 0x295 JUMPI PUSH1 0x0 DUP1 REVERT JUMPDEST DUP1 PUSH4 0x8E06D18 EQ PUSH2 0x105 JUMPI DUP1 PUSH4 0x147C713E EQ PUSH2 0x15C JUMPI DUP1 PUSH4 0x21D0EE70 EQ PUSH2 0x171 JUMPI DUP1 PUSH4 0x259982E5 EQ PUSH2 0x171 JUMPI JUMPDEST PUSH1 0x0 DUP1 REVERT JUMPDEST PUSH2 0x118 PUSH2 0x113 CALLDATASIZE PUSH1 0x4 PUSH2 0xD2D JUMP JUMPDEST PUSH2 0x46F JUMP JUMPDEST PUSH1 0x40 DUP1 MLOAD SWAP8 ISZERO ISZERO DUP9 MSTORE PUSH1 0x1 PUSH1 0x1 PUSH1 0xA0 SHL SUB SWAP1 SWAP7 AND PUSH1 0x20 DUP9 ADD MSTORE SWAP5 DUP7 ADD SWAP4 SWAP1 SWAP4 MSTORE PUSH1 0x60 DUP6 ADD SWAP2 SWAP1 SWAP2 MSTORE PUSH1 0x80 DUP5 ADD MSTORE PUSH1 0xA0 DUP4 ADD MSTORE PUSH1 0xC0 DUP3 ADD MSTORE PUSH1 0xE0 ADD JUMPDEST PUSH1 0x40 MLOAD DUP1 SWAP2 SUB SWAP1 RETURN JUMPDEST PUSH2 0x16F PUSH2 0x16A CALLDATASIZE PUSH1 0x4 PUSH2 0xD68 JUMP JUMPDEST PUSH2 0x5BF JUMP JUMPDEST STOP JUMPDEST PUSH2 0x184 PUSH2 0x17F CALLDATASIZE PUSH1 0x4 PUSH2 0xE15 JUMP JUMPDEST PUSH2 0x71B JUMP JUMPDEST PUSH1 0x40 MLOAD PUSH1 0x1 PUSH1 0x1 PUSH1 0xE0 SHL SUB NOT SWAP1 SWAP2 AND DUP2 MSTORE PUSH1 0x20 ADD PUSH2 0x153 JUMP JUMPDEST PUSH2 0x1B0 PUSH2 0x1AB CALLDATASIZE PUSH1 0x4 PUSH2 0xEDD JUMP JUMPDEST PUSH2 0x77D JUMP JUMPDEST PUSH1 0x40 MLOAD SWAP1 DUP2 MSTORE PUSH1 0x20 ADD PUSH2 0x153 JUMP JUMPDEST PUSH2 0x1D1 PUSH2 0x1CC CALLDATASIZE PUSH1 0x4 PUSH2 0xF7B JUMP JUMPDEST PUSH2 0x7FB JUMP JUMPDEST PUSH1 0x40 DUP1 MLOAD PUSH1 0x1 PUSH1 0x1 PUSH1 0xE0 SHL SUB NOT SWAP1 SWAP5 AND DUP5 MSTORE PUSH1 0x20 DUP5 ADD SWAP3 SWAP1 SWAP3 MSTORE PUSH3 0xFFFFFF AND SWAP1 DUP3 ADD MSTORE PUSH1 0x60 ADD PUSH2 0x153 JUMP JUMPDEST PUSH2 0x254 PUSH2 0x20A CALLDATASIZE PUSH1 0x4 PUSH2 0xFDA JUMP JUMPDEST PUSH1 0x0 PUSH1 0x20 DUP2 SWAP1 MSTORE SWAP1 DUP2 MSTORE PUSH1 0x40 SWAP1 KECCAK256 DUP1 SLOAD PUSH1 0x1 DUP3 ADD SLOAD PUSH1 0x2 DUP4 ADD SLOAD PUSH1 0x3 DUP5 ADD SLOAD PUSH1 0x4 DUP6 ADD SLOAD PUSH1 0x5 DUP7 ADD SLOAD PUSH1 0x6 SWAP1 SWAP7 ADD SLOAD PUSH1 0x1 PUSH1 0x1 PUSH1 0xA0 SHL SUB SWAP1 SWAP6 AND SWAP6 SWAP4 SWAP5 SWAP3 SWAP4 SWAP2 SWAP3 SWAP1 SWAP2 SWAP1 PUSH1 0xFF AND DUP8 JUMP JUMPDEST PUSH1 0x40 DUP1 MLOAD PUSH1 0x1 PUSH1 0x1 PUSH1 0xA0 SHL SUB SWAP1 SWAP9 AND DUP9 MSTORE PUSH1 0x20 DUP9 ADD SWAP7 SWAP1 SWAP7 MSTORE SWAP5 DUP7 ADD SWAP4 SWAP1 SWAP4 MSTORE PUSH1 0x60 DUP6 ADD SWAP2 SWAP1 SWAP2 MSTORE PUSH1 0x80 DUP5 ADD MSTORE PUSH1 0xA0 DUP4 ADD MSTORE ISZERO ISZERO PUSH1 0xC0 DUP3 ADD MSTORE PUSH1 0xE0 ADD PUSH2 0x153 JUMP JUMPDEST PUSH2 0x2A8 PUSH2 0x2A3 CALLDATASIZE PUSH1 0x4 PUSH2 0xFF3 JUMP JUMPDEST PUSH2 0x867 JUMP JUMPDEST PUSH1 0x40 DUP1 MLOAD PUSH1 0x1 PUSH1 0x1 PUSH1 0xE0 SHL SUB NOT SWAP1 SWAP4 AND DUP4 MSTORE PUSH1 0x20 DUP4 ADD SWAP2 SWAP1 SWAP2 MSTORE ADD PUSH2 0x153 JUMP JUMPDEST PUSH2 0x184 PUSH2 0x2D6 CALLDATASIZE PUSH1 0x4 PUSH2 0x1096 JUMP JUMPDEST PUSH2 0x8D2 JUMP JUMPDEST PUSH2 0x2EE PUSH2 0x2E9 CALLDATASIZE PUSH1 0x4 PUSH2 0x10F0 JUMP JUMPDEST PUSH2 0x92E JUMP JUMPDEST PUSH1 0x40 DUP1 MLOAD PUSH1 0x1 PUSH1 0x1 PUSH1 0xE0 SHL SUB NOT SWAP1 SWAP4 AND DUP4 MSTORE PUSH1 0xF SWAP2 SWAP1 SWAP2 SIGNEXTEND PUSH1 0x20 DUP4 ADD MSTORE ADD PUSH2 0x153 JUMP JUMPDEST PUSH2 0x184 PUSH2 0x31F CALLDATASIZE PUSH1 0x4 PUSH2 0x1176 JUMP JUMPDEST PUSH2 0x997 JUMP JUMPDEST PUSH2 0x410 PUSH1 0x40 DUP1 MLOAD PUSH2 0x1C0 DUP2 ADD DUP3 MSTORE PUSH1 0x0 DUP1 DUP3 MSTORE PUSH1 0x20 DUP3 ADD DUP2 SWAP1 MSTORE SWAP2 DUP2 ADD DUP3 SWAP1 MSTORE PUSH1 0x60 DUP2 ADD DUP3 SWAP1 MSTORE PUSH1 0x80 DUP2 ADD DUP3 SWAP1 MSTORE PUSH1 0xA0 DUP2 ADD DUP3 SWAP1 MSTORE PUSH1 0xC0 DUP2 ADD DUP3 SWAP1 MSTORE PUSH1 0xE0 DUP2 ADD DUP3 SWAP1 MSTORE PUSH2 0x100 DUP2 ADD DUP3 SWAP1 MSTORE PUSH2 0x120 DUP2 ADD DUP3 SWAP1 MSTORE PUSH2 0x140 DUP2 ADD DUP3 SWAP1 MSTORE PUSH2 0x160 DUP2 ADD DUP3 SWAP1 MSTORE PUSH2 0x180 DUP2 ADD DUP3 SWAP1 MSTORE PUSH2 0x1A0 DUP2 ADD SWAP2 SWAP1 SWAP2 MSTORE POP PUSH1 0x40 DUP1 MLOAD PUSH2 0x1C0 DUP2 ADD DUP3 MSTORE PUSH1 0x0 DUP1 DUP3 MSTORE PUSH1 0x1 PUSH1 0x20 DUP4 ADD DUP2 SWAP1 MSTORE SWAP3 DUP3 ADD DUP2 SWAP1 MSTORE PUSH1 0x60 DUP3 ADD DUP2 SWAP1 MSTORE PUSH1 0x80 DUP3 ADD DUP2 SWAP1 MSTORE PUSH1 0xA0 DUP3 ADD DUP2 SWAP1 MSTORE PUSH1 0xC0 DUP3 ADD SWAP3 SWAP1 SWAP3 MSTORE PUSH1 0xE0 DUP2 ADD DUP3 SWAP1 MSTORE PUSH2 0x100 DUP2 ADD DUP3 SWAP1 MSTORE PUSH2 0x120 DUP2 ADD DUP3 SWAP1 MSTORE PUSH2 0x140 DUP2 ADD DUP3 SWAP1 MSTORE PUSH2 0x160 DUP2 ADD DUP3 SWAP1 MSTORE PUSH2 0x180 DUP2 ADD DUP3 SWAP1 MSTORE PUSH2 0x1A0 DUP2 ADD SWAP2 SWAP1 SWAP2 MSTORE SWAP1 JUMP JUMPDEST PUSH1 0x40 MLOAD PUSH2 0x153 SWAP2 SWAP1 PUSH2 0x11D5 JUMP JUMPDEST PUSH2 0x444 PUSH32 0x0 DUP2 JUMP JUMPDEST PUSH1 0x40 MLOAD PUSH1 0x1 PUSH1 0x1 PUSH1 0xA0 SHL SUB SWAP1 SWAP2 AND DUP2 MSTORE PUSH1 0x20 ADD PUSH2 0x153 JUMP JUMPDEST PUSH2 0x184 PUSH2 0x46A CALLDATASIZE PUSH1 0x4 PUSH2 0x12C1 JUMP JUMPDEST PUSH2 0x9FB JUMP JUMPDEST PUSH1 0x0 DUP1 DUP1 DUP1 DUP1 DUP1 DUP1 DUP1 PUSH2 0x491 PUSH2 0x48A CALLDATASIZE DUP12 SWAP1 SUB DUP12 ADD DUP12 PUSH2 0x130B JUMP JUMPDEST PUSH1 0xA0 SWAP1 KECCAK256 SWAP1 JUMP JUMPDEST PUSH1 0x0 DUP2 DUP2 MSTORE PUSH1 0x20 DUP2 DUP2 MSTORE PUSH1 0x40 SWAP2 DUP3 SWAP1 KECCAK256 DUP3 MLOAD PUSH1 0xE0 DUP2 ADD DUP5 MSTORE DUP2 SLOAD PUSH1 0x1 PUSH1 0x1 PUSH1 0xA0 SHL SUB AND DUP2 MSTORE PUSH1 0x1 DUP3 ADD SLOAD SWAP3 DUP2 ADD SWAP3 SWAP1 SWAP3 MSTORE PUSH1 0x2 DUP2 ADD SLOAD SWAP3 DUP3 ADD SWAP3 SWAP1 SWAP3 MSTORE PUSH1 0x3 DUP3 ADD SLOAD PUSH1 0x60 DUP3 ADD MSTORE PUSH1 0x4 DUP3 ADD SLOAD PUSH1 0x80 DUP3 ADD MSTORE PUSH1 0x5 DUP3 ADD SLOAD PUSH1 0xA0 DUP3 ADD MSTORE PUSH1 0x6 SWAP1 SWAP2 ADD SLOAD PUSH1 0xFF AND ISZERO ISZERO PUSH1 0xC0 DUP3 ADD DUP2 SWAP1 MSTORE SWAP2 SWAP3 POP SWAP1 PUSH2 0x526 JUMPI PUSH1 0x0 DUP1 PUSH1 0x0 DUP1 PUSH1 0x0 DUP1 PUSH1 0x0 SWAP9 POP SWAP9 POP SWAP9 POP SWAP9 POP SWAP9 POP SWAP9 POP SWAP9 POP POP POP PUSH2 0x5B4 JUMP JUMPDEST PUSH1 0x0 DUP2 PUSH1 0x20 ADD MLOAD TIMESTAMP PUSH2 0x538 SWAP2 SWAP1 PUSH2 0x13CD JUMP JUMPDEST SWAP1 POP PUSH1 0x0 PUSH2 0x546 DUP4 DUP4 PUSH2 0x77D JUMP JUMPDEST SWAP1 POP PUSH1 0x0 DUP4 PUSH1 0xA0 ADD MLOAD DUP3 GT PUSH2 0x55C JUMPI PUSH1 0x0 PUSH2 0x56B JUMP JUMPDEST PUSH1 0xA0 DUP5 ADD MLOAD PUSH2 0x56B SWAP1 DUP4 PUSH2 0x13CD JUMP JUMPDEST SWAP1 POP PUSH1 0x0 DUP5 PUSH1 0x60 ADD MLOAD DUP5 LT ISZERO PUSH2 0x58E JUMPI DUP4 DUP6 PUSH1 0x60 ADD MLOAD PUSH2 0x58B SWAP2 SWAP1 PUSH2 0x13CD JUMP JUMPDEST SWAP1 POP JUMPDEST DUP5 MLOAD PUSH1 0x80 DUP7 ADD MLOAD PUSH1 0xA0 SWAP1 SWAP7 ADD MLOAD PUSH1 0x1 SWAP15 POP SWAP1 SWAP13 POP SWAP5 SWAP11 POP SWAP2 SWAP9 POP SWAP3 SWAP7 POP SWAP2 SWAP5 POP SWAP1 SWAP3 POP POP POP JUMPDEST SWAP2 SWAP4 SWAP6 SWAP8 SWAP1 SWAP3 SWAP5 SWAP7 POP JUMP JUMPDEST PUSH1 0x0 PUSH2 0x5D3 PUSH2 0x48A CALLDATASIZE DUP9 SWAP1 SUB DUP9 ADD DUP9 PUSH2 0x130B JUMP JUMPDEST PUSH1 0x0 DUP2 DUP2 MSTORE PUSH1 0x20 DUP2 SWAP1 MSTORE PUSH1 0x40 SWAP1 KECCAK256 PUSH1 0x6 ADD SLOAD SWAP1 SWAP2 POP PUSH1 0xFF AND ISZERO PUSH2 0x608 JUMPI PUSH1 0x40 MLOAD PUSH3 0xDC149F PUSH1 0xE4 SHL DUP2 MSTORE PUSH1 0x4 ADD PUSH1 0x40 MLOAD DUP1 SWAP2 SUB SWAP1 REVERT JUMPDEST DUP3 ISZERO DUP1 PUSH2 0x614 JUMPI POP DUP3 DUP5 GT JUMPDEST ISZERO PUSH2 0x632 JUMPI PUSH1 0x40 MLOAD PUSH4 0x76166401 PUSH1 0xE0 SHL DUP2 MSTORE PUSH1 0x4 ADD PUSH1 0x40 MLOAD DUP1 SWAP2 SUB SWAP1 REVERT JUMPDEST PUSH1 0x40 DUP1 MLOAD PUSH1 0xE0 DUP2 ADD DUP3 MSTORE PUSH1 0x1 PUSH1 0x1 PUSH1 0xA0 SHL SUB DUP8 DUP2 AND DUP1 DUP4 MSTORE TIMESTAMP PUSH1 0x20 DUP1 DUP6 ADD SWAP2 DUP3 MSTORE DUP5 DUP7 ADD DUP11 DUP2 MSTORE PUSH1 0x60 DUP1 DUP8 ADD DUP12 DUP2 MSTORE PUSH1 0x80 DUP9 ADD DUP12 DUP2 MSTORE PUSH1 0x0 PUSH1 0xA0 DUP11 ADD DUP2 DUP2 MSTORE PUSH1 0x1 PUSH1 0xC0 DUP13 ADD DUP2 DUP2 MSTORE DUP15 DUP5 MSTORE DUP4 DUP10 MSTORE SWAP3 DUP14 SWAP1 KECCAK256 SWAP12 MLOAD DUP13 SLOAD PUSH1 0x1 PUSH1 0x1 PUSH1 0xA0 SHL SUB NOT AND SWAP12 AND SWAP11 SWAP1 SWAP11 OR DUP12 SSTORE SWAP7 MLOAD SWAP9 DUP11 ADD SWAP9 SWAP1 SWAP9 SSTORE SWAP3 MLOAD PUSH1 0x2 DUP10 ADD SSTORE MLOAD PUSH1 0x3 DUP9 ADD SSTORE SWAP1 MLOAD PUSH1 0x4 DUP8 ADD SSTORE SWAP2 MLOAD PUSH1 0x5 DUP7 ADD SSTORE SWAP3 MLOAD PUSH1 0x6 SWAP1 SWAP5 ADD DUP1 SLOAD PUSH1 0xFF NOT AND SWAP5 ISZERO ISZERO SWAP5 SWAP1 SWAP5 OR SWAP1 SWAP4 SSTORE DUP4 MLOAD DUP9 DUP2 MSTORE SWAP2 DUP3 ADD DUP8 SWAP1 MSTORE SWAP3 DUP2 ADD DUP6 SWAP1 MSTORE DUP4 SWAP2 PUSH32 0x79E0C45688136E9FB4D975D6A4202EAC9B34F7286254A419923F1388633ACDF0 SWAP2 ADD PUSH1 0x40 MLOAD DUP1 SWAP2 SUB SWAP1 LOG3 POP POP POP POP POP POP JUMP JUMPDEST PUSH1 0x0 CALLER PUSH1 0x1 PUSH1 0x1 PUSH1 0xA0 SHL SUB PUSH32 0x0 AND EQ PUSH2 0x766 JUMPI PUSH1 0x40 MLOAD PUSH4 0x570C1085 PUSH1 0xE1 SHL DUP2 MSTORE PUSH1 0x4 ADD PUSH1 0x40 MLOAD DUP1 SWAP2 SUB SWAP1 REVERT JUMPDEST PUSH2 0x773 DUP7 DUP7 DUP7 DUP7 DUP7 PUSH2 0xA59 JUMP JUMPDEST SWAP7 SWAP6 POP POP POP POP POP POP JUMP JUMPDEST PUSH1 0x0 DUP3 PUSH1 0x40 ADD MLOAD DUP3 LT ISZERO PUSH2 0x793 JUMPI POP PUSH1 0x0 PUSH2 0x7F5 JUMP JUMPDEST DUP3 PUSH1 0x60 ADD MLOAD DUP3 LT PUSH2 0x7A9 JUMPI POP PUSH1 0x80 DUP3 ADD MLOAD PUSH2 0x7F5 JUMP JUMPDEST PUSH1 0x0 DUP4 PUSH1 0x40 ADD MLOAD DUP4 PUSH2 0x7BB SWAP2 SWAP1 PUSH2 0x13CD JUMP JUMPDEST SWAP1 POP PUSH1 0x0 DUP5 PUSH1 0x40 ADD MLOAD DUP6 PUSH1 0x60 ADD MLOAD PUSH2 0x7D3 SWAP2 SWAP1 PUSH2 0x13CD JUMP JUMPDEST SWAP1 POP DUP1 DUP3 DUP7 PUSH1 0x80 ADD MLOAD PUSH2 0x7E6 SWAP2 SWAP1 PUSH2 0x13E0 JUMP JUMPDEST PUSH2 0x7F0 SWAP2 SWAP1 PUSH2 0x13F7 JUMP JUMPDEST SWAP3 POP POP POP JUMPDEST SWAP3 SWAP2 POP POP JUMP JUMPDEST PUSH1 0x0 DUP1 DUP1 CALLER PUSH1 0x1 PUSH1 0x1 PUSH1 0xA0 SHL SUB PUSH32 0x0 AND EQ PUSH2 0x848 JUMPI PUSH1 0x40 MLOAD PUSH4 0x570C1085 PUSH1 0xE1 SHL DUP2 MSTORE PUSH1 0x4 ADD PUSH1 0x40 MLOAD DUP1 SWAP2 SUB SWAP1 REVERT JUMPDEST PUSH2 0x855 DUP9 DUP9 DUP9 DUP9 DUP9 PUSH2 0xA74 JUMP JUMPDEST SWAP3 POP SWAP3 POP SWAP3 POP JUMPDEST SWAP6 POP SWAP6 POP SWAP6 SWAP3 POP POP POP JUMP JUMPDEST PUSH1 0x0 DUP1 CALLER PUSH1 0x1 PUSH1 0x1 PUSH1 0xA0 SHL SUB PUSH32 0x0 AND EQ PUSH2 0x8B3 JUMPI PUSH1 0x40 MLOAD PUSH4 0x570C1085 PUSH1 0xE1 SHL DUP2 MSTORE PUSH1 0x4 ADD PUSH1 0x40 MLOAD DUP1 SWAP2 SUB SWAP1 REVERT JUMPDEST PUSH2 0x8C2 DUP10 DUP10 DUP10 DUP10 DUP10 DUP10 DUP10 PUSH2 0xCF9 JUMP JUMPDEST SWAP2 POP SWAP2 POP SWAP8 POP SWAP8 SWAP6 POP POP POP POP POP POP JUMP JUMPDEST PUSH1 0x0 CALLER PUSH1 0x1 PUSH1 0x1 PUSH1 0xA0 SHL SUB PUSH32 0x0 AND EQ PUSH2 0x91D JUMPI PUSH1 0x40 MLOAD PUSH4 0x570C1085 PUSH1 0xE1 SHL DUP2 MSTORE PUSH1 0x4 ADD PUSH1 0x40 MLOAD DUP1 SWAP2 SUB SWAP1 REVERT JUMPDEST PUSH4 0x6FE7E6EB PUSH1 0xE0 SHL SWAP6 SWAP5 POP POP POP POP POP JUMP JUMPDEST PUSH1 0x0 DUP1 CALLER PUSH1 0x1 PUSH1 0x1 PUSH1 0xA0 SHL SUB PUSH32 0x0 AND EQ PUSH2 0x97A JUMPI PUSH1 0x40 MLOAD PUSH4 0x570C1085 PUSH1 0xE1 SHL DUP2 MSTORE PUSH1 0x4 ADD PUSH1 0x40 MLOAD DUP1 SWAP2 SUB SWAP1 REVERT JUMPDEST PUSH2 0x988 DUP9 DUP9 DUP9 DUP9 DUP9 DUP9 PUSH2 0xCF9 JUMP JUMPDEST SWAP2 POP SWAP2 POP SWAP7 POP SWAP7 SWAP5 POP POP POP POP POP JUMP JUMPDEST PUSH1 0x0 CALLER PUSH1 0x1 PUSH1 0x1 PUSH1 0xA0 SHL SUB PUSH32 0x0 AND EQ PUSH2 0x9E2 JUMPI PUSH1 0x40 MLOAD PUSH4 0x570C1085 PUSH1 0xE1 SHL DUP2 MSTORE PUSH1 0x4 ADD PUSH1 0x40 MLOAD DUP1 SWAP2 SUB SWAP1 REVERT JUMPDEST PUSH2 0x9F0 DUP8 DUP8 DUP8 DUP8 DUP8 DUP8 PUSH2 0xA59 JUMP JUMPDEST SWAP8 SWAP7 POP POP POP POP POP POP POP JUMP JUMPDEST PUSH1 0x0 CALLER PUSH1 0x1 PUSH1 0x1 PUSH1 0xA0 SHL SUB PUSH32 0x0 AND EQ PUSH2 0xA46 JUMPI PUSH1 0x40 MLOAD PUSH4 0x570C1085 PUSH1 0xE1 SHL DUP2 MSTORE PUSH1 0x4 ADD PUSH1 0x40 MLOAD DUP1 SWAP2 SUB SWAP1 REVERT JUMPDEST PUSH2 0xA51 DUP5 DUP5 DUP5 PUSH2 0xA59 JUMP JUMPDEST SWAP5 SWAP4 POP POP POP POP JUMP JUMPDEST PUSH1 0x0 PUSH1 0x40 MLOAD PUSH4 0xA85DC29 PUSH1 0xE0 SHL DUP2 MSTORE PUSH1 0x4 ADD PUSH1 0x40 MLOAD DUP1 SWAP2 SUB SWAP1 REVERT JUMPDEST PUSH1 0x0 DUP1 DUP1 DUP1 PUSH2 0xA8B PUSH2 0x48A CALLDATASIZE DUP11 SWAP1 SUB DUP11 ADD DUP11 PUSH2 0x130B JUMP JUMPDEST PUSH1 0x0 DUP2 DUP2 MSTORE PUSH1 0x20 DUP2 SWAP1 MSTORE PUSH1 0x40 SWAP1 KECCAK256 PUSH1 0x6 DUP2 ADD SLOAD SWAP2 SWAP3 POP SWAP1 PUSH1 0xFF AND PUSH2 0xAC2 JUMPI POP PUSH4 0x15D7892D PUSH1 0xE2 SHL SWAP4 POP PUSH1 0x0 SWAP3 POP DUP3 SWAP2 POP PUSH2 0x85C SWAP1 POP JUMP JUMPDEST DUP1 SLOAD PUSH1 0x1 PUSH1 0x1 PUSH1 0xA0 SHL SUB SWAP1 DUP2 AND SWAP1 DUP12 AND SUB PUSH2 0xCDE JUMPI PUSH1 0x0 PUSH2 0xAE6 PUSH1 0x20 DUP11 ADD DUP11 PUSH2 0x1419 JUMP JUMPDEST SWAP1 POP DUP1 ISZERO PUSH2 0xCDC JUMPI PUSH1 0x0 DUP3 PUSH1 0x1 ADD SLOAD TIMESTAMP PUSH2 0xB00 SWAP2 SWAP1 PUSH2 0x13CD JUMP JUMPDEST SWAP1 POP DUP3 PUSH1 0x2 ADD SLOAD DUP2 LT ISZERO PUSH2 0xBAC JUMPI PUSH1 0x0 DUP2 DUP5 PUSH1 0x2 ADD SLOAD PUSH2 0xB20 SWAP2 SWAP1 PUSH2 0x13CD JUMP JUMPDEST DUP5 SLOAD SWAP1 SWAP2 POP PUSH1 0x1 PUSH1 0x1 PUSH1 0xA0 SHL SUB AND DUP6 PUSH32 0x5EC97B32ACFF10F485353F329CA619E91EE1900795E9A96353B9C5850573756E PUSH1 0x0 PUSH1 0x20 DUP16 ADD CALLDATALOAD SGT PUSH2 0xB6E JUMPI PUSH2 0xB69 PUSH1 0x20 DUP16 ADD CALLDATALOAD PUSH2 0x1434 JUMP JUMPDEST PUSH2 0xB74 JUMP JUMPDEST DUP14 PUSH1 0x20 ADD CALLDATALOAD JUMPDEST PUSH1 0x40 DUP1 MLOAD SWAP2 DUP3 MSTORE PUSH1 0x20 DUP3 ADD DUP7 SWAP1 MSTORE ADD PUSH1 0x40 MLOAD DUP1 SWAP2 SUB SWAP1 LOG3 PUSH1 0x40 MLOAD PUSH4 0x310C0D35 PUSH1 0xE1 SHL DUP2 MSTORE PUSH1 0x4 DUP2 ADD DUP3 SWAP1 MSTORE PUSH1 0x24 ADD JUMPDEST PUSH1 0x40 MLOAD DUP1 SWAP2 SUB SWAP1 REVERT JUMPDEST PUSH1 0x40 DUP1 MLOAD PUSH1 0xE0 DUP2 ADD DUP3 MSTORE DUP5 SLOAD PUSH1 0x1 PUSH1 0x1 PUSH1 0xA0 SHL SUB AND DUP2 MSTORE PUSH1 0x1 DUP6 ADD SLOAD PUSH1 0x20 DUP3 ADD MSTORE PUSH1 0x2 DUP6 ADD SLOAD SWAP2 DUP2 ADD SWAP2 SWAP1 SWAP2 MSTORE PUSH1 0x3 DUP5 ADD SLOAD PUSH1 0x60 DUP3 ADD MSTORE PUSH1 0x4 DUP5 ADD SLOAD PUSH1 0x80 DUP3 ADD MSTORE PUSH1 0x5 DUP5 ADD SLOAD PUSH1 0xA0 DUP3 ADD MSTORE PUSH1 0x6 DUP5 ADD SLOAD PUSH1 0xFF AND ISZERO ISZERO PUSH1 0xC0 DUP3 ADD MSTORE PUSH1 0x0 SWAP1 PUSH2 0xC13 SWAP1 DUP4 PUSH2 0x77D JUMP JUMPDEST SWAP1 POP PUSH1 0x0 DUP5 PUSH1 0x5 ADD SLOAD DUP3 PUSH2 0xC27 SWAP2 SWAP1 PUSH2 0x13CD JUMP JUMPDEST SWAP1 POP PUSH1 0x0 DUP1 DUP14 PUSH1 0x20 ADD CALLDATALOAD SGT PUSH2 0xC48 JUMPI PUSH2 0xC43 PUSH1 0x20 DUP15 ADD CALLDATALOAD PUSH2 0x1434 JUMP JUMPDEST PUSH2 0xC4E JUMP JUMPDEST DUP13 PUSH1 0x20 ADD CALLDATALOAD JUMPDEST SWAP1 POP DUP2 DUP2 GT ISZERO PUSH2 0xC7B JUMPI PUSH1 0x40 MLOAD PUSH4 0xB36A3239 PUSH1 0xE0 SHL DUP2 MSTORE PUSH1 0x4 DUP2 ADD DUP3 SWAP1 MSTORE PUSH1 0x24 DUP2 ADD DUP4 SWAP1 MSTORE PUSH1 0x44 ADD PUSH2 0xBA3 JUMP JUMPDEST DUP1 DUP7 PUSH1 0x5 ADD PUSH1 0x0 DUP3 DUP3 SLOAD PUSH2 0xC8F SWAP2 SWAP1 PUSH2 0x1450 JUMP JUMPDEST SWAP1 SWAP2 SSTORE POP POP DUP6 SLOAD PUSH1 0x40 MLOAD DUP3 DUP2 MSTORE PUSH1 0x1 PUSH1 0x1 PUSH1 0xA0 SHL SUB SWAP1 SWAP2 AND SWAP1 DUP9 SWAP1 PUSH32 0x62EB4BD96D9A7A66875A9F46F9F9D8BF6CFED3FE0578671B752301427D2A4F66 SWAP1 PUSH1 0x20 ADD PUSH1 0x40 MLOAD DUP1 SWAP2 SUB SWAP1 LOG3 POP POP POP POP JUMPDEST POP JUMPDEST POP PUSH4 0x15D7892D PUSH1 0xE2 SHL SWAP10 PUSH1 0x0 SWAP10 POP DUP10 SWAP9 POP SWAP7 POP POP POP POP POP POP POP JUMP JUMPDEST PUSH1 0x0 DUP1 PUSH1 0x40 MLOAD PUSH4 0xA85DC29 PUSH1 0xE0 SHL DUP2 MSTORE PUSH1 0x4 ADD PUSH1 0x40 MLOAD DUP1 SWAP2 SUB SWAP1 REVERT JUMPDEST PUSH1 0x0 PUSH1 0xA0 DUP3 DUP5 SUB SLT ISZERO PUSH2 0xD27 JUMPI PUSH1 0x0 DUP1 REVERT JUMPDEST POP SWAP2 SWAP1 POP JUMP JUMPDEST PUSH1 0x0 PUSH1 0xA0 DUP3 DUP5 SUB SLT ISZERO PUSH2 0xD3F JUMPI PUSH1 0x0 DUP1 REVERT JUMPDEST PUSH2 0xD49 DUP4 DUP4 PUSH2 0xD15 JUMP JUMPDEST SWAP4 SWAP3 POP POP POP JUMP JUMPDEST PUSH1 0x1 PUSH1 0x1 PUSH1 0xA0 SHL SUB DUP2 AND DUP2 EQ PUSH2 0xD65 JUMPI PUSH1 0x0 DUP1 REVERT JUMPDEST POP JUMP JUMPDEST PUSH1 0x0 DUP1 PUSH1 0x0 DUP1 PUSH1 0x0 PUSH2 0x120 DUP7 DUP9 SUB SLT ISZERO PUSH2 0xD81 JUMPI PUSH1 0x0 DUP1 REVERT JUMPDEST PUSH2 0xD8B DUP8 DUP8 PUSH2 0xD15 JUMP JUMPDEST SWAP5 POP PUSH1 0xA0 DUP7 ADD CALLDATALOAD PUSH2 0xD9B DUP2 PUSH2 0xD50 JUMP JUMPDEST SWAP5 SWAP8 SWAP5 SWAP7 POP POP POP POP PUSH1 0xC0 DUP4 ADD CALLDATALOAD SWAP3 PUSH1 0xE0 DUP2 ADD CALLDATALOAD SWAP3 PUSH2 0x100 SWAP1 SWAP2 ADD CALLDATALOAD SWAP2 POP JUMP JUMPDEST PUSH1 0x0 PUSH1 0x80 DUP3 DUP5 SUB SLT ISZERO PUSH2 0xD27 JUMPI PUSH1 0x0 DUP1 REVERT JUMPDEST PUSH1 0x0 DUP1 DUP4 PUSH1 0x1F DUP5 ADD SLT PUSH2 0xDDE JUMPI PUSH1 0x0 DUP1 REVERT JUMPDEST POP DUP2 CALLDATALOAD PUSH8 0xFFFFFFFFFFFFFFFF DUP2 GT ISZERO PUSH2 0xDF6 JUMPI PUSH1 0x0 DUP1 REVERT JUMPDEST PUSH1 0x20 DUP4 ADD SWAP2 POP DUP4 PUSH1 0x20 DUP3 DUP6 ADD ADD GT ISZERO PUSH2 0xE0E JUMPI PUSH1 0x0 DUP1 REVERT JUMPDEST SWAP3 POP SWAP3 SWAP1 POP JUMP JUMPDEST PUSH1 0x0 DUP1 PUSH1 0x0 DUP1 PUSH1 0x0 PUSH2 0x160 DUP7 DUP9 SUB SLT ISZERO PUSH2 0xE2E JUMPI PUSH1 0x0 DUP1 REVERT JUMPDEST DUP6 CALLDATALOAD PUSH2 0xE39 DUP2 PUSH2 0xD50 JUMP JUMPDEST SWAP5 POP PUSH2 0xE48 DUP8 PUSH1 0x20 DUP9 ADD PUSH2 0xD15 JUMP JUMPDEST SWAP4 POP PUSH2 0xE57 DUP8 PUSH1 0xC0 DUP9 ADD PUSH2 0xDBA JUMP JUMPDEST SWAP3 POP PUSH2 0x140 DUP7 ADD CALLDATALOAD PUSH8 0xFFFFFFFFFFFFFFFF DUP2 GT ISZERO PUSH2 0xE74 JUMPI PUSH1 0x0 DUP1 REVERT JUMPDEST PUSH2 0xE80 DUP9 DUP3 DUP10 ADD PUSH2 0xDCC JUMP JUMPDEST SWAP7 SWAP10 SWAP6 SWAP9 POP SWAP4 SWAP7 POP SWAP3 SWAP5 SWAP4 SWAP3 POP POP POP JUMP JUMPDEST PUSH1 0x40 MLOAD PUSH1 0xE0 DUP2 ADD PUSH8 0xFFFFFFFFFFFFFFFF DUP2 GT DUP3 DUP3 LT OR ISZERO PUSH2 0xEC2 JUMPI PUSH4 0x4E487B71 PUSH1 0xE0 SHL PUSH1 0x0 MSTORE PUSH1 0x41 PUSH1 0x4 MSTORE PUSH1 0x24 PUSH1 0x0 REVERT JUMPDEST PUSH1 0x40 MSTORE SWAP1 JUMP JUMPDEST DUP1 CALLDATALOAD DUP1 ISZERO ISZERO DUP2 EQ PUSH2 0xED8 JUMPI PUSH1 0x0 DUP1 REVERT JUMPDEST SWAP2 SWAP1 POP JUMP JUMPDEST PUSH1 0x0 DUP1 DUP3 DUP5 SUB PUSH2 0x100 DUP2 SLT ISZERO PUSH2 0xEF2 JUMPI PUSH1 0x0 DUP1 REVERT JUMPDEST PUSH1 0xE0 DUP2 SLT ISZERO PUSH2 0xF00 JUMPI PUSH1 0x0 DUP1 REVERT JUMPDEST POP PUSH2 0xF09 PUSH2 0xE91 JUMP JUMPDEST DUP4 CALLDATALOAD PUSH2 0xF14 DUP2 PUSH2 0xD50 JUMP JUMPDEST DUP1 DUP3 MSTORE POP PUSH1 0x20 DUP5 ADD CALLDATALOAD PUSH1 0x20 DUP3 ADD MSTORE PUSH1 0x40 DUP5 ADD CALLDATALOAD PUSH1 0x40 DUP3 ADD MSTORE PUSH1 0x60 DUP5 ADD CALLDATALOAD PUSH1 0x60 DUP3 ADD MSTORE PUSH1 0x80 DUP5 ADD CALLDATALOAD PUSH1 0x80 DUP3 ADD MSTORE PUSH1 0xA0 DUP5 ADD CALLDATALOAD PUSH1 0xA0 DUP3 ADD MSTORE PUSH2 0xF56 PUSH1 0xC0 DUP6 ADD PUSH2 0xEC8 JUMP JUMPDEST PUSH1 0xC0 DUP3 ADD MSTORE SWAP5 PUSH1 0xE0 SWAP4 SWAP1 SWAP4 ADD CALLDATALOAD SWAP4 POP POP POP JUMP JUMPDEST PUSH1 0x0 PUSH1 0x60 DUP3 DUP5 SUB SLT ISZERO PUSH2 0xD27 JUMPI PUSH1 0x0 DUP1 REVERT JUMPDEST PUSH1 0x0 DUP1 PUSH1 0x0 DUP1 PUSH1 0x0 PUSH2 0x140 DUP7 DUP9 SUB SLT ISZERO PUSH2 0xF94 JUMPI PUSH1 0x0 DUP1 REVERT JUMPDEST DUP6 CALLDATALOAD PUSH2 0xF9F DUP2 PUSH2 0xD50 JUMP JUMPDEST SWAP5 POP PUSH2 0xFAE DUP8 PUSH1 0x20 DUP9 ADD PUSH2 0xD15 JUMP JUMPDEST SWAP4 POP PUSH2 0xFBD DUP8 PUSH1 0xC0 DUP9 ADD PUSH2 0xF69 JUMP JUMPDEST SWAP3 POP PUSH2 0x120 DUP7 ADD CALLDATALOAD PUSH8 0xFFFFFFFFFFFFFFFF DUP2 GT ISZERO PUSH2 0xE74 JUMPI PUSH1 0x0 DUP1 REVERT JUMPDEST PUSH1 0x0 PUSH1 0x20 DUP3 DUP5 SUB SLT ISZERO PUSH2 0xFEC JUMPI PUSH1 0x0 DUP1 REVERT JUMPDEST POP CALLDATALOAD SWAP2 SWAP1 POP JUMP JUMPDEST PUSH1 0x0 DUP1 PUSH1 0x0 DUP1 PUSH1 0x0 DUP1 PUSH1 0x0 PUSH2 0x1A0 DUP9 DUP11 SUB SLT ISZERO PUSH2 0x100F JUMPI PUSH1 0x0 DUP1 REVERT JUMPDEST DUP8 CALLDATALOAD PUSH2 0x101A DUP2 PUSH2 0xD50 JUMP JUMPDEST SWAP7 POP PUSH2 0x1029 DUP10 PUSH1 0x20 DUP11 ADD PUSH2 0xD15 JUMP JUMPDEST SWAP6 POP PUSH2 0x1038 DUP10 PUSH1 0xC0 DUP11 ADD PUSH2 0xDBA JUMP JUMPDEST SWAP5 POP PUSH2 0x140 DUP9 ADD CALLDATALOAD SWAP4 POP PUSH2 0x160 DUP9 ADD CALLDATALOAD SWAP3 POP PUSH2 0x180 DUP9 ADD CALLDATALOAD PUSH8 0xFFFFFFFFFFFFFFFF DUP2 GT ISZERO PUSH2 0x1065 JUMPI PUSH1 0x0 DUP1 REVERT JUMPDEST PUSH2 0x1071 DUP11 DUP3 DUP12 ADD PUSH2 0xDCC JUMP JUMPDEST SWAP9 SWAP12 SWAP8 SWAP11 POP SWAP6 SWAP9 POP SWAP4 SWAP7 SWAP3 SWAP6 SWAP3 SWAP4 POP POP POP JUMP JUMPDEST DUP1 CALLDATALOAD PUSH1 0x2 DUP2 SWAP1 SIGNEXTEND DUP2 EQ PUSH2 0xED8 JUMPI PUSH1 0x0 DUP1 REVERT JUMPDEST PUSH1 0x0 DUP1 PUSH1 0x0 DUP1 PUSH2 0x100 DUP6 DUP8 SUB SLT ISZERO PUSH2 0x10AD JUMPI PUSH1 0x0 DUP1 REVERT JUMPDEST DUP5 CALLDATALOAD PUSH2 0x10B8 DUP2 PUSH2 0xD50 JUMP JUMPDEST SWAP4 POP PUSH2 0x10C7 DUP7 PUSH1 0x20 DUP8 ADD PUSH2 0xD15 JUMP JUMPDEST SWAP3 POP PUSH1 0xC0 DUP6 ADD CALLDATALOAD PUSH2 0x10D7 DUP2 PUSH2 0xD50 JUMP JUMPDEST SWAP2 POP PUSH2 0x10E5 PUSH1 0xE0 DUP7 ADD PUSH2 0x1084 JUMP JUMPDEST SWAP1 POP SWAP3 SWAP6 SWAP2 SWAP5 POP SWAP3 POP JUMP JUMPDEST PUSH1 0x0 DUP1 PUSH1 0x0 DUP1 PUSH1 0x0 DUP1 PUSH2 0x160 DUP8 DUP10 SUB SLT ISZERO PUSH2 0x110A JUMPI PUSH1 0x0 DUP1 REVERT JUMPDEST DUP7 CALLDATALOAD PUSH2 0x1115 DUP2 PUSH2 0xD50 JUMP JUMPDEST SWAP6 POP PUSH2 0x1124 DUP9 PUSH1 0x20 DUP10 ADD PUSH2 0xD15 JUMP JUMPDEST SWAP5 POP PUSH2 0x1133 DUP9 PUSH1 0xC0 DUP10 ADD PUSH2 0xF69 JUMP JUMPDEST SWAP4 POP PUSH2 0x120 DUP8 ADD CALLDATALOAD SWAP3 POP PUSH2 0x140 DUP8 ADD CALLDATALOAD PUSH8 0xFFFFFFFFFFFFFFFF DUP2 GT ISZERO PUSH2 0x1158 JUMPI PUSH1 0x0 DUP1 REVERT JUMPDEST PUSH2 0x1164 DUP10 DUP3 DUP11 ADD PUSH2 0xDCC JUMP JUMPDEST SWAP8 SWAP11 SWAP7 SWAP10 POP SWAP5 SWAP8 POP SWAP3 SWAP6 SWAP4 SWAP5 SWAP3 POP POP POP JUMP JUMPDEST PUSH1 0x0 DUP1 PUSH1 0x0 DUP1 PUSH1 0x0 DUP1 PUSH2 0x120 DUP8 DUP10 SUB SLT ISZERO PUSH2 0x1190 JUMPI PUSH1 0x0 DUP1 REVERT JUMPDEST DUP7 CALLDATALOAD PUSH2 0x119B DUP2 PUSH2 0xD50 JUMP JUMPDEST SWAP6 POP PUSH2 0x11AA DUP9 PUSH1 0x20 DUP10 ADD PUSH2 0xD15 JUMP JUMPDEST SWAP5 POP PUSH1 0xC0 DUP8 ADD CALLDATALOAD SWAP4 POP PUSH1 0xE0 DUP8 ADD CALLDATALOAD SWAP3 POP PUSH2 0x100 DUP8 ADD CALLDATALOAD PUSH8 0xFFFFFFFFFFFFFFFF DUP2 GT ISZERO PUSH2 0x1158 JUMPI PUSH1 0x0 DUP1 REVERT JUMPDEST DUP2 MLOAD ISZERO ISZERO DUP2 MSTORE PUSH2 0x1C0 DUP2 ADD PUSH1 0x20 DUP4 ADD MLOAD PUSH2 0x11F3 PUSH1 0x20 DUP5 ADD DUP3 ISZERO ISZERO SWAP1 MSTORE JUMP JUMPDEST POP PUSH1 0x40 DUP4 ADD MLOAD PUSH2 0x1207 PUSH1 0x40 DUP5 ADD DUP3 ISZERO ISZERO SWAP1 MSTORE JUMP JUMPDEST POP PUSH1 0x60 DUP4 ADD MLOAD PUSH2 0x121B PUSH1 0x60 DUP5 ADD DUP3 ISZERO ISZERO SWAP1 MSTORE JUMP JUMPDEST POP PUSH1 0x80 DUP4 ADD MLOAD PUSH2 0x122F PUSH1 0x80 DUP5 ADD DUP3 ISZERO ISZERO SWAP1 MSTORE JUMP JUMPDEST POP PUSH1 0xA0 DUP4 ADD MLOAD PUSH2 0x1243 PUSH1 0xA0 DUP5 ADD DUP3 ISZERO ISZERO SWAP1 MSTORE JUMP JUMPDEST POP PUSH1 0xC0 DUP4 ADD MLOAD PUSH2 0x1257 PUSH1 0xC0 DUP5 ADD DUP3 ISZERO ISZERO SWAP1 MSTORE JUMP JUMPDEST POP PUSH1 0xE0 DUP4 ADD MLOAD PUSH2 0x126B PUSH1 0xE0 DUP5 ADD DUP3 ISZERO ISZERO SWAP1 MSTORE JUMP JUMPDEST POP PUSH2 0x100 DUP4 DUP2 ADD MLOAD ISZERO ISZERO SWAP1 DUP4 ADD MSTORE PUSH2 0x120 DUP1 DUP5 ADD MLOAD ISZERO ISZERO SWAP1 DUP4 ADD MSTORE PUSH2 0x140 DUP1 DUP5 ADD MLOAD ISZERO ISZERO SWAP1 DUP4 ADD MSTORE PUSH2 0x160 DUP1 DUP5 ADD MLOAD ISZERO ISZERO SWAP1 DUP4 ADD MSTORE PUSH2 0x180 DUP1 DUP5 ADD MLOAD ISZERO ISZERO SWAP1 DUP4 ADD MSTORE PUSH2 0x1A0 SWAP3 DUP4 ADD MLOAD ISZERO ISZERO SWAP3 SWAP1 SWAP2 ADD SWAP2 SWAP1 SWAP2 MSTORE SWAP1 JUMP JUMPDEST PUSH1 0x0 DUP1 PUSH1 0x0 PUSH1 0xE0 DUP5 DUP7 SUB SLT ISZERO PUSH2 0x12D6 JUMPI PUSH1 0x0 DUP1 REVERT JUMPDEST DUP4 CALLDATALOAD PUSH2 0x12E1 DUP2 PUSH2 0xD50 JUMP JUMPDEST SWAP3 POP PUSH2 0x12F0 DUP6 PUSH1 0x20 DUP7 ADD PUSH2 0xD15 JUMP JUMPDEST SWAP2 POP PUSH1 0xC0 DUP5 ADD CALLDATALOAD PUSH2 0x1300 DUP2 PUSH2 0xD50 JUMP JUMPDEST DUP1 SWAP2 POP POP SWAP3 POP SWAP3 POP SWAP3 JUMP JUMPDEST PUSH1 0x0 PUSH1 0xA0 DUP3 DUP5 SUB SLT ISZERO PUSH2 0x131D JUMPI PUSH1 0x0 DUP1 REVERT JUMPDEST PUSH1 0x40 MLOAD PUSH1 0xA0 DUP2 ADD DUP2 DUP2 LT PUSH8 0xFFFFFFFFFFFFFFFF DUP3 GT OR ISZERO PUSH2 0x134E JUMPI PUSH4 0x4E487B71 PUSH1 0xE0 SHL PUSH1 0x0 MSTORE PUSH1 0x41 PUSH1 0x4 MSTORE PUSH1 0x24 PUSH1 0x0 REVERT JUMPDEST PUSH1 0x40 MSTORE DUP3 CALLDATALOAD PUSH2 0x135C DUP2 PUSH2 0xD50 JUMP JUMPDEST DUP2 MSTORE PUSH1 0x20 DUP4 ADD CALLDATALOAD PUSH2 0x136C DUP2 PUSH2 0xD50 JUMP JUMPDEST PUSH1 0x20 DUP3 ADD MSTORE PUSH1 0x40 DUP4 ADD CALLDATALOAD PUSH3 0xFFFFFF DUP2 AND DUP2 EQ PUSH2 0x1387 JUMPI PUSH1 0x0 DUP1 REVERT JUMPDEST PUSH1 0x40 DUP3 ADD MSTORE PUSH2 0x1398 PUSH1 0x60 DUP5 ADD PUSH2 0x1084 JUMP JUMPDEST PUSH1 0x60 DUP3 ADD MSTORE PUSH1 0x80 DUP4 ADD CALLDATALOAD PUSH2 0x13AB DUP2 PUSH2 0xD50 JUMP JUMPDEST PUSH1 0x80 DUP3 ADD MSTORE SWAP4 SWAP3 POP POP POP JUMP JUMPDEST PUSH4 0x4E487B71 PUSH1 0xE0 SHL PUSH1 0x0 MSTORE PUSH1 0x11 PUSH1 0x4 MSTORE PUSH1 0x24 PUSH1 0x0 REVERT JUMPDEST DUP2 DUP2 SUB DUP2 DUP2 GT ISZERO PUSH2 0x7F5 JUMPI PUSH2 0x7F5 PUSH2 0x13B7 JUMP JUMPDEST DUP1 DUP3 MUL DUP2 ISZERO DUP3 DUP3 DIV DUP5 EQ OR PUSH2 0x7F5 JUMPI PUSH2 0x7F5 PUSH2 0x13B7 JUMP JUMPDEST PUSH1 0x0 DUP3 PUSH2 0x1414 JUMPI PUSH4 0x4E487B71 PUSH1 0xE0 SHL PUSH1 0x0 MSTORE PUSH1 0x12 PUSH1 0x4 MSTORE PUSH1 0x24 PUSH1 0x0 REVERT JUMPDEST POP DIV SWAP1 JUMP JUMPDEST PUSH1 0x0 PUSH1 0x20 DUP3 DUP5 SUB SLT ISZERO PUSH2 0x142B JUMPI PUSH1 0x0 DUP1 REVERT JUMPDEST PUSH2 0xD49 DUP3 PUSH2 0xEC8 JUMP JUMPDEST PUSH1 0x0 PUSH1 0x1 PUSH1 0xFF SHL DUP3 ADD PUSH2 0x1449 JUMPI PUSH2 0x1449 PUSH2 0x13B7 JUMP JUMPDEST POP PUSH1 0x0 SUB SWAP1 JUMP JUMPDEST DUP1 DUP3 ADD DUP1 DUP3 GT ISZERO PUSH2 0x7F5 JUMPI PUSH2 0x7F5 PUSH2 0x13B7 JUMP INVALID LOG2 PUSH5 0x6970667358 0x22 SLT KECCAK256 0xAD 0xD5 INVALID DUP2 DUP7 PUSH6 0x82D45338F221 MSTORE8 ISZERO 0xF 0xF6 PUSH3 0xF36C7F 0xEF 0x25 JUMP 0xB7 0xBE 0xDA PUSH27 0xA422F0C37D64736F6C634300081800330000000000000000000000 "},"methodIdentifiers":{"afterAddLiquidity(address,(address,address,uint24,int24,address),(int24,int24,int256,bytes32),int256,int256,bytes)":"9f063efc","afterDonate(address,(address,address,uint24,int24,address),uint256,uint256,bytes)":"e1b4af69","afterInitialize(address,(address,address,uint24,int24,address),uint160,int24)":"6fe7e6eb","afterRemoveLiquidity(address,(address,address,uint24,int24,address),(int24,int24,int256,bytes32),int256,int256,bytes)":"6c2bbe7e","afterSwap(address,(address,address,uint24,int24,address),(bool,int256,uint160),int256,bytes)":"b47b2fb1","beforeAddLiquidity(address,(address,address,uint24,int24,address),(int24,int24,int256,bytes32),bytes)":"259982e5","beforeDonate(address,(address,address,uint24,int24,address),uint256,uint256,bytes)":"b6a8b0fa","beforeInitialize(address,(address,address,uint24,int24,address),uint160)":"dc98354e","beforeRemoveLiquidity(address,(address,address,uint24,int24,address),(int24,int24,int256,bytes32),bytes)":"21d0ee70","beforeSwap(address,(address,address,uint24,int24,address),(bool,int256,uint160),bytes)":"575e24b4","calculateVestedAmount((address,uint256,uint256,uint256,uint256,uint256,bool),uint256)":"3f11b4b5","getHookPermissions()":"c4e833ce","getVestingStatus((address,address,uint24,int24,address))":"08e06d18","initializeVesting((address,address,uint24,int24,address),address,uint256,uint256,uint256)":"147c713e","poolManager()":"dc4c90d3","vestingConfigs(bytes32)":"6057292b"}}}}}