{"@uniswap/v4-core/src/types/Currency.sol":{"CurrencyLibrary":{"abi":[{"inputs":[],"name":"ERC20TransferFailed","type":"error"},{"inputs":[],"name":"NativeTransferFailed","type":"error"},{"inputs":[],"name":"ADDRESS_ZERO","outputs":[{"internalType":"Currency","name":"","type":"address"}],"stateMutability":"view","type":"function"}],"evm":{"bytecode":{"linkReferences":{},"object":"6091610038600b82828239805160001a607314602b57634e487b7160e01b600052600060045260246000fd5b30600052607381538281f3fe730000000000000000000000000000000000000000301460806040526004361060335760003560e01c806366e79509146038575b600080fd5b603f600081565b6040516001600160a01b03909116815260200160405180910390f3fea2646970667358221220260be0b560f2354629178fa80c6faa0822bc1651b2f53f0049ef64a0eb757fe164736f6c63430008180033","opcodes":"PUSH1 0x91 PUSH2 0x38 PUSH1 0xB DUP3 DUP3 DUP3 CODECOPY DUP1 MLOAD PUSH1 0x0 BYTE PUSH1 0x73 EQ PUSH1 0x2B JUMPI PUSH4 0x4E487B71 PUSH1 0xE0 SHL PUSH1 0x0 MSTORE PUSH1 0x0 PUSH1 0x4 MSTORE PUSH1 0x24 PUSH1 0x0 REVERT JUMPDEST ADDRESS PUSH1 0x0 MSTORE PUSH1 0x73 DUP2 MSTORE8 DUP3 DUP2 RETURN INVALID PUSH20 0x0 ADDRESS EQ PUSH1 0x80 PUSH1 0x40 MSTORE PUSH1 0x4 CALLDATASIZE LT PUSH1 0x33 JUMPI PUSH1 0x0 CALLDATALOAD PUSH1 0xE0 SHR DUP1 PUSH4 0x66E79509 EQ PUSH1 0x38 JUMPI JUMPDEST PUSH1 0x0 DUP1 REVERT JUMPDEST PUSH1 0x3F PUSH1 0x0 DUP2 JUMP JUMPDEST PUSH1 0x40 MLOAD PUSH1 0x1 PUSH1 0x1 PUSH1 0xA0 SHL SUB SWAP1 SWAP2 AND DUP2 MSTORE PUSH1 0x20 ADD PUSH1 0x40 MLOAD DUP1 SWAP2 SUB SWAP1 RETURN INVALID LOG2 PUSH5 0x6970667358 0x22 SLT KECCAK256 0x26 SIGNEXTEND 0xE0 0xB5 PUSH1 0xF2 CALLDATALOAD CHAINID 0x29 OR DUP16 0xA8 0xC PUSH16 0xAA0822BC1651B2F53F0049EF64A0EB75 PUSH32 0xE164736F6C634300081800330000000000000000000000000000000000000000 "},"methodIdentifiers":{"ADDRESS_ZERO()":"66e79509"}}}}}