{"@uniswap/v4-core/src/types/BalanceDelta.sol":{"BalanceDeltaLibrary":{"abi":[{"inputs":[],"name":"ZERO_DELTA","outputs":[{"internalType":"BalanceDelta","name":"","type":"int256"}],"stateMutability":"view","type":"function"}],"evm":{"bytecode":{"linkReferences":{},"object":"6087610038600b82828239805160001a607314602b57634e487b7160e01b600052600060045260246000fd5b30600052607381538281f3fe730000000000000000000000000000000000000000301460806040526004361060335760003560e01c806391cb4669146038575b600080fd5b603f600081565b60405190815260200160405180910390f3fea2646970667358221220fb34def1ae54f08b8dc6de1fcd518229328a3cbd34eee9ab335c5ea76098701564736f6c63430008180033","opcodes":"PUSH1 0x87 PUSH2 0x38 PUSH1 0xB DUP3 DUP3 DUP3 CODECOPY DUP1 MLOAD PUSH1 0x0 BYTE PUSH1 0x73 EQ PUSH1 0x2B JUMPI PUSH4 0x4E487B71 PUSH1 0xE0 SHL PUSH1 0x0 MSTORE PUSH1 0x0 PUSH1 0x4 MSTORE PUSH1 0x24 PUSH1 0x0 REVERT JUMPDEST ADDRESS PUSH1 0x0 MSTORE PUSH1 0x73 DUP2 MSTORE8 DUP3 DUP2 RETURN INVALID PUSH20 0x0 ADDRESS EQ PUSH1 0x80 PUSH1 0x40 MSTORE PUSH1 0x4 CALLDATASIZE LT PUSH1 0x33 JUMPI PUSH1 0x0 CALLDATALOAD PUSH1 0xE0 SHR DUP1 PUSH4 0x91CB4669 EQ PUSH1 0x38 JUMPI JUMPDEST PUSH1 0x0 DUP1 REVERT JUMPDEST PUSH1 0x3F PUSH1 0x0 DUP2 JUMP JUMPDEST PUSH1 0x40 MLOAD SWAP1 DUP2 MSTORE PUSH1 0x20 ADD PUSH1 0x40 MLOAD DUP1 SWAP2 SUB SWAP1 RETURN INVALID LOG2 PUSH5 0x6970667358 0x22 SLT KECCAK256 0xFB CALLVALUE 0xDE CALL 0xAE SLOAD CREATE DUP12 DUP14 0xC6 0xDE 0x1F 0xCD MLOAD DUP3 0x29 ORIGIN DUP11 EXTCODECOPY 0xBD CALLVALUE 0xEE 0xE9 0xAB CALLER TLOAD MCOPY 0xA7 PUSH1 0x98 PUSH17 0x1564736F6C634300081800330000000000 "},"methodIdentifiers":{"ZERO_DELTA()":"91cb4669"}}}}}