{
  "_format": "hh-sol-artifact-1",
  "contractName": "Buyback",
  "sourceName": "contracts/Buyback.sol",
  "abi": [
    {
      "inputs": [
        {
          "internalType": "address",
          "name": "_usdc",
          "type": "address"
        },
        {
          "internalType": "address",
          "name": "_consulToken",
          "type": "address"
        },
        {
          "internalType": "address",
          "name": "_hubDao",
          "type": "address"
        },
        {
          "internalType": "address",
          "name": "_initialOwner",
          "type": "address"
        }
      ],
      "stateMutability": "nonpayable",
      "type": "constructor"
    },
    {
      "inputs": [],
      "name": "DexRouterNotSet",
      "type": "error"
    },
    {
      "inputs": [
        {
          "internalType": "uint256",
          "name": "requested",
          "type": "uint256"
        },
        {
          "internalType": "uint256",
          "name": "available",
          "type": "uint256"
        }
      ],
      "name": "InsufficientBalance",
      "type": "error"
    },
    {
      "inputs": [],
      "name": "OnlyHubDao",
      "type": "error"
    },
    {
      "inputs": [
        {
          "internalType": "address",
          "name": "owner",
          "type": "address"
        }
      ],
      "name": "OwnableInvalidOwner",
      "type": "error"
    },
    {
      "inputs": [
        {
          "internalType": "address",
          "name": "account",
          "type": "address"
        }
      ],
      "name": "OwnableUnauthorizedAccount",
      "type": "error"
    },
    {
      "inputs": [],
      "name": "ReentrancyGuardReentrantCall",
      "type": "error"
    },
    {
      "inputs": [
        {
          "internalType": "address",
          "name": "token",
          "type": "address"
        }
      ],
      "name": "SafeERC20FailedOperation",
      "type": "error"
    },
    {
      "inputs": [],
      "name": "SwapFailed",
      "type": "error"
    },
    {
      "inputs": [],
      "name": "ZeroAmount",
      "type": "error"
    },
    {
      "anonymous": false,
      "inputs": [
        {
          "indexed": false,
          "internalType": "uint256",
          "name": "usdcSpent",
          "type": "uint256"
        },
        {
          "indexed": false,
          "internalType": "uint256",
          "name": "consulBought",
          "type": "uint256"
        },
        {
          "indexed": false,
          "internalType": "uint256",
          "name": "consulBurned",
          "type": "uint256"
        },
        {
          "indexed": false,
          "internalType": "uint256",
          "name": "timestamp",
          "type": "uint256"
        }
      ],
      "name": "BuybackExecuted",
      "type": "event"
    },
    {
      "anonymous": false,
      "inputs": [
        {
          "indexed": true,
          "internalType": "address",
          "name": "oldRouter",
          "type": "address"
        },
        {
          "indexed": true,
          "internalType": "address",
          "name": "newRouter",
          "type": "address"
        }
      ],
      "name": "DexRouterUpdated",
      "type": "event"
    },
    {
      "anonymous": false,
      "inputs": [
        {
          "indexed": true,
          "internalType": "address",
          "name": "oldHubDao",
          "type": "address"
        },
        {
          "indexed": true,
          "internalType": "address",
          "name": "newHubDao",
          "type": "address"
        }
      ],
      "name": "HubDaoUpdated",
      "type": "event"
    },
    {
      "anonymous": false,
      "inputs": [
        {
          "indexed": true,
          "internalType": "address",
          "name": "previousOwner",
          "type": "address"
        },
        {
          "indexed": true,
          "internalType": "address",
          "name": "newOwner",
          "type": "address"
        }
      ],
      "name": "OwnershipTransferred",
      "type": "event"
    },
    {
      "inputs": [],
      "name": "consulToken",
      "outputs": [
        {
          "internalType": "contract IERC20",
          "name": "",
          "type": "address"
        }
      ],
      "stateMutability": "view",
      "type": "function"
    },
    {
      "inputs": [
        {
          "internalType": "uint256",
          "name": "amount",
          "type": "uint256"
        }
      ],
      "name": "depositUsdc",
      "outputs": [],
      "stateMutability": "nonpayable",
      "type": "function"
    },
    {
      "inputs": [],
      "name": "dexRouter",
      "outputs": [
        {
          "internalType": "address",
          "name": "",
          "type": "address"
        }
      ],
      "stateMutability": "view",
      "type": "function"
    },
    {
      "inputs": [
        {
          "internalType": "address",
          "name": "token",
          "type": "address"
        },
        {
          "internalType": "uint256",
          "name": "amount",
          "type": "uint256"
        }
      ],
      "name": "emergencyWithdraw",
      "outputs": [],
      "stateMutability": "nonpayable",
      "type": "function"
    },
    {
      "inputs": [
        {
          "internalType": "uint256",
          "name": "usdcAmount",
          "type": "uint256"
        },
        {
          "internalType": "uint256",
          "name": "minConsulOut",
          "type": "uint256"
        }
      ],
      "name": "executeBuyback",
      "outputs": [],
      "stateMutability": "nonpayable",
      "type": "function"
    },
    {
      "inputs": [],
      "name": "getBuybackStats",
      "outputs": [
        {
          "internalType": "uint256",
          "name": "usdcSpent",
          "type": "uint256"
        },
        {
          "internalType": "uint256",
          "name": "consulBurned",
          "type": "uint256"
        },
        {
          "internalType": "uint256",
          "name": "usdcBalance",
          "type": "uint256"
        }
      ],
      "stateMutability": "view",
      "type": "function"
    },
    {
      "inputs": [],
      "name": "hubDao",
      "outputs": [
        {
          "internalType": "address",
          "name": "",
          "type": "address"
        }
      ],
      "stateMutability": "view",
      "type": "function"
    },
    {
      "inputs": [],
      "name": "owner",
      "outputs": [
        {
          "internalType": "address",
          "name": "",
          "type": "address"
        }
      ],
      "stateMutability": "view",
      "type": "function"
    },
    {
      "inputs": [],
      "name": "renounceOwnership",
      "outputs": [],
      "stateMutability": "nonpayable",
      "type": "function"
    },
    {
      "inputs": [
        {
          "internalType": "address",
          "name": "_dexRouter",
          "type": "address"
        }
      ],
      "name": "setDexRouter",
      "outputs": [],
      "stateMutability": "nonpayable",
      "type": "function"
    },
    {
      "inputs": [
        {
          "internalType": "address",
          "name": "_hubDao",
          "type": "address"
        }
      ],
      "name": "setHubDao",
      "outputs": [],
      "stateMutability": "nonpayable",
      "type": "function"
    },
    {
      "inputs": [],
      "name": "totalBurned",
      "outputs": [
        {
          "internalType": "uint256",
          "name": "",
          "type": "uint256"
        }
      ],
      "stateMutability": "view",
      "type": "function"
    },
    {
      "inputs": [],
      "name": "totalBuybackSpent",
      "outputs": [
        {
          "internalType": "uint256",
          "name": "",
          "type": "uint256"
        }
      ],
      "stateMutability": "view",
      "type": "function"
    },
    {
      "inputs": [
        {
          "internalType": "address",
          "name": "newOwner",
          "type": "address"
        }
      ],
      "name": "transferOwnership",
      "outputs": [],
      "stateMutability": "nonpayable",
      "type": "function"
    },
    {
      "inputs": [],
      "name": "usdc",
      "outputs": [
        {
          "internalType": "contract IERC20",
          "name": "",
          "type": "address"
        }
      ],
      "stateMutability": "view",
      "type": "function"
    }
  ],
  "bytecode": "0x60c060405234801561001057600080fd5b50604051610c0b380380610c0b83398101604081905261002f91610107565b806001600160a01b03811661005e57604051631e4fbdf760e01b81526000600482015260240160405180910390fd5b6100678161009b565b5050600180556001600160a01b0392831660805290821660a052600280546001600160a01b0319169190921617905561015b565b600080546001600160a01b038381166001600160a01b0319831681178455604051919092169283917f8be0079c531659141344cd1fd0a4f28419497f9722a3daafe3b4186f6b6457e09190a35050565b80516001600160a01b038116811461010257600080fd5b919050565b6000806000806080858703121561011d57600080fd5b610126856100eb565b9350610134602086016100eb565b9250610142604086016100eb565b9150610150606086016100eb565b905092959194509250565b60805160a051610a686101a3600039600081816102390152610874015260008181610157015281816102680152818161032f0152818161044301526107de0152610a686000f3fe608060405234801561001057600080fd5b50600436106100f55760003560e01c80639082163d11610097578063d89135cd11610066578063d89135cd14610205578063f2fde38b1461020e578063f72f863b14610221578063fbe6b8461461023457600080fd5b80639082163d146101a557806395ccea67146101c857806397975c75146101db578063d711547f146101ee57600080fd5b80633e413bee116100d35780633e413bee14610152578063538e28d214610179578063715018a61461018c5780638da5cb5b1461019457600080fd5b80630527497b146100fa5780630758d9241461012a5780632357928e1461013d575b600080fd5b60025461010d906001600160a01b031681565b6040516001600160a01b0390911681526020015b60405180910390f35b60055461010d906001600160a01b031681565b61015061014b36600461090e565b61025b565b005b61010d7f000000000000000000000000000000000000000000000000000000000000000081565b610150610187366004610943565b610293565b6101506102ed565b6000546001600160a01b031661010d565b6101ad610301565b60408051938452602084019290925290820152606001610121565b6101506101d6366004610965565b6103a5565b6101506101e936600461098f565b6103d7565b6101f760035481565b604051908152602001610121565b6101f760045481565b61015061021c366004610943565b6105aa565b61015061022f366004610943565b6105e5565b61010d7f000000000000000000000000000000000000000000000000000000000000000081565b6102906001600160a01b037f00000000000000000000000000000000000000000000000000000000000000001633308461063f565b50565b61029b6106ac565b600280546001600160a01b038381166001600160a01b0319831681179093556040519116919082907fbe6a39e8964855d2850beb0619ee24b3a7d8b580b4018600d649d758a860f90b90600090a35050565b6102f56106ac565b6102ff60006106d9565b565b600354600480546040516370a0823160e01b8152309281019290925260009283928392906001600160a01b037f000000000000000000000000000000000000000000000000000000000000000016906370a0823190602401602060405180830381865afa158015610376573d6000803e3d6000fd5b505050506040513d601f19601f8201168201806040525081019061039a91906109b1565b925092509250909192565b6103ad6106ac565b6103d36103c26000546001600160a01b031690565b6001600160a01b0384169083610729565b5050565b6002546001600160a01b031633146104025760405163592c904360e11b815260040160405180910390fd5b61040a61075f565b8160000361042b57604051631f2a200560e01b815260040160405180910390fd5b6040516370a0823160e01b81523060048201526000907f00000000000000000000000000000000000000000000000000000000000000006001600160a01b0316906370a0823190602401602060405180830381865afa158015610492573d6000803e3d6000fd5b505050506040513d601f19601f820116820180604052508101906104b691906109b1565b9050828110156104e85760405163cf47918160e01b815260048101849052602481018290526044015b60405180910390fd5b6005546000906001600160a01b03161561050d576105068484610789565b905061051f565b61051c8464e8d4a510006109e0565b90505b61052881610867565b836003600082825461053a91906109fd565b92505081905550806004600082825461055391906109fd565b909155505060408051858152602081018390529081018290524260608201527f42659a4aa613c1e350c764f0ff2be36a175ac2a1e4b77b8e1467d1fed32becc89060800160405180910390a150506103d360018055565b6105b26106ac565b6001600160a01b0381166105dc57604051631e4fbdf760e01b8152600060048201526024016104df565b610290816106d9565b6105ed6106ac565b600580546001600160a01b038381166001600160a01b0319831681179093556040519116919082907ff296fa3e8eb1c1d46e2d1eafbd38e92f916e42b9ce1573a1cc98b2d0e4e5e86290600090a35050565b6040516001600160a01b0384811660248301528381166044830152606482018390526106a69186918216906323b872dd906084015b604051602081830303815290604052915060e01b6020820180516001600160e01b03838183161783525050505061089d565b50505050565b6000546001600160a01b031633146102ff5760405163118cdaa760e01b81523360048201526024016104df565b600080546001600160a01b038381166001600160a01b0319831681178455604051919092169283917f8be0079c531659141344cd1fd0a4f28419497f9722a3daafe3b4186f6b6457e09190a35050565b6040516001600160a01b0383811660248301526044820183905261075a91859182169063a9059cbb90606401610674565b505050565b60026001540361078257604051633ee5aeb560e01b815260040160405180910390fd5b6002600155565b6005546000906001600160a01b03166107b557604051637e0de1ef60e01b815260040160405180910390fd5b60055460405163095ea7b360e01b81526001600160a01b039182166004820152602481018590527f00000000000000000000000000000000000000000000000000000000000000009091169063095ea7b3906044016020604051808303816000875af1158015610829573d6000803e3d6000fd5b505050506040513d601f19601f8201168201806040525081019061084d9190610a10565b5060405163081ceff360e41b815260040160405180910390fd5b6102906001600160a01b037f00000000000000000000000000000000000000000000000000000000000000001661dead83610729565b600080602060008451602086016000885af1806108c0576040513d6000823e3d81fd5b50506000513d915081156108d85780600114156108e5565b6001600160a01b0384163b155b156106a657604051635274afe760e01b81526001600160a01b03851660048201526024016104df565b60006020828403121561092057600080fd5b5035919050565b80356001600160a01b038116811461093e57600080fd5b919050565b60006020828403121561095557600080fd5b61095e82610927565b9392505050565b6000806040838503121561097857600080fd5b61098183610927565b946020939093013593505050565b600080604083850312156109a257600080fd5b50508035926020909101359150565b6000602082840312156109c357600080fd5b5051919050565b634e487b7160e01b600052601160045260246000fd5b80820281158282048414176109f7576109f76109ca565b92915050565b808201808211156109f7576109f76109ca565b600060208284031215610a2257600080fd5b8151801515811461095e57600080fdfea26469706673582212209f59e9e174184dc2db8a4ecb7dba654a890f012ed89ea5d2f0c5b24fd35c705164736f6c63430008180033",
  "linkReferences": {},
  "deployedLinkReferences": {}
}