{
  "_format": "hh-sol-artifact-1",
  "contractName": "Buyback",
  "sourceName": "contracts/Buyback.sol",
  "abi": [
    {
      "inputs": [
        {
          "internalType": "address",
          "name": "_usdc",
          "type": "address"
        },
        {
          "internalType": "address",
          "name": "_consulToken",
          "type": "address"
        },
        {
          "internalType": "address",
          "name": "_hubDao",
          "type": "address"
        },
        {
          "internalType": "address",
          "name": "_initialOwner",
          "type": "address"
        }
      ],
      "stateMutability": "nonpayable",
      "type": "constructor"
    },
    {
      "inputs": [],
      "name": "DexRouterNotSet",
      "type": "error"
    },
    {
      "inputs": [
        {
          "internalType": "uint256",
          "name": "requested",
          "type": "uint256"
        },
        {
          "internalType": "uint256",
          "name": "available",
          "type": "uint256"
        }
      ],
      "name": "InsufficientBalance",
      "type": "error"
    },
    {
      "inputs": [],
      "name": "OnlyHubDao",
      "type": "error"
    },
    {
      "inputs": [
        {
          "internalType": "address",
          "name": "owner",
          "type": "address"
        }
      ],
      "name": "OwnableInvalidOwner",
      "type": "error"
    },
    {
      "inputs": [
        {
          "internalType": "address",
          "name": "account",
          "type": "address"
        }
      ],
      "name": "OwnableUnauthorizedAccount",
      "type": "error"
    },
    {
      "inputs": [],
      "name": "ReentrancyGuardReentrantCall",
      "type": "error"
    },
    {
      "inputs": [
        {
          "internalType": "address",
          "name": "token",
          "type": "address"
        }
      ],
      "name": "SafeERC20FailedOperation",
      "type": "error"
    },
    {
      "inputs": [],
      "name": "SwapFailed",
      "type": "error"
    },
    {
      "inputs": [],
      "name": "ZeroAmount",
      "type": "error"
    },
    {
      "anonymous": false,
      "inputs": [
        {
          "indexed": false,
          "internalType": "uint256",
          "name": "usdcSpent",
          "type": "uint256"
        },
        {
          "indexed": false,
          "internalType": "uint256",
          "name": "consulBought",
          "type": "uint256"
        },
        {
          "indexed": false,
          "internalType": "uint256",
          "name": "consulBurned",
          "type": "uint256"
        },
        {
          "indexed": false,
          "internalType": "uint256",
          "name": "timestamp",
          "type": "uint256"
        }
      ],
      "name": "BuybackExecuted",
      "type": "event"
    },
    {
      "anonymous": false,
      "inputs": [
        {
          "indexed": true,
          "internalType": "address",
          "name": "oldRouter",
          "type": "address"
        },
        {
          "indexed": true,
          "internalType": "address",
          "name": "newRouter",
          "type": "address"
        }
      ],
      "name": "DexRouterUpdated",
      "type": "event"
    },
    {
      "anonymous": false,
      "inputs": [
        {
          "indexed": true,
          "internalType": "address",
          "name": "oldHubDao",
          "type": "address"
        },
        {
          "indexed": true,
          "internalType": "address",
          "name": "newHubDao",
          "type": "address"
        }
      ],
      "name": "HubDaoUpdated",
      "type": "event"
    },
    {
      "anonymous": false,
      "inputs": [
        {
          "indexed": true,
          "internalType": "address",
          "name": "previousOwner",
          "type": "address"
        },
        {
          "indexed": true,
          "internalType": "address",
          "name": "newOwner",
          "type": "address"
        }
      ],
      "name": "OwnershipTransferred",
      "type": "event"
    },
    {
      "inputs": [],
      "name": "consulToken",
      "outputs": [
        {
          "internalType": "contract IERC20",
          "name": "",
          "type": "address"
        }
      ],
      "stateMutability": "view",
      "type": "function"
    },
    {
      "inputs": [
        {
          "internalType": "uint256",
          "name": "amount",
          "type": "uint256"
        }
      ],
      "name": "depositUsdc",
      "outputs": [],
      "stateMutability": "nonpayable",
      "type": "function"
    },
    {
      "inputs": [],
      "name": "dexRouter",
      "outputs": [
        {
          "internalType": "address",
          "name": "",
          "type": "address"
        }
      ],
      "stateMutability": "view",
      "type": "function"
    },
    {
      "inputs": [
        {
          "internalType": "address",
          "name": "token",
          "type": "address"
        },
        {
          "internalType": "uint256",
          "name": "amount",
          "type": "uint256"
        }
      ],
      "name": "emergencyWithdraw",
      "outputs": [],
      "stateMutability": "nonpayable",
      "type": "function"
    },
    {
      "inputs": [
        {
          "internalType": "uint256",
          "name": "usdcAmount",
          "type": "uint256"
        },
        {
          "internalType": "uint256",
          "name": "minConsulOut",
          "type": "uint256"
        }
      ],
      "name": "executeBuyback",
      "outputs": [],
      "stateMutability": "nonpayable",
      "type": "function"
    },
    {
      "inputs": [],
      "name": "getBuybackStats",
      "outputs": [
        {
          "internalType": "uint256",
          "name": "usdcSpent",
          "type": "uint256"
        },
        {
          "internalType": "uint256",
          "name": "consulBurned",
          "type": "uint256"
        },
        {
          "internalType": "uint256",
          "name": "usdcBalance",
          "type": "uint256"
        }
      ],
      "stateMutability": "view",
      "type": "function"
    },
    {
      "inputs": [],
      "name": "hubDao",
      "outputs": [
        {
          "internalType": "address",
          "name": "",
          "type": "address"
        }
      ],
      "stateMutability": "view",
      "type": "function"
    },
    {
      "inputs": [],
      "name": "owner",
      "outputs": [
        {
          "internalType": "address",
          "name": "",
          "type": "address"
        }
      ],
      "stateMutability": "view",
      "type": "function"
    },
    {
      "inputs": [],
      "name": "poolFee",
      "outputs": [
        {
          "internalType": "uint24",
          "name": "",
          "type": "uint24"
        }
      ],
      "stateMutability": "view",
      "type": "function"
    },
    {
      "inputs": [],
      "name": "renounceOwnership",
      "outputs": [],
      "stateMutability": "nonpayable",
      "type": "function"
    },
    {
      "inputs": [
        {
          "internalType": "address",
          "name": "_dexRouter",
          "type": "address"
        }
      ],
      "name": "setDexRouter",
      "outputs": [],
      "stateMutability": "nonpayable",
      "type": "function"
    },
    {
      "inputs": [
        {
          "internalType": "address",
          "name": "_hubDao",
          "type": "address"
        }
      ],
      "name": "setHubDao",
      "outputs": [],
      "stateMutability": "nonpayable",
      "type": "function"
    },
    {
      "inputs": [
        {
          "internalType": "uint24",
          "name": "_poolFee",
          "type": "uint24"
        }
      ],
      "name": "setPoolFee",
      "outputs": [],
      "stateMutability": "nonpayable",
      "type": "function"
    },
    {
      "inputs": [],
      "name": "totalBurned",
      "outputs": [
        {
          "internalType": "uint256",
          "name": "",
          "type": "uint256"
        }
      ],
      "stateMutability": "view",
      "type": "function"
    },
    {
      "inputs": [],
      "name": "totalBuybackSpent",
      "outputs": [
        {
          "internalType": "uint256",
          "name": "",
          "type": "uint256"
        }
      ],
      "stateMutability": "view",
      "type": "function"
    },
    {
      "inputs": [
        {
          "internalType": "address",
          "name": "newOwner",
          "type": "address"
        }
      ],
      "name": "transferOwnership",
      "outputs": [],
      "stateMutability": "nonpayable",
      "type": "function"
    },
    {
      "inputs": [],
      "name": "usdc",
      "outputs": [
        {
          "internalType": "contract IERC20",
          "name": "",
          "type": "address"
        }
      ],
      "stateMutability": "view",
      "type": "function"
    }
  ],
  "bytecode": "0x60c06040526005805462ffffff60a01b191661017760a31b1790553480156200002757600080fd5b5060405162001072380380620010728339810160408190526200004a9162000230565b806001600160a01b0381166200007b57604051631e4fbdf760e01b8152600060048201526024015b60405180910390fd5b6200008681620001c3565b50600180556001600160a01b038416620000e35760405162461bcd60e51b815260206004820152601460248201527f496e76616c696420555344432061646472657373000000000000000000000000604482015260640162000072565b6001600160a01b0383166200013b5760405162461bcd60e51b815260206004820152601660248201527f496e76616c696420434f4e53554c206164647265737300000000000000000000604482015260640162000072565b6001600160a01b038216620001935760405162461bcd60e51b815260206004820152601660248201527f496e76616c69642048756244414f206164647265737300000000000000000000604482015260640162000072565b506001600160a01b0392831660805290821660a052600280546001600160a01b031916919092161790556200028d565b600080546001600160a01b038381166001600160a01b0319831681178455604051919092169283917f8be0079c531659141344cd1fd0a4f28419497f9722a3daafe3b4186f6b6457e09190a35050565b80516001600160a01b03811681146200022b57600080fd5b919050565b600080600080608085870312156200024757600080fd5b620002528562000213565b9350620002626020860162000213565b9250620002726040860162000213565b9150620002826060860162000213565b905092959194509250565b60805160a051610d8e620002e46000396000818161028c0152818161096a0152610a9d015260008181610197015281816102bb015281816104760152818161058a0152818161090801526109450152610d8e6000f3fe608060405234801561001057600080fd5b506004361061010b5760003560e01c80638da5cb5b116100a2578063d711547f11610071578063d711547f14610241578063d89135cd14610258578063f2fde38b14610261578063f72f863b14610274578063fbe6b8461461028757600080fd5b80638da5cb5b146101e75780639082163d146101f857806395ccea671461021b57806397975c751461022e57600080fd5b80633e413bee116100de5780633e413bee14610192578063538e28d2146101b9578063715018a6146101cc57806373dd250c146101d457600080fd5b80630527497b146101105780630758d92414610140578063089fe6aa146101535780632357928e1461017d575b600080fd5b600254610123906001600160a01b031681565b6040516001600160a01b0390911681526020015b60405180910390f35b600554610123906001600160a01b031681565b60055461016990600160a01b900462ffffff1681565b60405162ffffff9091168152602001610137565b61019061018b366004610c56565b6102ae565b005b6101237f000000000000000000000000000000000000000000000000000000000000000081565b6101906101c7366004610c8b565b6102e6565b61019061038d565b6101906101e2366004610cad565b6103a1565b6000546001600160a01b0316610123565b610200610448565b60408051938452602084019290925290820152606001610137565b610190610229366004610cd2565b6104ec565b61019061023c366004610cfc565b61051e565b61024a60035481565b604051908152602001610137565b61024a60045481565b61019061026f366004610c8b565b6106ec565b610190610282366004610c8b565b610727565b6101237f000000000000000000000000000000000000000000000000000000000000000081565b6102e36001600160a01b037f000000000000000000000000000000000000000000000000000000000000000016333084610781565b50565b6102ee6107ee565b6001600160a01b03811661033b5760405162461bcd60e51b815260206004820152600f60248201526e496e76616c6964206164647265737360881b60448201526064015b60405180910390fd5b600280546001600160a01b038381166001600160a01b0319831681179093556040519116919082907fbe6a39e8964855d2850beb0619ee24b3a7d8b580b4018600d649d758a860f90b90600090a35050565b6103956107ee565b61039f600061081b565b565b6103a96107ee565b8062ffffff16606414806103c357508062ffffff166101f4145b806103d457508062ffffff16610bb8145b806103e557508062ffffff16612710145b6104245760405162461bcd60e51b815260206004820152601060248201526f24b73b30b634b2103332b2903a34b2b960811b6044820152606401610332565b6005805462ffffff909216600160a01b0262ffffff60a01b19909216919091179055565b600354600480546040516370a0823160e01b8152309281019290925260009283928392906001600160a01b037f000000000000000000000000000000000000000000000000000000000000000016906370a0823190602401602060405180830381865afa1580156104bd573d6000803e3d6000fd5b505050506040513d601f19601f820116820180604052508101906104e19190610d1e565b925092509250909192565b6104f46107ee565b61051a6105096000546001600160a01b031690565b6001600160a01b038416908361086b565b5050565b6002546001600160a01b031633146105495760405163592c904360e11b815260040160405180910390fd5b6105516108a1565b8160000361057257604051631f2a200560e01b815260040160405180910390fd5b6040516370a0823160e01b81523060048201526000907f00000000000000000000000000000000000000000000000000000000000000006001600160a01b0316906370a0823190602401602060405180830381865afa1580156105d9573d6000803e3d6000fd5b505050506040513d601f19601f820116820180604052508101906105fd9190610d1e565b90508281101561062a5760405163cf47918160e01b81526004810184905260248101829052604401610332565b6005546001600160a01b031661065357604051637e0de1ef60e01b815260040160405180910390fd5b600061065f84846108cb565b905061066a81610a87565b836003600082825461067c9190610d37565b9250508190555080600460008282546106959190610d37565b909155505060408051858152602081018390529081018290524260608201527f42659a4aa613c1e350c764f0ff2be36a175ac2a1e4b77b8e1467d1fed32becc89060800160405180910390a1505061051a60018055565b6106f46107ee565b6001600160a01b03811661071e57604051631e4fbdf760e01b815260006004820152602401610332565b6102e38161081b565b61072f6107ee565b600580546001600160a01b038381166001600160a01b0319831681179093556040519116919082907ff296fa3e8eb1c1d46e2d1eafbd38e92f916e42b9ce1573a1cc98b2d0e4e5e86290600090a35050565b6040516001600160a01b0384811660248301528381166044830152606482018390526107e89186918216906323b872dd906084015b604051602081830303815290604052915060e01b6020820180516001600160e01b038381831617835250505050610b04565b50505050565b6000546001600160a01b0316331461039f5760405163118cdaa760e01b8152336004820152602401610332565b600080546001600160a01b038381166001600160a01b0319831681178455604051919092169283917f8be0079c531659141344cd1fd0a4f28419497f9722a3daafe3b4186f6b6457e09190a35050565b6040516001600160a01b0383811660248301526044820183905261089c91859182169063a9059cbb906064016107b6565b505050565b6002600154036108c457604051633ee5aeb560e01b815260040160405180910390fd5b6002600155565b6005546000906001600160a01b03166108f757604051637e0de1ef60e01b815260040160405180910390fd5b600554610931906001600160a01b037f00000000000000000000000000000000000000000000000000000000000000008116911685610b75565b6040805160e0810182526001600160a01b037f0000000000000000000000000000000000000000000000000000000000000000811682527f000000000000000000000000000000000000000000000000000000000000000081166020830190815260055462ffffff600160a01b820481168587019081523060608701908152608087018b815260a088018b8152600060c08a0190815299516304e45aaf60e01b8152895189166004820152965188166024880152925190931660448601525185166064850152905160848401525160a48301529351821660c4820152919216906304e45aaf9060e4016020604051808303816000875af1158015610a39573d6000803e3d6000fd5b505050506040513d601f19601f82011682018060405250810190610a5d9190610d1e565b915081600003610a805760405163081ceff360e41b815260040160405180910390fd5b5092915050565b604051630852cd8d60e31b8152600481018290527f00000000000000000000000000000000000000000000000000000000000000006001600160a01b0316906342966c6890602401600060405180830381600087803b158015610ae957600080fd5b505af1158015610afd573d6000803e3d6000fd5b5050505050565b600080602060008451602086016000885af180610b27576040513d6000823e3d81fd5b50506000513d91508115610b3f578060011415610b4c565b6001600160a01b0384163b155b156107e857604051635274afe760e01b81526001600160a01b0385166004820152602401610332565b604080516001600160a01b038416602482015260448082018490528251808303909101815260649091019091526020810180516001600160e01b031663095ea7b360e01b179052610bc68482610c05565b6107e8576040516001600160a01b03848116602483015260006044830152610bfb91869182169063095ea7b3906064016107b6565b6107e88482610b04565b6000806000806020600086516020880160008a5af192503d91506000519050828015610c4a57508115610c3b5780600114610c4a565b6000866001600160a01b03163b115b93505050505b92915050565b600060208284031215610c6857600080fd5b5035919050565b80356001600160a01b0381168114610c8657600080fd5b919050565b600060208284031215610c9d57600080fd5b610ca682610c6f565b9392505050565b600060208284031215610cbf57600080fd5b813562ffffff81168114610ca657600080fd5b60008060408385031215610ce557600080fd5b610cee83610c6f565b946020939093013593505050565b60008060408385031215610d0f57600080fd5b50508035926020909101359150565b600060208284031215610d3057600080fd5b5051919050565b80820180821115610c5057634e487b7160e01b600052601160045260246000fdfea26469706673582212200c805710fe746b19673ba335fa8ba768a8cc497ba341550d939de931a9756d8464736f6c63430008180033",
  "linkReferences": {},
  "deployedLinkReferences": {}
}