{
  "_format": "hh-sol-artifact-1",
  "contractName": "Fundraiser",
  "sourceName": "contracts/Fundraiser.sol",
  "abi": [
    {
      "inputs": [
        {
          "internalType": "address",
          "name": "_initialOwner",
          "type": "address"
        },
        {
          "internalType": "address",
          "name": "_treasury",
          "type": "address"
        },
        {
          "internalType": "address",
          "name": "_contributionToken",
          "type": "address"
        },
        {
          "internalType": "uint256",
          "name": "_goal",
          "type": "uint256"
        },
        {
          "internalType": "uint256",
          "name": "_durationSeconds",
          "type": "uint256"
        }
      ],
      "stateMutability": "nonpayable",
      "type": "constructor"
    },
    {
      "inputs": [
        {
          "internalType": "address",
          "name": "owner",
          "type": "address"
        }
      ],
      "name": "OwnableInvalidOwner",
      "type": "error"
    },
    {
      "inputs": [
        {
          "internalType": "address",
          "name": "account",
          "type": "address"
        }
      ],
      "name": "OwnableUnauthorizedAccount",
      "type": "error"
    },
    {
      "inputs": [],
      "name": "ReentrancyGuardReentrantCall",
      "type": "error"
    },
    {
      "inputs": [
        {
          "internalType": "address",
          "name": "token",
          "type": "address"
        }
      ],
      "name": "SafeERC20FailedOperation",
      "type": "error"
    },
    {
      "anonymous": false,
      "inputs": [
        {
          "indexed": true,
          "internalType": "address",
          "name": "contributor",
          "type": "address"
        },
        {
          "indexed": false,
          "internalType": "uint256",
          "name": "amount",
          "type": "uint256"
        }
      ],
      "name": "ContributionReceived",
      "type": "event"
    },
    {
      "anonymous": false,
      "inputs": [
        {
          "indexed": false,
          "internalType": "bool",
          "name": "isOpen",
          "type": "bool"
        }
      ],
      "name": "FundraisingStateChanged",
      "type": "event"
    },
    {
      "anonymous": false,
      "inputs": [
        {
          "indexed": true,
          "internalType": "address",
          "name": "treasury",
          "type": "address"
        },
        {
          "indexed": false,
          "internalType": "uint256",
          "name": "amount",
          "type": "uint256"
        }
      ],
      "name": "FundsForwarded",
      "type": "event"
    },
    {
      "anonymous": false,
      "inputs": [
        {
          "indexed": true,
          "internalType": "address",
          "name": "previousOwner",
          "type": "address"
        },
        {
          "indexed": true,
          "internalType": "address",
          "name": "newOwner",
          "type": "address"
        }
      ],
      "name": "OwnershipTransferred",
      "type": "event"
    },
    {
      "anonymous": false,
      "inputs": [
        {
          "indexed": true,
          "internalType": "address",
          "name": "contributor",
          "type": "address"
        },
        {
          "indexed": false,
          "internalType": "uint256",
          "name": "amount",
          "type": "uint256"
        }
      ],
      "name": "Refunded",
      "type": "event"
    },
    {
      "inputs": [
        {
          "internalType": "uint256",
          "name": "amount",
          "type": "uint256"
        }
      ],
      "name": "contribute",
      "outputs": [],
      "stateMutability": "nonpayable",
      "type": "function"
    },
    {
      "inputs": [],
      "name": "contributionToken",
      "outputs": [
        {
          "internalType": "contract IERC20",
          "name": "",
          "type": "address"
        }
      ],
      "stateMutability": "view",
      "type": "function"
    },
    {
      "inputs": [
        {
          "internalType": "address",
          "name": "",
          "type": "address"
        }
      ],
      "name": "contributions",
      "outputs": [
        {
          "internalType": "uint256",
          "name": "",
          "type": "uint256"
        }
      ],
      "stateMutability": "view",
      "type": "function"
    },
    {
      "inputs": [],
      "name": "deadline",
      "outputs": [
        {
          "internalType": "uint256",
          "name": "",
          "type": "uint256"
        }
      ],
      "stateMutability": "view",
      "type": "function"
    },
    {
      "inputs": [],
      "name": "finalized",
      "outputs": [
        {
          "internalType": "bool",
          "name": "",
          "type": "bool"
        }
      ],
      "stateMutability": "view",
      "type": "function"
    },
    {
      "inputs": [],
      "name": "forwardToTreasury",
      "outputs": [],
      "stateMutability": "nonpayable",
      "type": "function"
    },
    {
      "inputs": [],
      "name": "goal",
      "outputs": [
        {
          "internalType": "uint256",
          "name": "",
          "type": "uint256"
        }
      ],
      "stateMutability": "view",
      "type": "function"
    },
    {
      "inputs": [],
      "name": "isLive",
      "outputs": [
        {
          "internalType": "bool",
          "name": "",
          "type": "bool"
        }
      ],
      "stateMutability": "view",
      "type": "function"
    },
    {
      "inputs": [],
      "name": "owner",
      "outputs": [
        {
          "internalType": "address",
          "name": "",
          "type": "address"
        }
      ],
      "stateMutability": "view",
      "type": "function"
    },
    {
      "inputs": [],
      "name": "refund",
      "outputs": [],
      "stateMutability": "nonpayable",
      "type": "function"
    },
    {
      "inputs": [],
      "name": "renounceOwnership",
      "outputs": [],
      "stateMutability": "nonpayable",
      "type": "function"
    },
    {
      "inputs": [
        {
          "internalType": "bool",
          "name": "_isOpen",
          "type": "bool"
        }
      ],
      "name": "setFundraisingState",
      "outputs": [],
      "stateMutability": "nonpayable",
      "type": "function"
    },
    {
      "inputs": [
        {
          "internalType": "address",
          "name": "newTreasury",
          "type": "address"
        }
      ],
      "name": "setTreasury",
      "outputs": [],
      "stateMutability": "nonpayable",
      "type": "function"
    },
    {
      "inputs": [],
      "name": "totalRaised",
      "outputs": [
        {
          "internalType": "uint256",
          "name": "",
          "type": "uint256"
        }
      ],
      "stateMutability": "view",
      "type": "function"
    },
    {
      "inputs": [
        {
          "internalType": "address",
          "name": "newOwner",
          "type": "address"
        }
      ],
      "name": "transferOwnership",
      "outputs": [],
      "stateMutability": "nonpayable",
      "type": "function"
    },
    {
      "inputs": [],
      "name": "treasury",
      "outputs": [
        {
          "internalType": "address",
          "name": "",
          "type": "address"
        }
      ],
      "stateMutability": "view",
      "type": "function"
    }
  ],
  "bytecode": "0x60806040523480156200001157600080fd5b5060405162000d6d38038062000d6d83398101604081905262000034916200020a565b846001600160a01b0381166200006557604051631e4fbdf760e01b8152600060048201526024015b60405180910390fd5b62000070816200019d565b50600180556001600160a01b038416620000c05760405162461bcd60e51b815260206004820152601060248201526f496e76616c696420747265617375727960801b60448201526064016200005c565b6001600160a01b038316620001085760405162461bcd60e51b815260206004820152600d60248201526c24b73b30b634b2103a37b5b2b760991b60448201526064016200005c565b600082116200014d5760405162461bcd60e51b815260206004820152601060248201526f0476f616c206d757374206265203e20360841b60448201526064016200005c565b600280546001600160a01b038087166001600160a01b031992831617909255600380549286169290911691909117905560078290556200018e814262000267565b600855506200028f9350505050565b600080546001600160a01b038381166001600160a01b0319831681178455604051919092169283917f8be0079c531659141344cd1fd0a4f28419497f9722a3daafe3b4186f6b6457e09190a35050565b80516001600160a01b03811681146200020557600080fd5b919050565b600080600080600060a086880312156200022357600080fd5b6200022e86620001ed565b94506200023e60208701620001ed565b93506200024e60408701620001ed565b6060870151608090970151959894975095949392505050565b808201808211156200028957634e487b7160e01b600052601160045260246000fd5b92915050565b610ace806200029f6000396000f3fe608060405234801561001057600080fd5b50600436106101005760003560e01c80638da5cb5b11610097578063c1cbbca711610066578063c1cbbca7146101f0578063c5c4744c14610203578063f0f442601461020c578063f2fde38b1461021f57600080fd5b80638da5cb5b146101a25780638fe468ca146101b3578063b3f05b97146101c6578063b8f7a665146101e357600080fd5b80634bedf9a8116100d35780634bedf9a814610154578063590e1ae31461017f57806361d027b314610187578063715018a61461019a57600080fd5b806329dcb0cf146101055780633dd41e1214610121578063401938831461012b57806342e94c9014610134575b600080fd5b61010e60085481565b6040519081526020015b60405180910390f35b610129610232565b005b61010e60075481565b61010e6101423660046109c2565b60046020526000908152604090205481565b600354610167906001600160a01b031681565b6040516001600160a01b039091168152602001610118565b6101296103cd565b600254610167906001600160a01b031681565b610129610541565b6000546001600160a01b0316610167565b6101296101c13660046109f2565b610553565b6009546101d39060ff1681565b6040519015158152602001610118565b6006546101d39060ff1681565b6101296101fe366004610a14565b6105c5565b61010e60055481565b61012961021a3660046109c2565b61075a565b61012961022d3660046109c2565b6107cc565b61023a610807565b60075460055410156102865760405162461bcd60e51b815260206004820152601060248201526f11dbd85b081b9bdd081c995858da195960821b60448201526064015b60405180910390fd5b60095460ff16156102a95760405162461bcd60e51b815260040161027d90610a2d565b6009805460ff191660011790556003546040516370a0823160e01b81523060048201526000916001600160a01b0316906370a0823190602401602060405180830381865afa1580156102ff573d6000803e3d6000fd5b505050506040513d601f19601f820116820180604052508101906103239190610a58565b90506000811161036b5760405162461bcd60e51b8152602060048201526013602482015272139bc8199d5b991cc81d1bc8199bdc9dd85c99606a1b604482015260640161027d565b600254600354610388916001600160a01b03918216911683610834565b6002546040518281526001600160a01b03909116907f1ddb9940799fcccc2468d1a828bfa2aa7919823d13f2be973a25b396178531c29060200160405180910390a250565b6103d5610898565b600854421161041d5760405162461bcd60e51b8152602060048201526014602482015273111958591b1a5b99481b9bdd081c995858da195960621b604482015260640161027d565b600754600554106104635760405162461bcd60e51b815260206004820152601060248201526f11dbd85b081dd85cc81c995858da195960821b604482015260640161027d565b60095460ff16156104865760405162461bcd60e51b815260040161027d90610a2d565b33600090815260046020526040902054806104d75760405162461bcd60e51b8152602060048201526011602482015270139bdd1a1a5b99c81d1bc81c99599d5b99607a1b604482015260640161027d565b33600081815260046020526040812055600354610500916001600160a01b039091169083610834565b60405181815233907fd7dee2702d63ad89917b6a4da9981c90c4d24f8c2bdfd64c604ecae57d8d06519060200160405180910390a25061053f60018055565b565b610549610807565b61053f60006108c2565b61055b610807565b60095460ff161561057e5760405162461bcd60e51b815260040161027d90610a2d565b6006805460ff19168215159081179091556040519081527f0116f11d8251fcfd63b90ee24667c69e6125737022515f6b84ed17ab2f1a12669060200160405180910390a150565b6105cd610898565b60065460ff166106185760405162461bcd60e51b815260206004820152601660248201527546756e6472616973696e67206e6f742061637469766560501b604482015260640161027d565b60095460ff161561063b5760405162461bcd60e51b815260040161027d90610a2d565b60085442111561067f5760405162461bcd60e51b815260206004820152600f60248201526e111958591b1a5b99481c185cdcd959608a1b604482015260640161027d565b600081116106c45760405162461bcd60e51b81526020600482015260126024820152710416d6f756e74206d757374206265203e20360741b604482015260640161027d565b6003546106dc906001600160a01b0316333084610912565b33600090815260046020526040812080548392906106fb908490610a71565b9250508190555080600560008282546107149190610a71565b909155505060405181815233907f1bb460ccaaf70fbacfec17a376f8acbd278c1405590ffcc8ebe4b88daf4f64ad9060200160405180910390a261075760018055565b50565b610762610807565b6001600160a01b0381166107aa5760405162461bcd60e51b815260206004820152600f60248201526e496e76616c6964206164647265737360881b604482015260640161027d565b600280546001600160a01b0319166001600160a01b0392909216919091179055565b6107d4610807565b6001600160a01b0381166107fe57604051631e4fbdf760e01b81526000600482015260240161027d565b610757816108c2565b6000546001600160a01b0316331461053f5760405163118cdaa760e01b815233600482015260240161027d565b6040516001600160a01b0383811660248301526044820183905261089391859182169063a9059cbb906064015b604051602081830303815290604052915060e01b6020820180516001600160e01b038381831617835250505050610951565b505050565b6002600154036108bb57604051633ee5aeb560e01b815260040160405180910390fd5b6002600155565b600080546001600160a01b038381166001600160a01b0319831681178455604051919092169283917f8be0079c531659141344cd1fd0a4f28419497f9722a3daafe3b4186f6b6457e09190a35050565b6040516001600160a01b03848116602483015283811660448301526064820183905261094b9186918216906323b872dd90608401610861565b50505050565b600080602060008451602086016000885af180610974576040513d6000823e3d81fd5b50506000513d9150811561098c578060011415610999565b6001600160a01b0384163b155b1561094b57604051635274afe760e01b81526001600160a01b038516600482015260240161027d565b6000602082840312156109d457600080fd5b81356001600160a01b03811681146109eb57600080fd5b9392505050565b600060208284031215610a0457600080fd5b813580151581146109eb57600080fd5b600060208284031215610a2657600080fd5b5035919050565b602080825260119082015270105b1c9958591e48199a5b985b1a5e9959607a1b604082015260600190565b600060208284031215610a6a57600080fd5b5051919050565b80820180821115610a9257634e487b7160e01b600052601160045260246000fd5b9291505056fea264697066735822122023ac7616bb8e763cff938f8d29289db40a7c3e073d1d6ab3ae4f390b46fd95f564736f6c63430008180033",
  "linkReferences": {},
  "deployedLinkReferences": {}
}