{
  "_format": "hh-sol-artifact-1",
  "contractName": "Fundraiser",
  "sourceName": "contracts/Fundraiser.sol",
  "abi": [
    {
      "inputs": [
        {
          "internalType": "address",
          "name": "_initialOwner",
          "type": "address"
        },
        {
          "internalType": "address",
          "name": "_treasury",
          "type": "address"
        },
        {
          "internalType": "address",
          "name": "_contributionToken",
          "type": "address"
        }
      ],
      "stateMutability": "nonpayable",
      "type": "constructor"
    },
    {
      "inputs": [
        {
          "internalType": "address",
          "name": "owner",
          "type": "address"
        }
      ],
      "name": "OwnableInvalidOwner",
      "type": "error"
    },
    {
      "inputs": [
        {
          "internalType": "address",
          "name": "account",
          "type": "address"
        }
      ],
      "name": "OwnableUnauthorizedAccount",
      "type": "error"
    },
    {
      "inputs": [],
      "name": "ReentrancyGuardReentrantCall",
      "type": "error"
    },
    {
      "inputs": [
        {
          "internalType": "address",
          "name": "token",
          "type": "address"
        }
      ],
      "name": "SafeERC20FailedOperation",
      "type": "error"
    },
    {
      "anonymous": false,
      "inputs": [
        {
          "indexed": true,
          "internalType": "address",
          "name": "contributor",
          "type": "address"
        },
        {
          "indexed": false,
          "internalType": "uint256",
          "name": "amount",
          "type": "uint256"
        }
      ],
      "name": "ContributionReceived",
      "type": "event"
    },
    {
      "anonymous": false,
      "inputs": [
        {
          "indexed": false,
          "internalType": "bool",
          "name": "isOpen",
          "type": "bool"
        }
      ],
      "name": "FundraisingStateChanged",
      "type": "event"
    },
    {
      "anonymous": false,
      "inputs": [
        {
          "indexed": true,
          "internalType": "address",
          "name": "treasury",
          "type": "address"
        },
        {
          "indexed": false,
          "internalType": "uint256",
          "name": "amount",
          "type": "uint256"
        }
      ],
      "name": "FundsForwarded",
      "type": "event"
    },
    {
      "anonymous": false,
      "inputs": [
        {
          "indexed": true,
          "internalType": "address",
          "name": "previousOwner",
          "type": "address"
        },
        {
          "indexed": true,
          "internalType": "address",
          "name": "newOwner",
          "type": "address"
        }
      ],
      "name": "OwnershipTransferred",
      "type": "event"
    },
    {
      "inputs": [
        {
          "internalType": "uint256",
          "name": "amount",
          "type": "uint256"
        }
      ],
      "name": "contribute",
      "outputs": [],
      "stateMutability": "nonpayable",
      "type": "function"
    },
    {
      "inputs": [],
      "name": "contributionToken",
      "outputs": [
        {
          "internalType": "contract IERC20",
          "name": "",
          "type": "address"
        }
      ],
      "stateMutability": "view",
      "type": "function"
    },
    {
      "inputs": [
        {
          "internalType": "address",
          "name": "",
          "type": "address"
        }
      ],
      "name": "contributions",
      "outputs": [
        {
          "internalType": "uint256",
          "name": "",
          "type": "uint256"
        }
      ],
      "stateMutability": "view",
      "type": "function"
    },
    {
      "inputs": [],
      "name": "forwardToTreasury",
      "outputs": [],
      "stateMutability": "nonpayable",
      "type": "function"
    },
    {
      "inputs": [],
      "name": "isLive",
      "outputs": [
        {
          "internalType": "bool",
          "name": "",
          "type": "bool"
        }
      ],
      "stateMutability": "view",
      "type": "function"
    },
    {
      "inputs": [],
      "name": "owner",
      "outputs": [
        {
          "internalType": "address",
          "name": "",
          "type": "address"
        }
      ],
      "stateMutability": "view",
      "type": "function"
    },
    {
      "inputs": [],
      "name": "renounceOwnership",
      "outputs": [],
      "stateMutability": "nonpayable",
      "type": "function"
    },
    {
      "inputs": [
        {
          "internalType": "bool",
          "name": "_isOpen",
          "type": "bool"
        }
      ],
      "name": "setFundraisingState",
      "outputs": [],
      "stateMutability": "nonpayable",
      "type": "function"
    },
    {
      "inputs": [
        {
          "internalType": "address",
          "name": "newTreasury",
          "type": "address"
        }
      ],
      "name": "setTreasury",
      "outputs": [],
      "stateMutability": "nonpayable",
      "type": "function"
    },
    {
      "inputs": [],
      "name": "totalRaised",
      "outputs": [
        {
          "internalType": "uint256",
          "name": "",
          "type": "uint256"
        }
      ],
      "stateMutability": "view",
      "type": "function"
    },
    {
      "inputs": [
        {
          "internalType": "address",
          "name": "newOwner",
          "type": "address"
        }
      ],
      "name": "transferOwnership",
      "outputs": [],
      "stateMutability": "nonpayable",
      "type": "function"
    },
    {
      "inputs": [],
      "name": "treasury",
      "outputs": [
        {
          "internalType": "address",
          "name": "",
          "type": "address"
        }
      ],
      "stateMutability": "view",
      "type": "function"
    }
  ],
  "bytecode": "0x608060405234801561001057600080fd5b5060405161091938038061091983398101604081905261002f9161010a565b826001600160a01b03811661005e57604051631e4fbdf760e01b81526000600482015260240160405180910390fd5b6100678161009e565b5060018055600280546001600160a01b039384166001600160a01b031991821617909155600380549290931691161790555061014d565b600080546001600160a01b038381166001600160a01b0319831681178455604051919092169283917f8be0079c531659141344cd1fd0a4f28419497f9722a3daafe3b4186f6b6457e09190a35050565b80516001600160a01b038116811461010557600080fd5b919050565b60008060006060848603121561011f57600080fd5b610128846100ee565b9250610136602085016100ee565b9150610144604085016100ee565b90509250925092565b6107bd8061015c6000396000f3fe608060405234801561001057600080fd5b50600436106100b45760003560e01c80638fe468ca116100715780638fe468ca1461014d578063b8f7a66514610160578063c1cbbca71461017d578063c5c4744c14610190578063f0f4426014610199578063f2fde38b146101ac57600080fd5b80633dd41e12146100b957806342e94c90146100c35780634bedf9a8146100f657806361d027b314610121578063715018a6146101345780638da5cb5b1461013c575b600080fd5b6100c16101bf565b005b6100e36100d13660046106dc565b60046020526000908152604090205481565b6040519081526020015b60405180910390f35b600354610109906001600160a01b031681565b6040516001600160a01b0390911681526020016100ed565b600254610109906001600160a01b031681565b6100c16102e3565b6000546001600160a01b0316610109565b6100c161015b36600461070c565b6102f7565b60065461016d9060ff1681565b60405190151581526020016100ed565b6100c161018b36600461072e565b610346565b6100e360055481565b6100c16101a73660046106dc565b610474565b6100c16101ba3660046106dc565b6104e6565b6101c7610521565b6003546040516370a0823160e01b81523060048201526000916001600160a01b0316906370a0823190602401602060405180830381865afa158015610210573d6000803e3d6000fd5b505050506040513d601f19601f820116820180604052508101906102349190610747565b9050600081116102815760405162461bcd60e51b8152602060048201526013602482015272139bc8199d5b991cc81d1bc8199bdc9dd85c99606a1b60448201526064015b60405180910390fd5b60025460035461029e916001600160a01b0391821691168361054e565b6002546040518281526001600160a01b03909116907f1ddb9940799fcccc2468d1a828bfa2aa7919823d13f2be973a25b396178531c29060200160405180910390a250565b6102eb610521565b6102f560006105b2565b565b6102ff610521565b6006805460ff19168215159081179091556040519081527f0116f11d8251fcfd63b90ee24667c69e6125737022515f6b84ed17ab2f1a12669060200160405180910390a150565b61034e610602565b60065460ff166103995760405162461bcd60e51b815260206004820152601660248201527546756e6472616973696e67206e6f742061637469766560501b6044820152606401610278565b600081116103de5760405162461bcd60e51b81526020600482015260126024820152710416d6f756e74206d757374206265203e20360741b6044820152606401610278565b6003546103f6906001600160a01b031633308461062c565b3360009081526004602052604081208054839290610415908490610760565b92505081905550806005600082825461042e9190610760565b909155505060405181815233907f1bb460ccaaf70fbacfec17a376f8acbd278c1405590ffcc8ebe4b88daf4f64ad9060200160405180910390a261047160018055565b50565b61047c610521565b6001600160a01b0381166104c45760405162461bcd60e51b815260206004820152600f60248201526e496e76616c6964206164647265737360881b6044820152606401610278565b600280546001600160a01b0319166001600160a01b0392909216919091179055565b6104ee610521565b6001600160a01b03811661051857604051631e4fbdf760e01b815260006004820152602401610278565b610471816105b2565b6000546001600160a01b031633146102f55760405163118cdaa760e01b8152336004820152602401610278565b6040516001600160a01b038381166024830152604482018390526105ad91859182169063a9059cbb906064015b604051602081830303815290604052915060e01b6020820180516001600160e01b03838183161783525050505061066b565b505050565b600080546001600160a01b038381166001600160a01b0319831681178455604051919092169283917f8be0079c531659141344cd1fd0a4f28419497f9722a3daafe3b4186f6b6457e09190a35050565b60026001540361062557604051633ee5aeb560e01b815260040160405180910390fd5b6002600155565b6040516001600160a01b0384811660248301528381166044830152606482018390526106659186918216906323b872dd9060840161057b565b50505050565b600080602060008451602086016000885af18061068e576040513d6000823e3d81fd5b50506000513d915081156106a65780600114156106b3565b6001600160a01b0384163b155b1561066557604051635274afe760e01b81526001600160a01b0385166004820152602401610278565b6000602082840312156106ee57600080fd5b81356001600160a01b038116811461070557600080fd5b9392505050565b60006020828403121561071e57600080fd5b8135801515811461070557600080fd5b60006020828403121561074057600080fd5b5035919050565b60006020828403121561075957600080fd5b5051919050565b8082018082111561078157634e487b7160e01b600052601160045260246000fd5b9291505056fea2646970667358221220a09eb85453623ea35f05de511c4e8a84a4f7a07def29930a33f6cddad9b5fcbd64736f6c63430008180033",
  "linkReferences": {},
  "deployedLinkReferences": {}
}