{
  "_format": "hh-sol-artifact-1",
  "contractName": "Squads",
  "sourceName": "contracts/Squads.sol",
  "abi": [
    {
      "inputs": [
        {
          "internalType": "address",
          "name": "_initialOwner",
          "type": "address"
        }
      ],
      "stateMutability": "nonpayable",
      "type": "constructor"
    },
    {
      "inputs": [
        {
          "internalType": "address",
          "name": "owner",
          "type": "address"
        }
      ],
      "name": "OwnableInvalidOwner",
      "type": "error"
    },
    {
      "inputs": [
        {
          "internalType": "address",
          "name": "account",
          "type": "address"
        }
      ],
      "name": "OwnableUnauthorizedAccount",
      "type": "error"
    },
    {
      "inputs": [],
      "name": "ReentrancyGuardReentrantCall",
      "type": "error"
    },
    {
      "anonymous": false,
      "inputs": [
        {
          "indexed": true,
          "internalType": "uint256",
          "name": "squadId",
          "type": "uint256"
        },
        {
          "indexed": false,
          "internalType": "uint256",
          "name": "amount",
          "type": "uint256"
        }
      ],
      "name": "BudgetAllocated",
      "type": "event"
    },
    {
      "anonymous": false,
      "inputs": [
        {
          "indexed": true,
          "internalType": "uint256",
          "name": "squadId",
          "type": "uint256"
        },
        {
          "indexed": false,
          "internalType": "address",
          "name": "member",
          "type": "address"
        }
      ],
      "name": "MemberAdded",
      "type": "event"
    },
    {
      "anonymous": false,
      "inputs": [
        {
          "indexed": true,
          "internalType": "uint256",
          "name": "squadId",
          "type": "uint256"
        },
        {
          "indexed": false,
          "internalType": "address",
          "name": "member",
          "type": "address"
        }
      ],
      "name": "MemberRemoved",
      "type": "event"
    },
    {
      "anonymous": false,
      "inputs": [
        {
          "indexed": true,
          "internalType": "address",
          "name": "previousOwner",
          "type": "address"
        },
        {
          "indexed": true,
          "internalType": "address",
          "name": "newOwner",
          "type": "address"
        }
      ],
      "name": "OwnershipTransferred",
      "type": "event"
    },
    {
      "anonymous": false,
      "inputs": [
        {
          "indexed": true,
          "internalType": "uint256",
          "name": "squadId",
          "type": "uint256"
        },
        {
          "indexed": false,
          "internalType": "string",
          "name": "name",
          "type": "string"
        },
        {
          "indexed": false,
          "internalType": "enum Squads.SquadType",
          "name": "squadType",
          "type": "uint8"
        }
      ],
      "name": "SquadCreated",
      "type": "event"
    },
    {
      "anonymous": false,
      "inputs": [
        {
          "indexed": true,
          "internalType": "uint256",
          "name": "squadId",
          "type": "uint256"
        },
        {
          "indexed": true,
          "internalType": "uint256",
          "name": "taskId",
          "type": "uint256"
        },
        {
          "indexed": false,
          "internalType": "address",
          "name": "assignee",
          "type": "address"
        }
      ],
      "name": "TaskAssigned",
      "type": "event"
    },
    {
      "anonymous": false,
      "inputs": [
        {
          "indexed": true,
          "internalType": "uint256",
          "name": "squadId",
          "type": "uint256"
        },
        {
          "indexed": true,
          "internalType": "uint256",
          "name": "taskId",
          "type": "uint256"
        }
      ],
      "name": "TaskCompleted",
      "type": "event"
    },
    {
      "anonymous": false,
      "inputs": [
        {
          "indexed": true,
          "internalType": "uint256",
          "name": "squadId",
          "type": "uint256"
        },
        {
          "indexed": true,
          "internalType": "uint256",
          "name": "taskId",
          "type": "uint256"
        },
        {
          "indexed": false,
          "internalType": "string",
          "name": "description",
          "type": "string"
        },
        {
          "indexed": false,
          "internalType": "uint256",
          "name": "reward",
          "type": "uint256"
        }
      ],
      "name": "TaskCreated",
      "type": "event"
    },
    {
      "inputs": [
        {
          "internalType": "uint256",
          "name": "squadId",
          "type": "uint256"
        },
        {
          "internalType": "address",
          "name": "member",
          "type": "address"
        }
      ],
      "name": "addMember",
      "outputs": [],
      "stateMutability": "nonpayable",
      "type": "function"
    },
    {
      "inputs": [
        {
          "internalType": "uint256",
          "name": "squadId",
          "type": "uint256"
        },
        {
          "internalType": "uint256",
          "name": "taskId",
          "type": "uint256"
        },
        {
          "internalType": "address",
          "name": "assignee",
          "type": "address"
        }
      ],
      "name": "assignTask",
      "outputs": [],
      "stateMutability": "nonpayable",
      "type": "function"
    },
    {
      "inputs": [
        {
          "internalType": "uint256",
          "name": "squadId",
          "type": "uint256"
        },
        {
          "internalType": "uint256",
          "name": "taskId",
          "type": "uint256"
        }
      ],
      "name": "completeTask",
      "outputs": [],
      "stateMutability": "nonpayable",
      "type": "function"
    },
    {
      "inputs": [
        {
          "internalType": "string",
          "name": "name",
          "type": "string"
        },
        {
          "internalType": "enum Squads.SquadType",
          "name": "squadType",
          "type": "uint8"
        }
      ],
      "name": "createSquad",
      "outputs": [],
      "stateMutability": "nonpayable",
      "type": "function"
    },
    {
      "inputs": [
        {
          "internalType": "uint256",
          "name": "squadId",
          "type": "uint256"
        },
        {
          "internalType": "string",
          "name": "description",
          "type": "string"
        },
        {
          "internalType": "uint256",
          "name": "reward",
          "type": "uint256"
        }
      ],
      "name": "createTask",
      "outputs": [],
      "stateMutability": "nonpayable",
      "type": "function"
    },
    {
      "inputs": [
        {
          "internalType": "uint256",
          "name": "squadId",
          "type": "uint256"
        },
        {
          "internalType": "uint256",
          "name": "amount",
          "type": "uint256"
        }
      ],
      "name": "fundSquadBudget",
      "outputs": [],
      "stateMutability": "nonpayable",
      "type": "function"
    },
    {
      "inputs": [
        {
          "internalType": "uint256",
          "name": "squadId",
          "type": "uint256"
        }
      ],
      "name": "getSquadName",
      "outputs": [
        {
          "internalType": "string",
          "name": "",
          "type": "string"
        }
      ],
      "stateMutability": "view",
      "type": "function"
    },
    {
      "inputs": [],
      "name": "hubDao",
      "outputs": [
        {
          "internalType": "address",
          "name": "",
          "type": "address"
        }
      ],
      "stateMutability": "view",
      "type": "function"
    },
    {
      "inputs": [],
      "name": "owner",
      "outputs": [
        {
          "internalType": "address",
          "name": "",
          "type": "address"
        }
      ],
      "stateMutability": "view",
      "type": "function"
    },
    {
      "inputs": [
        {
          "internalType": "uint256",
          "name": "squadId",
          "type": "uint256"
        },
        {
          "internalType": "address",
          "name": "member",
          "type": "address"
        }
      ],
      "name": "removeMember",
      "outputs": [],
      "stateMutability": "nonpayable",
      "type": "function"
    },
    {
      "inputs": [],
      "name": "renounceOwnership",
      "outputs": [],
      "stateMutability": "nonpayable",
      "type": "function"
    },
    {
      "inputs": [
        {
          "internalType": "address",
          "name": "_hubDao",
          "type": "address"
        }
      ],
      "name": "setHubDao",
      "outputs": [],
      "stateMutability": "nonpayable",
      "type": "function"
    },
    {
      "inputs": [],
      "name": "squadCount",
      "outputs": [
        {
          "internalType": "uint256",
          "name": "",
          "type": "uint256"
        }
      ],
      "stateMutability": "view",
      "type": "function"
    },
    {
      "inputs": [
        {
          "internalType": "uint256",
          "name": "",
          "type": "uint256"
        }
      ],
      "name": "squads",
      "outputs": [
        {
          "internalType": "string",
          "name": "name",
          "type": "string"
        },
        {
          "internalType": "enum Squads.SquadType",
          "name": "squadType",
          "type": "uint8"
        },
        {
          "internalType": "uint256",
          "name": "budget",
          "type": "uint256"
        },
        {
          "internalType": "uint256",
          "name": "taskCount",
          "type": "uint256"
        }
      ],
      "stateMutability": "view",
      "type": "function"
    },
    {
      "inputs": [
        {
          "internalType": "address",
          "name": "newOwner",
          "type": "address"
        }
      ],
      "name": "transferOwnership",
      "outputs": [],
      "stateMutability": "nonpayable",
      "type": "function"
    }
  ],
  "bytecode": "0x608060405234801561001057600080fd5b506040516113ab3803806113ab83398101604081905261002f916100c2565b806001600160a01b03811661005e57604051631e4fbdf760e01b81526000600482015260240160405180910390fd5b61006781610072565b5050600180556100f2565b600080546001600160a01b038381166001600160a01b0319831681178455604051919092169283917f8be0079c531659141344cd1fd0a4f28419497f9722a3daafe3b4186f6b6457e09190a35050565b6000602082840312156100d457600080fd5b81516001600160a01b03811681146100eb57600080fd5b9392505050565b6112aa806101016000396000f3fe608060405234801561001057600080fd5b50600436106100f55760003560e01c8063715018a611610097578063de1eecc911610066578063de1eecc9146101ea578063ebd414261461020d578063f2fde38b14610220578063ff0e57091461023357600080fd5b8063715018a6146101ab57806374d0a676146101b35780638d443ea1146101c65780638da5cb5b146101d957600080fd5b8063202e078b116100d3578063202e078b1461015f5780632137f08914610172578063538e28d2146101855780636be7658b1461019857600080fd5b80630527497b146100fa578063108c8ae41461012a5780631986b3011461013f575b600080fd5b60045461010d906001600160a01b031681565b6040516001600160a01b0390911681526020015b60405180910390f35b61013d610138366004610d53565b61024a565b005b61015261014d366004610d75565b61034f565b6040516101219190610dd4565b61013d61016d366004610e37565b6103f1565b61013d610180366004610ea6565b610501565b61013d610193366004610edb565b610693565b61013d6101a6366004610ef6565b6106bd565b61013d6108cf565b61013d6101c1366004610ef6565b6108e3565b61013d6101d4366004610d53565b610a14565b6000546001600160a01b031661010d565b6101fd6101f8366004610d75565b610b12565b6040516101219493929190610f5a565b61013d61021b366004610f8e565b610bc8565b61013d61022e366004610edb565b610c6e565b61023c60035481565b604051908152602001610121565b600082815260026020818152604080842085855260058101909252909220908101546001600160a01b031633146102b75760405162461bcd60e51b815260206004820152600c60248201526b4e6f742061737369676e656560a01b60448201526064015b60405180910390fd5b6002810154600160a01b900460ff16156103075760405162461bcd60e51b8152602060048201526011602482015270105b1c9958591e4818dbdb5c1b195d1959607a1b60448201526064016102ae565b60028101805460ff60a01b1916600160a01b179055604051839085907ff9c405f91e34dcd1dc136cf6992ada4a8c24a2803e0fab7546364c64dac7ba2b90600090a350505050565b600081815260026020526040902080546060919061036c90610fe9565b80601f016020809104026020016040519081016040528092919081815260200182805461039890610fe9565b80156103e55780601f106103ba576101008083540402835291602001916103e5565b820191906000526020600020905b8154815290600101906020018083116103c857829003601f168201915b50505050509050919050565b6000848152600260209081526040808320338452600301909152902054849060ff166104545760405162461bcd60e51b81526020600482015260126024820152712737ba10309039b8bab0b21036b2b6b132b960711b60448201526064016102ae565b6000858152600260205260408120600681018054919261047383611039565b9091555050600681015460009081526005820160205260409020806104998688836110b9565b50600181018490556003810180546001600160a01b03191633179055600682015460405188907f1d13d921deea11ca326ca6cd0fd1cc3b2af6e44cdf037f6360f84878c5076198906104f0908a908a908a906111a3565b60405180910390a350505050505050565b6000838152600260209081526040808320338452600301909152902054839060ff166105645760405162461bcd60e51b81526020600482015260126024820152712737ba10309039b8bab0b21036b2b6b132b960711b60448201526064016102ae565b60008481526002602090815260408083206001600160a01b0386168452600381019092529091205460ff166105d35760405162461bcd60e51b8152602060048201526015602482015274105cdcda59db9959481b9bdd081a5b881cdc5d5859605a1b60448201526064016102ae565b6000841180156105e7575080600601548411155b6106255760405162461bcd60e51b815260206004820152600f60248201526e125b9d985b1a59081d185cdac81251608a1b60448201526064016102ae565b600084815260058201602090815260409182902060020180546001600160a01b0319166001600160a01b0387169081179091559151918252859187917f07e41ee9abd3319781d1d6fc57943207e0c2772d75f2e6c7de920e108fd6c8f0910160405180910390a35050505050565b61069b610cac565b600480546001600160a01b0319166001600160a01b0392909216919091179055565b6106c5610cac565b6000821180156106d757506003548211155b6106f35760405162461bcd60e51b81526004016102ae906111c7565b60008281526002602090815260408083206001600160a01b038516845260030190915290205460ff166107575760405162461bcd60e51b815260206004820152600c60248201526b2737ba10309036b2b6b132b960a11b60448201526064016102ae565b60008281526002602081815260408084206001600160a01b0386168552600381018352908420805460ff191690558584529082905201905b815481101561088b57826001600160a01b03168282815481106107b4576107b46111f1565b6000918252602090912001546001600160a01b03160361088357815482906107de90600190611207565b815481106107ee576107ee6111f1565b9060005260206000200160009054906101000a90046001600160a01b031682828154811061081e5761081e6111f1565b9060005260206000200160006101000a8154816001600160a01b0302191690836001600160a01b031602179055508180548061085c5761085c611220565b600082815260209020810160001990810180546001600160a01b031916905501905561088b565b60010161078f565b506040516001600160a01b038316815283907f1c4c9d2e56d0635d11bc47c997c6909a0d7061f55cbb8f4b27386db37553191c9060200160405180910390a2505050565b6108d7610cac565b6108e16000610cd9565b565b6108eb610cac565b6000821180156108fd57506003548211155b6109195760405162461bcd60e51b81526004016102ae906111c7565b60008281526002602090815260408083206001600160a01b038516845260030190915290205460ff16156109825760405162461bcd60e51b815260206004820152601060248201526f20b63932b0b23c90309036b2b6b132b960811b60448201526064016102ae565b60008281526002602081815260408084206001600160a01b038616808652600382018452828620805460ff19166001908117909155858552919094018054918201815585529382902090930180546001600160a01b03191683179055915190815283917ff328ac0f8bcae00933fe87ba0aa2d0d505c1df94bc9c1aa05b8441c28b74032c910160405180910390a25050565b6000546001600160a01b0316331480610a3757506004546001600160a01b031633145b610a745760405162461bcd60e51b815260206004820152600e60248201526d139bdd08185d5d1a1bdc9a5e995960921b60448201526064016102ae565b610a7c610d29565b600082118015610a8e57506003548211155b610aaa5760405162461bcd60e51b81526004016102ae906111c7565b60008281526002602052604081206004018054839290610acb908490611236565b909155505060405181815282907f871ed588425afa8e2438e966d1c8b18455f4ac5a6e6c72d7ed8b6ea6ebb0e8299060200160405180910390a2610b0e60018055565b5050565b600260205260009081526040902080548190610b2d90610fe9565b80601f0160208091040260200160405190810160405280929190818152602001828054610b5990610fe9565b8015610ba65780601f10610b7b57610100808354040283529160200191610ba6565b820191906000526020600020905b815481529060010190602001808311610b8957829003601f168201915b5050505060018301546004840154600690940154929360ff9091169290915084565b610bd0610cac565b60038054906000610be083611039565b9091555050600354600090815260026020526040902080610c028486836110b9565b5060018082018054849260ff1990911690836003811115610c2557610c25610f22565b02179055506003547fffc7187dce79227acf977eedb863f2e0d08e11db28bb6571bfbdec5e44340ecd858585604051610c6093929190611249565b60405180910390a250505050565b610c76610cac565b6001600160a01b038116610ca057604051631e4fbdf760e01b8152600060048201526024016102ae565b610ca981610cd9565b50565b6000546001600160a01b031633146108e15760405163118cdaa760e01b81523360048201526024016102ae565b600080546001600160a01b038381166001600160a01b0319831681178455604051919092169283917f8be0079c531659141344cd1fd0a4f28419497f9722a3daafe3b4186f6b6457e09190a35050565b600260015403610d4c57604051633ee5aeb560e01b815260040160405180910390fd5b6002600155565b60008060408385031215610d6657600080fd5b50508035926020909101359150565b600060208284031215610d8757600080fd5b5035919050565b6000815180845260005b81811015610db457602081850181015186830182015201610d98565b506000602082860101526020601f19601f83011685010191505092915050565b602081526000610de76020830184610d8e565b9392505050565b60008083601f840112610e0057600080fd5b50813567ffffffffffffffff811115610e1857600080fd5b602083019150836020828501011115610e3057600080fd5b9250929050565b60008060008060608587031215610e4d57600080fd5b84359350602085013567ffffffffffffffff811115610e6b57600080fd5b610e7787828801610dee565b9598909750949560400135949350505050565b80356001600160a01b0381168114610ea157600080fd5b919050565b600080600060608486031215610ebb57600080fd5b8335925060208401359150610ed260408501610e8a565b90509250925092565b600060208284031215610eed57600080fd5b610de782610e8a565b60008060408385031215610f0957600080fd5b82359150610f1960208401610e8a565b90509250929050565b634e487b7160e01b600052602160045260246000fd5b60048110610f5657634e487b7160e01b600052602160045260246000fd5b9052565b608081526000610f6d6080830187610d8e565b9050610f7c6020830186610f38565b60408201939093526060015292915050565b600080600060408486031215610fa357600080fd5b833567ffffffffffffffff811115610fba57600080fd5b610fc686828701610dee565b909450925050602084013560048110610fde57600080fd5b809150509250925092565b600181811c90821680610ffd57607f821691505b60208210810361101d57634e487b7160e01b600052602260045260246000fd5b50919050565b634e487b7160e01b600052601160045260246000fd5b60006001820161104b5761104b611023565b5060010190565b634e487b7160e01b600052604160045260246000fd5b601f8211156110b4576000816000526020600020601f850160051c810160208610156110915750805b601f850160051c820191505b818110156110b05782815560010161109d565b5050505b505050565b67ffffffffffffffff8311156110d1576110d1611052565b6110e5836110df8354610fe9565b83611068565b6000601f84116001811461111957600085156111015750838201355b600019600387901b1c1916600186901b178355611173565b600083815260209020601f19861690835b8281101561114a578685013582556020948501946001909201910161112a565b50868210156111675760001960f88860031b161c19848701351681555b505060018560011b0183555b5050505050565b81835281816020850137506000828201602090810191909152601f909101601f19169091010190565b6040815260006111b760408301858761117a565b9050826020830152949350505050565b60208082526010908201526f125b9d985b1a59081cdc5d585908125160821b604082015260600190565b634e487b7160e01b600052603260045260246000fd5b8181038181111561121a5761121a611023565b92915050565b634e487b7160e01b600052603160045260246000fd5b8082018082111561121a5761121a611023565b60408152600061125d60408301858761117a565b905061126c6020830184610f38565b94935050505056fea264697066735822122044e79545247c5a2430ae5d8bea0114430e5be7d3c99007708d6d7e6d0decd94f64736f6c63430008180033",
  "linkReferences": {},
  "deployedLinkReferences": {}
}