{
  "_format": "hh-sol-artifact-1",
  "contractName": "Squads",
  "sourceName": "contracts/Squads.sol",
  "abi": [
    {
      "inputs": [
        {
          "internalType": "address",
          "name": "_initialOwner",
          "type": "address"
        }
      ],
      "stateMutability": "nonpayable",
      "type": "constructor"
    },
    {
      "inputs": [
        {
          "internalType": "address",
          "name": "owner",
          "type": "address"
        }
      ],
      "name": "OwnableInvalidOwner",
      "type": "error"
    },
    {
      "inputs": [
        {
          "internalType": "address",
          "name": "account",
          "type": "address"
        }
      ],
      "name": "OwnableUnauthorizedAccount",
      "type": "error"
    },
    {
      "inputs": [],
      "name": "ReentrancyGuardReentrantCall",
      "type": "error"
    },
    {
      "anonymous": false,
      "inputs": [
        {
          "indexed": true,
          "internalType": "uint256",
          "name": "squadId",
          "type": "uint256"
        },
        {
          "indexed": false,
          "internalType": "uint256",
          "name": "amount",
          "type": "uint256"
        }
      ],
      "name": "BudgetAllocated",
      "type": "event"
    },
    {
      "anonymous": false,
      "inputs": [
        {
          "indexed": true,
          "internalType": "uint256",
          "name": "squadId",
          "type": "uint256"
        },
        {
          "indexed": false,
          "internalType": "address",
          "name": "member",
          "type": "address"
        }
      ],
      "name": "MemberAdded",
      "type": "event"
    },
    {
      "anonymous": false,
      "inputs": [
        {
          "indexed": true,
          "internalType": "uint256",
          "name": "squadId",
          "type": "uint256"
        },
        {
          "indexed": false,
          "internalType": "address",
          "name": "member",
          "type": "address"
        }
      ],
      "name": "MemberRemoved",
      "type": "event"
    },
    {
      "anonymous": false,
      "inputs": [
        {
          "indexed": true,
          "internalType": "address",
          "name": "previousOwner",
          "type": "address"
        },
        {
          "indexed": true,
          "internalType": "address",
          "name": "newOwner",
          "type": "address"
        }
      ],
      "name": "OwnershipTransferred",
      "type": "event"
    },
    {
      "anonymous": false,
      "inputs": [
        {
          "indexed": true,
          "internalType": "uint256",
          "name": "squadId",
          "type": "uint256"
        },
        {
          "indexed": false,
          "internalType": "string",
          "name": "name",
          "type": "string"
        },
        {
          "indexed": false,
          "internalType": "enum Squads.SquadType",
          "name": "squadType",
          "type": "uint8"
        }
      ],
      "name": "SquadCreated",
      "type": "event"
    },
    {
      "anonymous": false,
      "inputs": [
        {
          "indexed": true,
          "internalType": "uint256",
          "name": "squadId",
          "type": "uint256"
        },
        {
          "indexed": true,
          "internalType": "uint256",
          "name": "taskId",
          "type": "uint256"
        },
        {
          "indexed": false,
          "internalType": "address",
          "name": "assignee",
          "type": "address"
        }
      ],
      "name": "TaskAssigned",
      "type": "event"
    },
    {
      "anonymous": false,
      "inputs": [
        {
          "indexed": true,
          "internalType": "uint256",
          "name": "squadId",
          "type": "uint256"
        },
        {
          "indexed": true,
          "internalType": "uint256",
          "name": "taskId",
          "type": "uint256"
        }
      ],
      "name": "TaskCompleted",
      "type": "event"
    },
    {
      "anonymous": false,
      "inputs": [
        {
          "indexed": true,
          "internalType": "uint256",
          "name": "squadId",
          "type": "uint256"
        },
        {
          "indexed": true,
          "internalType": "uint256",
          "name": "taskId",
          "type": "uint256"
        },
        {
          "indexed": false,
          "internalType": "string",
          "name": "description",
          "type": "string"
        },
        {
          "indexed": false,
          "internalType": "uint256",
          "name": "reward",
          "type": "uint256"
        }
      ],
      "name": "TaskCreated",
      "type": "event"
    },
    {
      "inputs": [
        {
          "internalType": "uint256",
          "name": "squadId",
          "type": "uint256"
        },
        {
          "internalType": "address",
          "name": "member",
          "type": "address"
        }
      ],
      "name": "addMember",
      "outputs": [],
      "stateMutability": "nonpayable",
      "type": "function"
    },
    {
      "inputs": [
        {
          "internalType": "uint256",
          "name": "squadId",
          "type": "uint256"
        },
        {
          "internalType": "uint256",
          "name": "taskId",
          "type": "uint256"
        },
        {
          "internalType": "address",
          "name": "assignee",
          "type": "address"
        }
      ],
      "name": "assignTask",
      "outputs": [],
      "stateMutability": "nonpayable",
      "type": "function"
    },
    {
      "inputs": [
        {
          "internalType": "uint256",
          "name": "squadId",
          "type": "uint256"
        },
        {
          "internalType": "uint256",
          "name": "taskId",
          "type": "uint256"
        }
      ],
      "name": "completeTask",
      "outputs": [],
      "stateMutability": "nonpayable",
      "type": "function"
    },
    {
      "inputs": [
        {
          "internalType": "string",
          "name": "name",
          "type": "string"
        },
        {
          "internalType": "enum Squads.SquadType",
          "name": "squadType",
          "type": "uint8"
        }
      ],
      "name": "createSquad",
      "outputs": [],
      "stateMutability": "nonpayable",
      "type": "function"
    },
    {
      "inputs": [
        {
          "internalType": "uint256",
          "name": "squadId",
          "type": "uint256"
        },
        {
          "internalType": "string",
          "name": "description",
          "type": "string"
        },
        {
          "internalType": "uint256",
          "name": "reward",
          "type": "uint256"
        }
      ],
      "name": "createTask",
      "outputs": [],
      "stateMutability": "nonpayable",
      "type": "function"
    },
    {
      "inputs": [
        {
          "internalType": "uint256",
          "name": "squadId",
          "type": "uint256"
        },
        {
          "internalType": "uint256",
          "name": "amount",
          "type": "uint256"
        }
      ],
      "name": "fundSquadBudget",
      "outputs": [],
      "stateMutability": "nonpayable",
      "type": "function"
    },
    {
      "inputs": [
        {
          "internalType": "uint256",
          "name": "squadId",
          "type": "uint256"
        }
      ],
      "name": "getSquadName",
      "outputs": [
        {
          "internalType": "string",
          "name": "",
          "type": "string"
        }
      ],
      "stateMutability": "view",
      "type": "function"
    },
    {
      "inputs": [],
      "name": "hubDao",
      "outputs": [
        {
          "internalType": "address",
          "name": "",
          "type": "address"
        }
      ],
      "stateMutability": "view",
      "type": "function"
    },
    {
      "inputs": [],
      "name": "owner",
      "outputs": [
        {
          "internalType": "address",
          "name": "",
          "type": "address"
        }
      ],
      "stateMutability": "view",
      "type": "function"
    },
    {
      "inputs": [],
      "name": "renounceOwnership",
      "outputs": [],
      "stateMutability": "nonpayable",
      "type": "function"
    },
    {
      "inputs": [
        {
          "internalType": "address",
          "name": "_hubDao",
          "type": "address"
        }
      ],
      "name": "setHubDao",
      "outputs": [],
      "stateMutability": "nonpayable",
      "type": "function"
    },
    {
      "inputs": [],
      "name": "squadCount",
      "outputs": [
        {
          "internalType": "uint256",
          "name": "",
          "type": "uint256"
        }
      ],
      "stateMutability": "view",
      "type": "function"
    },
    {
      "inputs": [
        {
          "internalType": "uint256",
          "name": "",
          "type": "uint256"
        }
      ],
      "name": "squads",
      "outputs": [
        {
          "internalType": "string",
          "name": "name",
          "type": "string"
        },
        {
          "internalType": "enum Squads.SquadType",
          "name": "squadType",
          "type": "uint8"
        },
        {
          "internalType": "uint256",
          "name": "budget",
          "type": "uint256"
        },
        {
          "internalType": "uint256",
          "name": "taskCount",
          "type": "uint256"
        }
      ],
      "stateMutability": "view",
      "type": "function"
    },
    {
      "inputs": [
        {
          "internalType": "address",
          "name": "newOwner",
          "type": "address"
        }
      ],
      "name": "transferOwnership",
      "outputs": [],
      "stateMutability": "nonpayable",
      "type": "function"
    }
  ],
  "bytecode": "0x608060405234801561001057600080fd5b506040516110c63803806110c683398101604081905261002f916100c2565b806001600160a01b03811661005e57604051631e4fbdf760e01b81526000600482015260240160405180910390fd5b61006781610072565b5050600180556100f2565b600080546001600160a01b038381166001600160a01b0319831681178455604051919092169283917f8be0079c531659141344cd1fd0a4f28419497f9722a3daafe3b4186f6b6457e09190a35050565b6000602082840312156100d457600080fd5b81516001600160a01b03811681146100eb57600080fd5b9392505050565b610fc5806101016000396000f3fe608060405234801561001057600080fd5b50600436106100ea5760003560e01c806374d0a6761161008c578063de1eecc911610066578063de1eecc9146101cc578063ebd41426146101ef578063f2fde38b14610202578063ff0e57091461021557600080fd5b806374d0a676146101955780638d443ea1146101a85780638da5cb5b146101bb57600080fd5b8063202e078b116100c8578063202e078b146101545780632137f08914610167578063538e28d21461017a578063715018a61461018d57600080fd5b80630527497b146100ef578063108c8ae41461011f5780631986b30114610134575b600080fd5b600454610102906001600160a01b031681565b6040516001600160a01b0390911681526020015b60405180910390f35b61013261012d366004610ad7565b61022c565b005b610147610142366004610af9565b610331565b6040516101169190610b58565b610132610162366004610bbb565b6103d3565b610132610175366004610c2a565b6104e3565b610132610188366004610c5f565b610675565b61013261069f565b6101326101a3366004610c7a565b6106b3565b6101326101b6366004610ad7565b610808565b6000546001600160a01b0316610102565b6101df6101da366004610af9565b6108c0565b6040516101169493929190610cde565b6101326101fd366004610d12565b610976565b610132610210366004610c5f565b610a1c565b61021e60035481565b604051908152602001610116565b600082815260026020818152604080842085855260058101909252909220908101546001600160a01b031633146102995760405162461bcd60e51b815260206004820152600c60248201526b4e6f742061737369676e656560a01b60448201526064015b60405180910390fd5b6002810154600160a01b900460ff16156102e95760405162461bcd60e51b8152602060048201526011602482015270105b1c9958591e4818dbdb5c1b195d1959607a1b6044820152606401610290565b60028101805460ff60a01b1916600160a01b179055604051839085907ff9c405f91e34dcd1dc136cf6992ada4a8c24a2803e0fab7546364c64dac7ba2b90600090a350505050565b600081815260026020526040902080546060919061034e90610d6d565b80601f016020809104026020016040519081016040528092919081815260200182805461037a90610d6d565b80156103c75780601f1061039c576101008083540402835291602001916103c7565b820191906000526020600020905b8154815290600101906020018083116103aa57829003601f168201915b50505050509050919050565b6000848152600260209081526040808320338452600301909152902054849060ff166104365760405162461bcd60e51b81526020600482015260126024820152712737ba10309039b8bab0b21036b2b6b132b960711b6044820152606401610290565b6000858152600260205260408120600681018054919261045583610dbd565b90915550506006810154600090815260058201602052604090208061047b868883610e3d565b50600181018490556003810180546001600160a01b03191633179055600682015460405188907f1d13d921deea11ca326ca6cd0fd1cc3b2af6e44cdf037f6360f84878c5076198906104d2908a908a908a90610f27565b60405180910390a350505050505050565b6000838152600260209081526040808320338452600301909152902054839060ff166105465760405162461bcd60e51b81526020600482015260126024820152712737ba10309039b8bab0b21036b2b6b132b960711b6044820152606401610290565b60008481526002602090815260408083206001600160a01b0386168452600381019092529091205460ff166105b55760405162461bcd60e51b8152602060048201526015602482015274105cdcda59db9959481b9bdd081a5b881cdc5d5859605a1b6044820152606401610290565b6000841180156105c9575080600601548411155b6106075760405162461bcd60e51b815260206004820152600f60248201526e125b9d985b1a59081d185cdac81251608a1b6044820152606401610290565b600084815260058201602090815260409182902060020180546001600160a01b0319166001600160a01b0387169081179091559151918252859187917f07e41ee9abd3319781d1d6fc57943207e0c2772d75f2e6c7de920e108fd6c8f0910160405180910390a35050505050565b61067d610a5a565b600480546001600160a01b0319166001600160a01b0392909216919091179055565b6106a7610a5a565b6106b16000610a87565b565b6106bb610a5a565b6000821180156106cd57506003548211155b61070c5760405162461bcd60e51b815260206004820152601060248201526f125b9d985b1a59081cdc5d585908125160821b6044820152606401610290565b60008281526002602090815260408083206001600160a01b038516845260030190915290205460ff16156107755760405162461bcd60e51b815260206004820152601060248201526f20b63932b0b23c90309036b2b6b132b960811b6044820152606401610290565b60008281526002602081815260408084206001600160a01b038616808652600382018452828620805460ff19166001908117909155858552919094018054918201815585529382902090930180546001600160a01b03191683179055915190815283917ff328ac0f8bcae00933fe87ba0aa2d0d505c1df94bc9c1aa05b8441c28b74032c91015b60405180910390a25050565b6000546001600160a01b031633148061082b57506004546001600160a01b031633145b6108685760405162461bcd60e51b815260206004820152600e60248201526d139bdd08185d5d1a1bdc9a5e995960921b6044820152606401610290565b60008281526002602052604081206004018054839290610889908490610f4b565b909155505060405181815282907f871ed588425afa8e2438e966d1c8b18455f4ac5a6e6c72d7ed8b6ea6ebb0e829906020016107fc565b6002602052600090815260409020805481906108db90610d6d565b80601f016020809104026020016040519081016040528092919081815260200182805461090790610d6d565b80156109545780601f1061092957610100808354040283529160200191610954565b820191906000526020600020905b81548152906001019060200180831161093757829003601f168201915b5050505060018301546004840154600690940154929360ff9091169290915084565b61097e610a5a565b6003805490600061098e83610dbd565b90915550506003546000908152600260205260409020806109b0848683610e3d565b5060018082018054849260ff19909116908360038111156109d3576109d3610ca6565b02179055506003547fffc7187dce79227acf977eedb863f2e0d08e11db28bb6571bfbdec5e44340ecd858585604051610a0e93929190610f64565b60405180910390a250505050565b610a24610a5a565b6001600160a01b038116610a4e57604051631e4fbdf760e01b815260006004820152602401610290565b610a5781610a87565b50565b6000546001600160a01b031633146106b15760405163118cdaa760e01b8152336004820152602401610290565b600080546001600160a01b038381166001600160a01b0319831681178455604051919092169283917f8be0079c531659141344cd1fd0a4f28419497f9722a3daafe3b4186f6b6457e09190a35050565b60008060408385031215610aea57600080fd5b50508035926020909101359150565b600060208284031215610b0b57600080fd5b5035919050565b6000815180845260005b81811015610b3857602081850181015186830182015201610b1c565b506000602082860101526020601f19601f83011685010191505092915050565b602081526000610b6b6020830184610b12565b9392505050565b60008083601f840112610b8457600080fd5b50813567ffffffffffffffff811115610b9c57600080fd5b602083019150836020828501011115610bb457600080fd5b9250929050565b60008060008060608587031215610bd157600080fd5b84359350602085013567ffffffffffffffff811115610bef57600080fd5b610bfb87828801610b72565b9598909750949560400135949350505050565b80356001600160a01b0381168114610c2557600080fd5b919050565b600080600060608486031215610c3f57600080fd5b8335925060208401359150610c5660408501610c0e565b90509250925092565b600060208284031215610c7157600080fd5b610b6b82610c0e565b60008060408385031215610c8d57600080fd5b82359150610c9d60208401610c0e565b90509250929050565b634e487b7160e01b600052602160045260246000fd5b60048110610cda57634e487b7160e01b600052602160045260246000fd5b9052565b608081526000610cf16080830187610b12565b9050610d006020830186610cbc565b60408201939093526060015292915050565b600080600060408486031215610d2757600080fd5b833567ffffffffffffffff811115610d3e57600080fd5b610d4a86828701610b72565b909450925050602084013560048110610d6257600080fd5b809150509250925092565b600181811c90821680610d8157607f821691505b602082108103610da157634e487b7160e01b600052602260045260246000fd5b50919050565b634e487b7160e01b600052601160045260246000fd5b600060018201610dcf57610dcf610da7565b5060010190565b634e487b7160e01b600052604160045260246000fd5b601f821115610e38576000816000526020600020601f850160051c81016020861015610e155750805b601f850160051c820191505b81811015610e3457828155600101610e21565b5050505b505050565b67ffffffffffffffff831115610e5557610e55610dd6565b610e6983610e638354610d6d565b83610dec565b6000601f841160018114610e9d5760008515610e855750838201355b600019600387901b1c1916600186901b178355610ef7565b600083815260209020601f19861690835b82811015610ece5786850135825560209485019460019092019101610eae565b5086821015610eeb5760001960f88860031b161c19848701351681555b505060018560011b0183555b5050505050565b81835281816020850137506000828201602090810191909152601f909101601f19169091010190565b604081526000610f3b604083018587610efe565b9050826020830152949350505050565b80820180821115610f5e57610f5e610da7565b92915050565b604081526000610f78604083018587610efe565b9050610f876020830184610cbc565b94935050505056fea2646970667358221220db1afbe2b2618e9b38ff9acab4025cde4236ff20c8af72753da951a9d3b2063664736f6c63430008180033",
  "linkReferences": {},
  "deployedLinkReferences": {}
}