{
  "_format": "hh-sol-artifact-1",
  "contractName": "HubDAO",
  "sourceName": "contracts/HubDAO.sol",
  "abi": [
    {
      "inputs": [
        {
          "internalType": "address",
          "name": "_treasuryToken",
          "type": "address"
        },
        {
          "internalType": "address",
          "name": "_initialOwner",
          "type": "address"
        }
      ],
      "stateMutability": "nonpayable",
      "type": "constructor"
    },
    {
      "inputs": [
        {
          "internalType": "address",
          "name": "owner",
          "type": "address"
        }
      ],
      "name": "OwnableInvalidOwner",
      "type": "error"
    },
    {
      "inputs": [
        {
          "internalType": "address",
          "name": "account",
          "type": "address"
        }
      ],
      "name": "OwnableUnauthorizedAccount",
      "type": "error"
    },
    {
      "inputs": [],
      "name": "ReentrancyGuardReentrantCall",
      "type": "error"
    },
    {
      "anonymous": false,
      "inputs": [
        {
          "indexed": true,
          "internalType": "uint256",
          "name": "quarter",
          "type": "uint256"
        },
        {
          "indexed": false,
          "internalType": "uint256",
          "name": "amount",
          "type": "uint256"
        }
      ],
      "name": "BudgetApproved",
      "type": "event"
    },
    {
      "anonymous": false,
      "inputs": [
        {
          "indexed": true,
          "internalType": "uint256",
          "name": "quarter",
          "type": "uint256"
        },
        {
          "indexed": true,
          "internalType": "address",
          "name": "recipient",
          "type": "address"
        },
        {
          "indexed": false,
          "internalType": "uint256",
          "name": "amount",
          "type": "uint256"
        }
      ],
      "name": "BudgetExecuted",
      "type": "event"
    },
    {
      "anonymous": false,
      "inputs": [
        {
          "indexed": true,
          "internalType": "uint256",
          "name": "quarter",
          "type": "uint256"
        },
        {
          "indexed": false,
          "internalType": "uint256",
          "name": "amount",
          "type": "uint256"
        }
      ],
      "name": "BudgetProposed",
      "type": "event"
    },
    {
      "anonymous": false,
      "inputs": [
        {
          "indexed": true,
          "internalType": "uint256",
          "name": "quarter",
          "type": "uint256"
        },
        {
          "indexed": true,
          "internalType": "address",
          "name": "voter",
          "type": "address"
        },
        {
          "indexed": false,
          "internalType": "bool",
          "name": "support",
          "type": "bool"
        }
      ],
      "name": "BudgetVoted",
      "type": "event"
    },
    {
      "anonymous": false,
      "inputs": [
        {
          "indexed": true,
          "internalType": "address",
          "name": "previousOwner",
          "type": "address"
        },
        {
          "indexed": true,
          "internalType": "address",
          "name": "newOwner",
          "type": "address"
        }
      ],
      "name": "OwnershipTransferred",
      "type": "event"
    },
    {
      "anonymous": false,
      "inputs": [
        {
          "indexed": true,
          "internalType": "uint256",
          "name": "quarter",
          "type": "uint256"
        },
        {
          "indexed": true,
          "internalType": "address",
          "name": "vetoer",
          "type": "address"
        }
      ],
      "name": "VetoExecuted",
      "type": "event"
    },
    {
      "inputs": [],
      "name": "MIN_VOTING_THRESHOLD",
      "outputs": [
        {
          "internalType": "uint256",
          "name": "",
          "type": "uint256"
        }
      ],
      "stateMutability": "view",
      "type": "function"
    },
    {
      "inputs": [
        {
          "internalType": "uint256",
          "name": "squadId",
          "type": "uint256"
        },
        {
          "internalType": "uint256",
          "name": "amount",
          "type": "uint256"
        }
      ],
      "name": "allocateSquadBudget",
      "outputs": [],
      "stateMutability": "nonpayable",
      "type": "function"
    },
    {
      "inputs": [
        {
          "internalType": "uint256",
          "name": "quarter",
          "type": "uint256"
        }
      ],
      "name": "approveBudget",
      "outputs": [],
      "stateMutability": "nonpayable",
      "type": "function"
    },
    {
      "inputs": [],
      "name": "currentQuarter",
      "outputs": [
        {
          "internalType": "uint256",
          "name": "",
          "type": "uint256"
        }
      ],
      "stateMutability": "view",
      "type": "function"
    },
    {
      "inputs": [
        {
          "internalType": "uint256",
          "name": "quarter",
          "type": "uint256"
        },
        {
          "internalType": "address",
          "name": "recipient",
          "type": "address"
        },
        {
          "internalType": "uint256",
          "name": "amount",
          "type": "uint256"
        }
      ],
      "name": "executeBudget",
      "outputs": [],
      "stateMutability": "nonpayable",
      "type": "function"
    },
    {
      "inputs": [],
      "name": "getTreasuryBalance",
      "outputs": [
        {
          "internalType": "uint256",
          "name": "",
          "type": "uint256"
        }
      ],
      "stateMutability": "view",
      "type": "function"
    },
    {
      "inputs": [],
      "name": "owner",
      "outputs": [
        {
          "internalType": "address",
          "name": "",
          "type": "address"
        }
      ],
      "stateMutability": "view",
      "type": "function"
    },
    {
      "inputs": [
        {
          "internalType": "uint256",
          "name": "amount",
          "type": "uint256"
        }
      ],
      "name": "proposeBudget",
      "outputs": [],
      "stateMutability": "nonpayable",
      "type": "function"
    },
    {
      "inputs": [
        {
          "internalType": "uint256",
          "name": "",
          "type": "uint256"
        }
      ],
      "name": "quarterlyBudgets",
      "outputs": [
        {
          "internalType": "uint256",
          "name": "amount",
          "type": "uint256"
        },
        {
          "internalType": "uint256",
          "name": "startTime",
          "type": "uint256"
        },
        {
          "internalType": "uint256",
          "name": "endTime",
          "type": "uint256"
        },
        {
          "internalType": "bool",
          "name": "approved",
          "type": "bool"
        },
        {
          "internalType": "uint256",
          "name": "voteCount",
          "type": "uint256"
        }
      ],
      "stateMutability": "view",
      "type": "function"
    },
    {
      "inputs": [],
      "name": "renounceOwnership",
      "outputs": [],
      "stateMutability": "nonpayable",
      "type": "function"
    },
    {
      "inputs": [
        {
          "internalType": "address",
          "name": "_squadsContract",
          "type": "address"
        }
      ],
      "name": "setSquadsContract",
      "outputs": [],
      "stateMutability": "nonpayable",
      "type": "function"
    },
    {
      "inputs": [
        {
          "internalType": "address",
          "name": "holder",
          "type": "address"
        },
        {
          "internalType": "bool",
          "name": "hasPower",
          "type": "bool"
        }
      ],
      "name": "setVetoPower",
      "outputs": [],
      "stateMutability": "nonpayable",
      "type": "function"
    },
    {
      "inputs": [],
      "name": "squadsContract",
      "outputs": [
        {
          "internalType": "address",
          "name": "",
          "type": "address"
        }
      ],
      "stateMutability": "view",
      "type": "function"
    },
    {
      "inputs": [
        {
          "internalType": "address",
          "name": "newOwner",
          "type": "address"
        }
      ],
      "name": "transferOwnership",
      "outputs": [],
      "stateMutability": "nonpayable",
      "type": "function"
    },
    {
      "inputs": [],
      "name": "treasuryToken",
      "outputs": [
        {
          "internalType": "contract IERC20",
          "name": "",
          "type": "address"
        }
      ],
      "stateMutability": "view",
      "type": "function"
    },
    {
      "inputs": [
        {
          "internalType": "uint256",
          "name": "quarter",
          "type": "uint256"
        }
      ],
      "name": "vetoBudget",
      "outputs": [],
      "stateMutability": "nonpayable",
      "type": "function"
    },
    {
      "inputs": [
        {
          "internalType": "address",
          "name": "",
          "type": "address"
        }
      ],
      "name": "vetoPowerHolders",
      "outputs": [
        {
          "internalType": "bool",
          "name": "",
          "type": "bool"
        }
      ],
      "stateMutability": "view",
      "type": "function"
    },
    {
      "inputs": [
        {
          "internalType": "uint256",
          "name": "quarter",
          "type": "uint256"
        },
        {
          "internalType": "bool",
          "name": "support",
          "type": "bool"
        }
      ],
      "name": "voteOnBudget",
      "outputs": [],
      "stateMutability": "nonpayable",
      "type": "function"
    }
  ],
  "bytecode": "0x608060405234801561001057600080fd5b50604051610fab380380610fab83398101604081905261002f91610103565b806001600160a01b03811661005e57604051631e4fbdf760e01b81526000600482015260240160405180910390fd5b61006781610097565b505060018055600280546001600160a01b0319166001600160a01b03929092169190911790556000600555610136565b600080546001600160a01b038381166001600160a01b0319831681178455604051919092169283917f8be0079c531659141344cd1fd0a4f28419497f9722a3daafe3b4186f6b6457e09190a35050565b80516001600160a01b03811681146100fe57600080fd5b919050565b6000806040838503121561011657600080fd5b61011f836100e7565b915061012d602084016100e7565b90509250929050565b610e66806101456000396000f3fe608060405234801561001057600080fd5b50600436106101165760003560e01c80638da5cb5b116100a2578063b7e05ace11610071578063b7e05ace14610239578063d54923ed1461024c578063e15aacd21461025f578063e7f33bb6146102c9578063f2fde38b146102d257600080fd5b80638da5cb5b146101e657806397c59aa71461020b5780639b5655dc1461021e578063b2ce514b1461022657600080fd5b806352fd9c85116100e957806352fd9c85146101725780635ac78fe3146101855780636242d1bb1461019857806368b7c683146101ab578063715018a6146101de57600080fd5b8063131409771461011b5780631495a9db1461013757806347a9b8311461014c57806352a1b3961461015f575b600080fd5b61012460055481565b6040519081526020015b60405180910390f35b61014a610145366004610c78565b6102e5565b005b61014a61015a366004610cbb565b61042f565b61014a61016d366004610cf2565b610462565b61014a610180366004610d14565b61048c565b61014a610193366004610c78565b6106e3565b61014a6101a6366004610c78565b6107d0565b6101ce6101b9366004610cf2565b60066020526000908152604090205460ff1681565b604051901515815260200161012e565b61014a61085a565b6000546001600160a01b03165b6040516001600160a01b03909116815260200161012e565b61014a610219366004610d49565b61086e565b610124610990565b6002546101f3906001600160a01b031681565b6003546101f3906001600160a01b031681565b61014a61025a366004610d6e565b610a02565b61029f61026d366004610c78565b6004602052600090815260409020805460018201546002830154600384015460059094015492939192909160ff169085565b6040805195865260208601949094529284019190915215156060830152608082015260a00161012e565b61012461138881565b61014a6102e0366004610cf2565b610b93565b6000818152600460205260409020600381015460ff16156103405760405162461bcd60e51b815260206004820152601060248201526f105b1c9958591e48185c1c1c9bdd995960821b60448201526064015b60405180910390fd5b806002015442111561038a5760405162461bcd60e51b8152602060048201526013602482015272159bdd1a5b99c81c195c9a5bd908195b991959606a1b6044820152606401610337565b6103976064611388610da6565b816005015410156103df5760405162461bcd60e51b8152602060048201526012602482015271496e73756666696369656e7420766f74657360701b6044820152606401610337565b60038101805460ff19166001179055805460405183917fec0512968391c35579495aff653c08aeef4e904cf2c3132db897600a660fbc649161042391815260200190565b60405180910390a25050565b610437610bd1565b6001600160a01b03919091166000908152600660205260409020805460ff1916911515919091179055565b61046a610bd1565b600380546001600160a01b0319166001600160a01b0392909216919091179055565b610494610bd1565b61049c610bfe565b6000838152600460205260409020600381015460ff166104f45760405162461bcd60e51b8152602060048201526013602482015272109d5919d95d081b9bdd08185c1c1c9bdd9959606a1b6044820152606401610337565b80600101544210156105485760405162461bcd60e51b815260206004820152601960248201527f42756467657420706572696f64206e6f742073746172746564000000000000006044820152606401610337565b80600201544211156105925760405162461bcd60e51b8152602060048201526013602482015272109d5919d95d081c195c9a5bd908195b991959606a1b6044820152606401610337565b80548211156105db5760405162461bcd60e51b8152602060048201526015602482015274105b5bdd5b9d08195e18d959591cc8189d5919d95d605a1b6044820152606401610337565b60025460405163a9059cbb60e01b81526001600160a01b038581166004830152602482018590529091169063a9059cbb906044016020604051808303816000875af115801561062e573d6000803e3d6000fd5b505050506040513d601f19601f820116820180604052508101906106529190610dc8565b6106905760405162461bcd60e51b815260206004820152600f60248201526e151c985b9cd9995c8819985a5b1959608a1b6044820152606401610337565b826001600160a01b0316847f3956940bfa5bbd79742039f90631b7cb178db749d78823d1a02d2eb89a5749ee846040516106cc91815260200190565b60405180910390a3506106de60018055565b505050565b3360009081526006602052604090205460ff1661073b5760405162461bcd60e51b81526020600482015260166024820152754e6f7420617574686f72697a656420746f207665746f60501b6044820152606401610337565b6000818152600460205260409020600381015460ff166107935760405162461bcd60e51b8152602060048201526013602482015272109d5919d95d081b9bdd08185c1c1c9bdd9959606a1b6044820152606401610337565b60038101805460ff19169055604051339083907f8a83735a0c8ef69bbee8ed9c9721d442b12b4ae3c84ae4e131715d021bbbe06d90600090a35050565b6107d8610bd1565b600580549060006107e883610de5565b909155505060055460009081526004602052604090208181554260018201819055610816906276a700610dfe565b600282015560038101805460ff191690556005546040518381527fa37a3ba1c1ea5b97e00cfb0292e9898143760651a8c88468e80e8f9a2f89514f90602001610423565b610862610bd1565b61086c6000610c28565b565b600082815260046020526040902060028101544211156108c65760405162461bcd60e51b8152602060048201526013602482015272159bdd1a5b99c81c195c9a5bd908195b991959606a1b6044820152606401610337565b33600090815260048201602052604090205460ff16156109185760405162461bcd60e51b815260206004820152600d60248201526c105b1c9958591e481d9bdd1959609a1b6044820152606401610337565b3360009081526004820160205260409020805460ff1916600117905581156109525760058101805490600061094c83610de5565b91905055505b6040518215158152339084907f1a8f08a371d0efc0f335f0d3b64a1bd98338bc3f127d675b041bb3f0b6bcb94f9060200160405180910390a3505050565b6002546040516370a0823160e01b81523060048201526000916001600160a01b0316906370a0823190602401602060405180830381865afa1580156109d9573d6000803e3d6000fd5b505050506040513d601f19601f820116820180604052508101906109fd9190610e17565b905090565b610a0a610bd1565b610a12610bfe565b6003546001600160a01b0316610a6a5760405162461bcd60e51b815260206004820152601760248201527f53717561647320636f6e7472616374206e6f74207365740000000000000000006044820152606401610337565b60025460035460405163a9059cbb60e01b81526001600160a01b0391821660048201526024810184905291169063a9059cbb906044016020604051808303816000875af1158015610abf573d6000803e3d6000fd5b505050506040513d601f19601f82011682018060405250810190610ae39190610dc8565b610b215760405162461bcd60e51b815260206004820152600f60248201526e151c985b9cd9995c8819985a5b1959608a1b6044820152606401610337565b600354604051638d443ea160e01b815260048101849052602481018390526001600160a01b0390911690638d443ea190604401600060405180830381600087803b158015610b6e57600080fd5b505af1158015610b82573d6000803e3d6000fd5b50505050610b8f60018055565b5050565b610b9b610bd1565b6001600160a01b038116610bc557604051631e4fbdf760e01b815260006004820152602401610337565b610bce81610c28565b50565b6000546001600160a01b0316331461086c5760405163118cdaa760e01b8152336004820152602401610337565b600260015403610c2157604051633ee5aeb560e01b815260040160405180910390fd5b6002600155565b600080546001600160a01b038381166001600160a01b0319831681178455604051919092169283917f8be0079c531659141344cd1fd0a4f28419497f9722a3daafe3b4186f6b6457e09190a35050565b600060208284031215610c8a57600080fd5b5035919050565b80356001600160a01b0381168114610ca857600080fd5b919050565b8015158114610bce57600080fd5b60008060408385031215610cce57600080fd5b610cd783610c91565b91506020830135610ce781610cad565b809150509250929050565b600060208284031215610d0457600080fd5b610d0d82610c91565b9392505050565b600080600060608486031215610d2957600080fd5b83359250610d3960208501610c91565b9150604084013590509250925092565b60008060408385031215610d5c57600080fd5b823591506020830135610ce781610cad565b60008060408385031215610d8157600080fd5b50508035926020909101359150565b634e487b7160e01b600052601160045260246000fd5b600082610dc357634e487b7160e01b600052601260045260246000fd5b500490565b600060208284031215610dda57600080fd5b8151610d0d81610cad565b600060018201610df757610df7610d90565b5060010190565b80820180821115610e1157610e11610d90565b92915050565b600060208284031215610e2957600080fd5b505191905056fea26469706673582212205b2945f009fee13149a1e36808a9eea4146a9b61e42f9d8acc10ca9a13ff863564736f6c63430008180033",
  "linkReferences": {},
  "deployedLinkReferences": {}
}