{
  "_format": "hh-sol-artifact-1",
  "contractName": "HubDAO",
  "sourceName": "contracts/HubDAO.sol",
  "abi": [
    {
      "inputs": [
        {
          "internalType": "address",
          "name": "_treasuryToken",
          "type": "address"
        },
        {
          "internalType": "address",
          "name": "_initialOwner",
          "type": "address"
        }
      ],
      "stateMutability": "nonpayable",
      "type": "constructor"
    },
    {
      "inputs": [
        {
          "internalType": "address",
          "name": "owner",
          "type": "address"
        }
      ],
      "name": "OwnableInvalidOwner",
      "type": "error"
    },
    {
      "inputs": [
        {
          "internalType": "address",
          "name": "account",
          "type": "address"
        }
      ],
      "name": "OwnableUnauthorizedAccount",
      "type": "error"
    },
    {
      "inputs": [],
      "name": "ReentrancyGuardReentrantCall",
      "type": "error"
    },
    {
      "anonymous": false,
      "inputs": [
        {
          "indexed": true,
          "internalType": "uint256",
          "name": "quarter",
          "type": "uint256"
        },
        {
          "indexed": false,
          "internalType": "uint256",
          "name": "amount",
          "type": "uint256"
        }
      ],
      "name": "BudgetApproved",
      "type": "event"
    },
    {
      "anonymous": false,
      "inputs": [
        {
          "indexed": true,
          "internalType": "uint256",
          "name": "quarter",
          "type": "uint256"
        },
        {
          "indexed": true,
          "internalType": "address",
          "name": "recipient",
          "type": "address"
        },
        {
          "indexed": false,
          "internalType": "uint256",
          "name": "amount",
          "type": "uint256"
        }
      ],
      "name": "BudgetExecuted",
      "type": "event"
    },
    {
      "anonymous": false,
      "inputs": [
        {
          "indexed": true,
          "internalType": "uint256",
          "name": "quarter",
          "type": "uint256"
        },
        {
          "indexed": false,
          "internalType": "uint256",
          "name": "amount",
          "type": "uint256"
        }
      ],
      "name": "BudgetProposed",
      "type": "event"
    },
    {
      "anonymous": false,
      "inputs": [
        {
          "indexed": true,
          "internalType": "uint256",
          "name": "quarter",
          "type": "uint256"
        },
        {
          "indexed": true,
          "internalType": "address",
          "name": "voter",
          "type": "address"
        },
        {
          "indexed": false,
          "internalType": "bool",
          "name": "support",
          "type": "bool"
        }
      ],
      "name": "BudgetVoted",
      "type": "event"
    },
    {
      "anonymous": false,
      "inputs": [
        {
          "indexed": true,
          "internalType": "address",
          "name": "previousOwner",
          "type": "address"
        },
        {
          "indexed": true,
          "internalType": "address",
          "name": "newOwner",
          "type": "address"
        }
      ],
      "name": "OwnershipTransferred",
      "type": "event"
    },
    {
      "anonymous": false,
      "inputs": [
        {
          "indexed": true,
          "internalType": "uint256",
          "name": "quarter",
          "type": "uint256"
        },
        {
          "indexed": true,
          "internalType": "address",
          "name": "vetoer",
          "type": "address"
        }
      ],
      "name": "VetoExecuted",
      "type": "event"
    },
    {
      "inputs": [],
      "name": "MIN_VOTING_THRESHOLD",
      "outputs": [
        {
          "internalType": "uint256",
          "name": "",
          "type": "uint256"
        }
      ],
      "stateMutability": "view",
      "type": "function"
    },
    {
      "inputs": [
        {
          "internalType": "uint256",
          "name": "squadId",
          "type": "uint256"
        },
        {
          "internalType": "uint256",
          "name": "amount",
          "type": "uint256"
        }
      ],
      "name": "allocateSquadBudget",
      "outputs": [],
      "stateMutability": "nonpayable",
      "type": "function"
    },
    {
      "inputs": [
        {
          "internalType": "uint256",
          "name": "quarter",
          "type": "uint256"
        }
      ],
      "name": "approveBudget",
      "outputs": [],
      "stateMutability": "nonpayable",
      "type": "function"
    },
    {
      "inputs": [],
      "name": "buybackContract",
      "outputs": [
        {
          "internalType": "contract IBuyback",
          "name": "",
          "type": "address"
        }
      ],
      "stateMutability": "view",
      "type": "function"
    },
    {
      "inputs": [],
      "name": "currentQuarter",
      "outputs": [
        {
          "internalType": "uint256",
          "name": "",
          "type": "uint256"
        }
      ],
      "stateMutability": "view",
      "type": "function"
    },
    {
      "inputs": [
        {
          "internalType": "uint256",
          "name": "quarter",
          "type": "uint256"
        },
        {
          "internalType": "address",
          "name": "recipient",
          "type": "address"
        },
        {
          "internalType": "uint256",
          "name": "amount",
          "type": "uint256"
        }
      ],
      "name": "executeBudget",
      "outputs": [],
      "stateMutability": "nonpayable",
      "type": "function"
    },
    {
      "inputs": [],
      "name": "getTreasuryBalance",
      "outputs": [
        {
          "internalType": "uint256",
          "name": "",
          "type": "uint256"
        }
      ],
      "stateMutability": "view",
      "type": "function"
    },
    {
      "inputs": [
        {
          "internalType": "address",
          "name": "voter",
          "type": "address"
        }
      ],
      "name": "getVotingPower",
      "outputs": [
        {
          "internalType": "uint256",
          "name": "",
          "type": "uint256"
        }
      ],
      "stateMutability": "view",
      "type": "function"
    },
    {
      "inputs": [],
      "name": "owner",
      "outputs": [
        {
          "internalType": "address",
          "name": "",
          "type": "address"
        }
      ],
      "stateMutability": "view",
      "type": "function"
    },
    {
      "inputs": [
        {
          "internalType": "uint256",
          "name": "amount",
          "type": "uint256"
        }
      ],
      "name": "proposeBudget",
      "outputs": [],
      "stateMutability": "nonpayable",
      "type": "function"
    },
    {
      "inputs": [
        {
          "internalType": "uint256",
          "name": "",
          "type": "uint256"
        }
      ],
      "name": "quarterlyBudgets",
      "outputs": [
        {
          "internalType": "uint256",
          "name": "amount",
          "type": "uint256"
        },
        {
          "internalType": "uint256",
          "name": "startTime",
          "type": "uint256"
        },
        {
          "internalType": "uint256",
          "name": "endTime",
          "type": "uint256"
        },
        {
          "internalType": "bool",
          "name": "approved",
          "type": "bool"
        },
        {
          "internalType": "uint256",
          "name": "voteCount",
          "type": "uint256"
        }
      ],
      "stateMutability": "view",
      "type": "function"
    },
    {
      "inputs": [],
      "name": "renounceOwnership",
      "outputs": [],
      "stateMutability": "nonpayable",
      "type": "function"
    },
    {
      "inputs": [
        {
          "internalType": "address",
          "name": "_buybackContract",
          "type": "address"
        }
      ],
      "name": "setBuybackContract",
      "outputs": [],
      "stateMutability": "nonpayable",
      "type": "function"
    },
    {
      "inputs": [
        {
          "internalType": "address",
          "name": "_squadsContract",
          "type": "address"
        }
      ],
      "name": "setSquadsContract",
      "outputs": [],
      "stateMutability": "nonpayable",
      "type": "function"
    },
    {
      "inputs": [
        {
          "internalType": "address",
          "name": "_stakingContract",
          "type": "address"
        }
      ],
      "name": "setStakingContract",
      "outputs": [],
      "stateMutability": "nonpayable",
      "type": "function"
    },
    {
      "inputs": [
        {
          "internalType": "address",
          "name": "holder",
          "type": "address"
        },
        {
          "internalType": "bool",
          "name": "hasPower",
          "type": "bool"
        }
      ],
      "name": "setVetoPower",
      "outputs": [],
      "stateMutability": "nonpayable",
      "type": "function"
    },
    {
      "inputs": [],
      "name": "squadsContract",
      "outputs": [
        {
          "internalType": "address",
          "name": "",
          "type": "address"
        }
      ],
      "stateMutability": "view",
      "type": "function"
    },
    {
      "inputs": [],
      "name": "stakingContract",
      "outputs": [
        {
          "internalType": "contract IConsulStaking",
          "name": "",
          "type": "address"
        }
      ],
      "stateMutability": "view",
      "type": "function"
    },
    {
      "inputs": [
        {
          "internalType": "address",
          "name": "newOwner",
          "type": "address"
        }
      ],
      "name": "transferOwnership",
      "outputs": [],
      "stateMutability": "nonpayable",
      "type": "function"
    },
    {
      "inputs": [],
      "name": "treasuryToken",
      "outputs": [
        {
          "internalType": "contract IERC20",
          "name": "",
          "type": "address"
        }
      ],
      "stateMutability": "view",
      "type": "function"
    },
    {
      "inputs": [
        {
          "internalType": "uint256",
          "name": "usdcAmount",
          "type": "uint256"
        },
        {
          "internalType": "uint256",
          "name": "minConsulOut",
          "type": "uint256"
        }
      ],
      "name": "triggerBuyback",
      "outputs": [],
      "stateMutability": "nonpayable",
      "type": "function"
    },
    {
      "inputs": [
        {
          "internalType": "uint256",
          "name": "quarter",
          "type": "uint256"
        }
      ],
      "name": "vetoBudget",
      "outputs": [],
      "stateMutability": "nonpayable",
      "type": "function"
    },
    {
      "inputs": [
        {
          "internalType": "address",
          "name": "",
          "type": "address"
        }
      ],
      "name": "vetoPowerHolders",
      "outputs": [
        {
          "internalType": "bool",
          "name": "",
          "type": "bool"
        }
      ],
      "stateMutability": "view",
      "type": "function"
    },
    {
      "inputs": [
        {
          "internalType": "uint256",
          "name": "quarter",
          "type": "uint256"
        },
        {
          "internalType": "bool",
          "name": "support",
          "type": "bool"
        }
      ],
      "name": "voteOnBudget",
      "outputs": [],
      "stateMutability": "nonpayable",
      "type": "function"
    }
  ],
  "bytecode": "0x608060405234801561001057600080fd5b5060405161124f38038061124f83398101604081905261002f91610103565b806001600160a01b03811661005e57604051631e4fbdf760e01b81526000600482015260240160405180910390fd5b61006781610097565b505060018055600280546001600160a01b0319166001600160a01b03929092169190911790556000600755610136565b600080546001600160a01b038381166001600160a01b0319831681178455604051919092169283917f8be0079c531659141344cd1fd0a4f28419497f9722a3daafe3b4186f6b6457e09190a35050565b80516001600160a01b03811681146100fe57600080fd5b919050565b6000806040838503121561011657600080fd5b61011f836100e7565b915061012d602084016100e7565b90509250929050565b61110a806101456000396000f3fe608060405234801561001057600080fd5b50600436106101585760003560e01c80639a303684116100c3578063d3b320161161007c578063d3b32016146102de578063d54923ed146102f1578063e15aacd214610304578063e7f33bb61461036e578063ee99205c14610377578063f2fde38b1461038a57600080fd5b80639a303684146102775780639b5655dc1461028a5780639dd373b914610292578063b2ce514b146102a5578063b7e05ace146102b8578063bb4d4436146102cb57600080fd5b80636242d1bb116101155780636242d1bb146101da57806368b7c683146101ed578063715018a6146102205780638542b336146102285780638da5cb5b1461025357806397c59aa71461026457600080fd5b8063131409771461015d5780631495a9db1461017957806347a9b8311461018e57806352a1b396146101a157806352fd9c85146101b45780635ac78fe3146101c7575b600080fd5b61016660075481565b6040519081526020015b60405180910390f35b61018c610187366004610ef9565b61039d565b005b61018c61019c366004610f3c565b6104e7565b61018c6101af366004610f73565b61051a565b61018c6101c2366004610f95565b610544565b61018c6101d5366004610ef9565b610779565b61018c6101e8366004610ef9565b610866565b6102106101fb366004610f73565b60086020526000908152604090205460ff1681565b6040519015158152602001610170565b61018c6108f0565b60055461023b906001600160a01b031681565b6040516001600160a01b039091168152602001610170565b6000546001600160a01b031661023b565b61018c610272366004610fca565b610904565b61018c610285366004610f73565b610a26565b610166610a50565b61018c6102a0366004610f73565b610ac2565b60025461023b906001600160a01b031681565b60035461023b906001600160a01b031681565b6101666102d9366004610f73565b610aec565b61018c6102ec366004610fef565b610b7d565b61018c6102ff366004610fef565b610cdf565b610344610312366004610ef9565b6006602052600090815260409020805460018201546002830154600384015460059094015492939192909160ff169085565b6040805195865260208601949094529284019190915215156060830152608082015260a001610170565b61016661138881565b60045461023b906001600160a01b031681565b61018c610398366004610f73565b610e14565b6000818152600660205260409020600381015460ff16156103f85760405162461bcd60e51b815260206004820152601060248201526f105b1c9958591e48185c1c1c9bdd995960821b60448201526064015b60405180910390fd5b80600201544211156104425760405162461bcd60e51b8152602060048201526013602482015272159bdd1a5b99c81c195c9a5bd908195b991959606a1b60448201526064016103ef565b61044f6064611388611027565b816005015410156104975760405162461bcd60e51b8152602060048201526012602482015271496e73756666696369656e7420766f74657360701b60448201526064016103ef565b60038101805460ff19166001179055805460405183917fec0512968391c35579495aff653c08aeef4e904cf2c3132db897600a660fbc64916104db91815260200190565b60405180910390a25050565b6104ef610e52565b6001600160a01b03919091166000908152600860205260409020805460ff1916911515919091179055565b610522610e52565b600380546001600160a01b0319166001600160a01b0392909216919091179055565b61054c610e52565b610554610e7f565b6000838152600660205260409020600381015460ff166105ac5760405162461bcd60e51b8152602060048201526013602482015272109d5919d95d081b9bdd08185c1c1c9bdd9959606a1b60448201526064016103ef565b80600101544210156106005760405162461bcd60e51b815260206004820152601960248201527f42756467657420706572696f64206e6f7420737461727465640000000000000060448201526064016103ef565b806002015442111561064a5760405162461bcd60e51b8152602060048201526013602482015272109d5919d95d081c195c9a5bd908195b991959606a1b60448201526064016103ef565b80548211156106935760405162461bcd60e51b8152602060048201526015602482015274105b5bdd5b9d08195e18d959591cc8189d5919d95d605a1b60448201526064016103ef565b60025460405163a9059cbb60e01b81526001600160a01b038581166004830152602482018590529091169063a9059cbb906044016020604051808303816000875af11580156106e6573d6000803e3d6000fd5b505050506040513d601f19601f8201168201806040525081019061070a9190611049565b6107265760405162461bcd60e51b81526004016103ef90611066565b826001600160a01b0316847f3956940bfa5bbd79742039f90631b7cb178db749d78823d1a02d2eb89a5749ee8460405161076291815260200190565b60405180910390a35061077460018055565b505050565b3360009081526008602052604090205460ff166107d15760405162461bcd60e51b81526020600482015260166024820152754e6f7420617574686f72697a656420746f207665746f60501b60448201526064016103ef565b6000818152600660205260409020600381015460ff166108295760405162461bcd60e51b8152602060048201526013602482015272109d5919d95d081b9bdd08185c1c1c9bdd9959606a1b60448201526064016103ef565b60038101805460ff19169055604051339083907f8a83735a0c8ef69bbee8ed9c9721d442b12b4ae3c84ae4e131715d021bbbe06d90600090a35050565b61086e610e52565b6007805490600061087e8361108f565b9091555050600754600090815260066020526040902081815542600182018190556108ac906276a7006110a8565b600282015560038101805460ff191690556007546040518381527fa37a3ba1c1ea5b97e00cfb0292e9898143760651a8c88468e80e8f9a2f89514f906020016104db565b6108f8610e52565b6109026000610ea9565b565b6000828152600660205260409020600281015442111561095c5760405162461bcd60e51b8152602060048201526013602482015272159bdd1a5b99c81c195c9a5bd908195b991959606a1b60448201526064016103ef565b33600090815260048201602052604090205460ff16156109ae5760405162461bcd60e51b815260206004820152600d60248201526c105b1c9958591e481d9bdd1959609a1b60448201526064016103ef565b3360009081526004820160205260409020805460ff1916600117905581156109e8576005810180549060006109e28361108f565b91905055505b6040518215158152339084907f1a8f08a371d0efc0f335f0d3b64a1bd98338bc3f127d675b041bb3f0b6bcb94f9060200160405180910390a3505050565b610a2e610e52565b600580546001600160a01b0319166001600160a01b0392909216919091179055565b6002546040516370a0823160e01b81523060048201526000916001600160a01b0316906370a0823190602401602060405180830381865afa158015610a99573d6000803e3d6000fd5b505050506040513d601f19601f82011682018060405250810190610abd91906110bb565b905090565b610aca610e52565b600480546001600160a01b0319166001600160a01b0392909216919091179055565b6004546000906001600160a01b0316610b0757506000919050565b60048054604051635da6a21b60e11b81526001600160a01b038581169382019390935291169063bb4d443690602401602060405180830381865afa158015610b53573d6000803e3d6000fd5b505050506040513d601f19601f82011682018060405250810190610b7791906110bb565b92915050565b610b85610e52565b610b8d610e7f565b6005546001600160a01b0316610bd75760405162461bcd60e51b815260206004820152600f60248201526e109d5e589858dac81b9bdd081cd95d608a1b60448201526064016103ef565b60025460055460405163a9059cbb60e01b81526001600160a01b0391821660048201526024810185905291169063a9059cbb906044016020604051808303816000875af1158015610c2c573d6000803e3d6000fd5b505050506040513d601f19601f82011682018060405250810190610c509190611049565b610c6c5760405162461bcd60e51b81526004016103ef90611066565b6005546040516397975c7560e01b815260048101849052602481018390526001600160a01b03909116906397975c75906044015b600060405180830381600087803b158015610cba57600080fd5b505af1158015610cce573d6000803e3d6000fd5b50505050610cdb60018055565b5050565b610ce7610e52565b610cef610e7f565b6003546001600160a01b0316610d475760405162461bcd60e51b815260206004820152601760248201527f53717561647320636f6e7472616374206e6f742073657400000000000000000060448201526064016103ef565b60025460035460405163a9059cbb60e01b81526001600160a01b0391821660048201526024810184905291169063a9059cbb906044016020604051808303816000875af1158015610d9c573d6000803e3d6000fd5b505050506040513d601f19601f82011682018060405250810190610dc09190611049565b610ddc5760405162461bcd60e51b81526004016103ef90611066565b600354604051638d443ea160e01b815260048101849052602481018390526001600160a01b0390911690638d443ea190604401610ca0565b610e1c610e52565b6001600160a01b038116610e4657604051631e4fbdf760e01b8152600060048201526024016103ef565b610e4f81610ea9565b50565b6000546001600160a01b031633146109025760405163118cdaa760e01b81523360048201526024016103ef565b600260015403610ea257604051633ee5aeb560e01b815260040160405180910390fd5b6002600155565b600080546001600160a01b038381166001600160a01b0319831681178455604051919092169283917f8be0079c531659141344cd1fd0a4f28419497f9722a3daafe3b4186f6b6457e09190a35050565b600060208284031215610f0b57600080fd5b5035919050565b80356001600160a01b0381168114610f2957600080fd5b919050565b8015158114610e4f57600080fd5b60008060408385031215610f4f57600080fd5b610f5883610f12565b91506020830135610f6881610f2e565b809150509250929050565b600060208284031215610f8557600080fd5b610f8e82610f12565b9392505050565b600080600060608486031215610faa57600080fd5b83359250610fba60208501610f12565b9150604084013590509250925092565b60008060408385031215610fdd57600080fd5b823591506020830135610f6881610f2e565b6000806040838503121561100257600080fd5b50508035926020909101359150565b634e487b7160e01b600052601160045260246000fd5b60008261104457634e487b7160e01b600052601260045260246000fd5b500490565b60006020828403121561105b57600080fd5b8151610f8e81610f2e565b6020808252600f908201526e151c985b9cd9995c8819985a5b1959608a1b604082015260600190565b6000600182016110a1576110a1611011565b5060010190565b80820180821115610b7757610b77611011565b6000602082840312156110cd57600080fd5b505191905056fea2646970667358221220667d11bdd324ef0844d392883c23d2983f67d9748b5285e8a8d5cb7cee85ddf664736f6c63430008180033",
  "linkReferences": {},
  "deployedLinkReferences": {}
}