{
  "_format": "hh-sol-artifact-1",
  "contractName": "HubDAO",
  "sourceName": "contracts/HubDAO.sol",
  "abi": [
    {
      "inputs": [
        {
          "internalType": "address",
          "name": "_treasuryToken",
          "type": "address"
        },
        {
          "internalType": "address",
          "name": "_initialOwner",
          "type": "address"
        }
      ],
      "stateMutability": "nonpayable",
      "type": "constructor"
    },
    {
      "inputs": [
        {
          "internalType": "address",
          "name": "owner",
          "type": "address"
        }
      ],
      "name": "OwnableInvalidOwner",
      "type": "error"
    },
    {
      "inputs": [
        {
          "internalType": "address",
          "name": "account",
          "type": "address"
        }
      ],
      "name": "OwnableUnauthorizedAccount",
      "type": "error"
    },
    {
      "inputs": [],
      "name": "ReentrancyGuardReentrantCall",
      "type": "error"
    },
    {
      "anonymous": false,
      "inputs": [
        {
          "indexed": true,
          "internalType": "uint256",
          "name": "quarter",
          "type": "uint256"
        },
        {
          "indexed": false,
          "internalType": "uint256",
          "name": "amount",
          "type": "uint256"
        }
      ],
      "name": "BudgetApproved",
      "type": "event"
    },
    {
      "anonymous": false,
      "inputs": [
        {
          "indexed": true,
          "internalType": "uint256",
          "name": "quarter",
          "type": "uint256"
        },
        {
          "indexed": true,
          "internalType": "address",
          "name": "recipient",
          "type": "address"
        },
        {
          "indexed": false,
          "internalType": "uint256",
          "name": "amount",
          "type": "uint256"
        }
      ],
      "name": "BudgetExecuted",
      "type": "event"
    },
    {
      "anonymous": false,
      "inputs": [
        {
          "indexed": true,
          "internalType": "uint256",
          "name": "quarter",
          "type": "uint256"
        },
        {
          "indexed": false,
          "internalType": "uint256",
          "name": "amount",
          "type": "uint256"
        }
      ],
      "name": "BudgetProposed",
      "type": "event"
    },
    {
      "anonymous": false,
      "inputs": [
        {
          "indexed": true,
          "internalType": "uint256",
          "name": "quarter",
          "type": "uint256"
        },
        {
          "indexed": true,
          "internalType": "address",
          "name": "voter",
          "type": "address"
        },
        {
          "indexed": false,
          "internalType": "bool",
          "name": "support",
          "type": "bool"
        }
      ],
      "name": "BudgetVoted",
      "type": "event"
    },
    {
      "anonymous": false,
      "inputs": [
        {
          "indexed": true,
          "internalType": "address",
          "name": "previousOwner",
          "type": "address"
        },
        {
          "indexed": true,
          "internalType": "address",
          "name": "newOwner",
          "type": "address"
        }
      ],
      "name": "OwnershipTransferred",
      "type": "event"
    },
    {
      "anonymous": false,
      "inputs": [
        {
          "indexed": true,
          "internalType": "uint256",
          "name": "quarter",
          "type": "uint256"
        },
        {
          "indexed": true,
          "internalType": "address",
          "name": "vetoer",
          "type": "address"
        }
      ],
      "name": "VetoExecuted",
      "type": "event"
    },
    {
      "inputs": [],
      "name": "MIN_VOTING_THRESHOLD",
      "outputs": [
        {
          "internalType": "uint256",
          "name": "",
          "type": "uint256"
        }
      ],
      "stateMutability": "view",
      "type": "function"
    },
    {
      "inputs": [
        {
          "internalType": "uint256",
          "name": "quarter",
          "type": "uint256"
        }
      ],
      "name": "approveBudget",
      "outputs": [],
      "stateMutability": "nonpayable",
      "type": "function"
    },
    {
      "inputs": [],
      "name": "currentQuarter",
      "outputs": [
        {
          "internalType": "uint256",
          "name": "",
          "type": "uint256"
        }
      ],
      "stateMutability": "view",
      "type": "function"
    },
    {
      "inputs": [
        {
          "internalType": "uint256",
          "name": "quarter",
          "type": "uint256"
        },
        {
          "internalType": "address",
          "name": "recipient",
          "type": "address"
        },
        {
          "internalType": "uint256",
          "name": "amount",
          "type": "uint256"
        }
      ],
      "name": "executeBudget",
      "outputs": [],
      "stateMutability": "nonpayable",
      "type": "function"
    },
    {
      "inputs": [],
      "name": "getTreasuryBalance",
      "outputs": [
        {
          "internalType": "uint256",
          "name": "",
          "type": "uint256"
        }
      ],
      "stateMutability": "view",
      "type": "function"
    },
    {
      "inputs": [],
      "name": "owner",
      "outputs": [
        {
          "internalType": "address",
          "name": "",
          "type": "address"
        }
      ],
      "stateMutability": "view",
      "type": "function"
    },
    {
      "inputs": [
        {
          "internalType": "uint256",
          "name": "amount",
          "type": "uint256"
        }
      ],
      "name": "proposeBudget",
      "outputs": [],
      "stateMutability": "nonpayable",
      "type": "function"
    },
    {
      "inputs": [
        {
          "internalType": "uint256",
          "name": "",
          "type": "uint256"
        }
      ],
      "name": "quarterlyBudgets",
      "outputs": [
        {
          "internalType": "uint256",
          "name": "amount",
          "type": "uint256"
        },
        {
          "internalType": "uint256",
          "name": "startTime",
          "type": "uint256"
        },
        {
          "internalType": "uint256",
          "name": "endTime",
          "type": "uint256"
        },
        {
          "internalType": "bool",
          "name": "approved",
          "type": "bool"
        },
        {
          "internalType": "uint256",
          "name": "voteCount",
          "type": "uint256"
        }
      ],
      "stateMutability": "view",
      "type": "function"
    },
    {
      "inputs": [],
      "name": "renounceOwnership",
      "outputs": [],
      "stateMutability": "nonpayable",
      "type": "function"
    },
    {
      "inputs": [
        {
          "internalType": "address",
          "name": "holder",
          "type": "address"
        },
        {
          "internalType": "bool",
          "name": "hasPower",
          "type": "bool"
        }
      ],
      "name": "setVetoPower",
      "outputs": [],
      "stateMutability": "nonpayable",
      "type": "function"
    },
    {
      "inputs": [
        {
          "internalType": "address",
          "name": "newOwner",
          "type": "address"
        }
      ],
      "name": "transferOwnership",
      "outputs": [],
      "stateMutability": "nonpayable",
      "type": "function"
    },
    {
      "inputs": [],
      "name": "treasuryToken",
      "outputs": [
        {
          "internalType": "contract IERC20",
          "name": "",
          "type": "address"
        }
      ],
      "stateMutability": "view",
      "type": "function"
    },
    {
      "inputs": [
        {
          "internalType": "uint256",
          "name": "quarter",
          "type": "uint256"
        }
      ],
      "name": "vetoBudget",
      "outputs": [],
      "stateMutability": "nonpayable",
      "type": "function"
    },
    {
      "inputs": [
        {
          "internalType": "address",
          "name": "",
          "type": "address"
        }
      ],
      "name": "vetoPowerHolders",
      "outputs": [
        {
          "internalType": "bool",
          "name": "",
          "type": "bool"
        }
      ],
      "stateMutability": "view",
      "type": "function"
    },
    {
      "inputs": [
        {
          "internalType": "uint256",
          "name": "quarter",
          "type": "uint256"
        },
        {
          "internalType": "bool",
          "name": "support",
          "type": "bool"
        }
      ],
      "name": "voteOnBudget",
      "outputs": [],
      "stateMutability": "nonpayable",
      "type": "function"
    }
  ],
  "bytecode": "0x608060405234801561001057600080fd5b50604051610d7e380380610d7e83398101604081905261002f91610103565b806001600160a01b03811661005e57604051631e4fbdf760e01b81526000600482015260240160405180910390fd5b61006781610097565b505060018055600280546001600160a01b0319166001600160a01b03929092169190911790556000600455610136565b600080546001600160a01b038381166001600160a01b0319831681178455604051919092169283917f8be0079c531659141344cd1fd0a4f28419497f9722a3daafe3b4186f6b6457e09190a35050565b80516001600160a01b03811681146100fe57600080fd5b919050565b6000806040838503121561011657600080fd5b61011f836100e7565b915061012d602084016100e7565b90509250929050565b610c39806101456000396000f3fe608060405234801561001057600080fd5b50600436106100f55760003560e01c8063715018a611610097578063b2ce514b11610066578063b2ce514b146101f2578063e15aacd214610205578063e7f33bb614610273578063f2fde38b1461027c57600080fd5b8063715018a6146101aa5780638da5cb5b146101b257806397c59aa7146101d75780639b5655dc146101ea57600080fd5b806352fd9c85116100d357806352fd9c851461013e5780635ac78fe3146101515780636242d1bb1461016457806368b7c6831461017757600080fd5b806313140977146100fa5780631495a9db1461011657806347a9b8311461012b575b600080fd5b61010360045481565b6040519081526020015b60405180910390f35b610129610124366004610a6d565b61028f565b005b610129610139366004610ab0565b6103db565b61012961014c366004610ae7565b61040e565b61012961015f366004610a6d565b610667565b610129610172366004610a6d565b610756565b61019a610185366004610b1c565b60056020526000908152604090205460ff1681565b604051901515815260200161010d565b6101296107e0565b6000546001600160a01b03165b6040516001600160a01b03909116815260200161010d565b6101296101e5366004610b3e565b6107f4565b610103610916565b6002546101bf906001600160a01b031681565b610249610213366004610a6d565b60036020819052600091825260409091208054600182015460028301549383015460059093015491939092909160ff9091169085565b6040805195865260208601949094529284019190915215156060830152608082015260a00161010d565b61010361138881565b61012961028a366004610b1c565b610988565b60008181526003602081905260409091209081015460ff16156102ec5760405162461bcd60e51b815260206004820152601060248201526f105b1c9958591e48185c1c1c9bdd995960821b60448201526064015b60405180910390fd5b80600201544211156103365760405162461bcd60e51b8152602060048201526013602482015272159bdd1a5b99c81c195c9a5bd908195b991959606a1b60448201526064016102e3565b6103436064611388610b79565b8160050154101561038b5760405162461bcd60e51b8152602060048201526012602482015271496e73756666696369656e7420766f74657360701b60448201526064016102e3565b60038101805460ff19166001179055805460405183917fec0512968391c35579495aff653c08aeef4e904cf2c3132db897600a660fbc64916103cf91815260200190565b60405180910390a25050565b6103e36109c6565b6001600160a01b03919091166000908152600560205260409020805460ff1916911515919091179055565b6104166109c6565b61041e6109f3565b60008381526003602081905260409091209081015460ff166104785760405162461bcd60e51b8152602060048201526013602482015272109d5919d95d081b9bdd08185c1c1c9bdd9959606a1b60448201526064016102e3565b80600101544210156104cc5760405162461bcd60e51b815260206004820152601960248201527f42756467657420706572696f64206e6f7420737461727465640000000000000060448201526064016102e3565b80600201544211156105165760405162461bcd60e51b8152602060048201526013602482015272109d5919d95d081c195c9a5bd908195b991959606a1b60448201526064016102e3565b805482111561055f5760405162461bcd60e51b8152602060048201526015602482015274105b5bdd5b9d08195e18d959591cc8189d5919d95d605a1b60448201526064016102e3565b60025460405163a9059cbb60e01b81526001600160a01b038581166004830152602482018590529091169063a9059cbb906044016020604051808303816000875af11580156105b2573d6000803e3d6000fd5b505050506040513d601f19601f820116820180604052508101906105d69190610b9b565b6106145760405162461bcd60e51b815260206004820152600f60248201526e151c985b9cd9995c8819985a5b1959608a1b60448201526064016102e3565b826001600160a01b0316847f3956940bfa5bbd79742039f90631b7cb178db749d78823d1a02d2eb89a5749ee8460405161065091815260200190565b60405180910390a35061066260018055565b505050565b3360009081526005602052604090205460ff166106bf5760405162461bcd60e51b81526020600482015260166024820152754e6f7420617574686f72697a656420746f207665746f60501b60448201526064016102e3565b60008181526003602081905260409091209081015460ff166107195760405162461bcd60e51b8152602060048201526013602482015272109d5919d95d081b9bdd08185c1c1c9bdd9959606a1b60448201526064016102e3565b60038101805460ff19169055604051339083907f8a83735a0c8ef69bbee8ed9c9721d442b12b4ae3c84ae4e131715d021bbbe06d90600090a35050565b61075e6109c6565b6004805490600061076e83610bb8565b90915550506004546000908152600360205260409020818155426001820181905561079c906276a700610bd1565b600282015560038101805460ff191690556004546040518381527fa37a3ba1c1ea5b97e00cfb0292e9898143760651a8c88468e80e8f9a2f89514f906020016103cf565b6107e86109c6565b6107f26000610a1d565b565b6000828152600360205260409020600281015442111561084c5760405162461bcd60e51b8152602060048201526013602482015272159bdd1a5b99c81c195c9a5bd908195b991959606a1b60448201526064016102e3565b33600090815260048201602052604090205460ff161561089e5760405162461bcd60e51b815260206004820152600d60248201526c105b1c9958591e481d9bdd1959609a1b60448201526064016102e3565b3360009081526004820160205260409020805460ff1916600117905581156108d8576005810180549060006108d283610bb8565b91905055505b6040518215158152339084907f1a8f08a371d0efc0f335f0d3b64a1bd98338bc3f127d675b041bb3f0b6bcb94f9060200160405180910390a3505050565b6002546040516370a0823160e01b81523060048201526000916001600160a01b0316906370a0823190602401602060405180830381865afa15801561095f573d6000803e3d6000fd5b505050506040513d601f19601f820116820180604052508101906109839190610bea565b905090565b6109906109c6565b6001600160a01b0381166109ba57604051631e4fbdf760e01b8152600060048201526024016102e3565b6109c381610a1d565b50565b6000546001600160a01b031633146107f25760405163118cdaa760e01b81523360048201526024016102e3565b600260015403610a1657604051633ee5aeb560e01b815260040160405180910390fd5b6002600155565b600080546001600160a01b038381166001600160a01b0319831681178455604051919092169283917f8be0079c531659141344cd1fd0a4f28419497f9722a3daafe3b4186f6b6457e09190a35050565b600060208284031215610a7f57600080fd5b5035919050565b80356001600160a01b0381168114610a9d57600080fd5b919050565b80151581146109c357600080fd5b60008060408385031215610ac357600080fd5b610acc83610a86565b91506020830135610adc81610aa2565b809150509250929050565b600080600060608486031215610afc57600080fd5b83359250610b0c60208501610a86565b9150604084013590509250925092565b600060208284031215610b2e57600080fd5b610b3782610a86565b9392505050565b60008060408385031215610b5157600080fd5b823591506020830135610adc81610aa2565b634e487b7160e01b600052601160045260246000fd5b600082610b9657634e487b7160e01b600052601260045260246000fd5b500490565b600060208284031215610bad57600080fd5b8151610b3781610aa2565b600060018201610bca57610bca610b63565b5060010190565b80820180821115610be457610be4610b63565b92915050565b600060208284031215610bfc57600080fd5b505191905056fea26469706673582212200c6cf2a7647006af4fc9d5a0bb42b18f28769b6990c3a493af7bf1b948ecbf9664736f6c63430008180033",
  "linkReferences": {},
  "deployedLinkReferences": {}
}