{
  "_format": "hh-sol-artifact-1",
  "contractName": "ConsulToken",
  "sourceName": "contracts/ConsulToken.sol",
  "abi": [
    {
      "inputs": [
        {
          "internalType": "address",
          "name": "_initialOwner",
          "type": "address"
        }
      ],
      "stateMutability": "nonpayable",
      "type": "constructor"
    },
    {
      "inputs": [],
      "name": "CheckpointUnorderedInsertion",
      "type": "error"
    },
    {
      "inputs": [],
      "name": "ECDSAInvalidSignature",
      "type": "error"
    },
    {
      "inputs": [
        {
          "internalType": "uint256",
          "name": "length",
          "type": "uint256"
        }
      ],
      "name": "ECDSAInvalidSignatureLength",
      "type": "error"
    },
    {
      "inputs": [
        {
          "internalType": "bytes32",
          "name": "s",
          "type": "bytes32"
        }
      ],
      "name": "ECDSAInvalidSignatureS",
      "type": "error"
    },
    {
      "inputs": [
        {
          "internalType": "uint256",
          "name": "increasedSupply",
          "type": "uint256"
        },
        {
          "internalType": "uint256",
          "name": "cap",
          "type": "uint256"
        }
      ],
      "name": "ERC20ExceededSafeSupply",
      "type": "error"
    },
    {
      "inputs": [
        {
          "internalType": "address",
          "name": "spender",
          "type": "address"
        },
        {
          "internalType": "uint256",
          "name": "allowance",
          "type": "uint256"
        },
        {
          "internalType": "uint256",
          "name": "needed",
          "type": "uint256"
        }
      ],
      "name": "ERC20InsufficientAllowance",
      "type": "error"
    },
    {
      "inputs": [
        {
          "internalType": "address",
          "name": "sender",
          "type": "address"
        },
        {
          "internalType": "uint256",
          "name": "balance",
          "type": "uint256"
        },
        {
          "internalType": "uint256",
          "name": "needed",
          "type": "uint256"
        }
      ],
      "name": "ERC20InsufficientBalance",
      "type": "error"
    },
    {
      "inputs": [
        {
          "internalType": "address",
          "name": "approver",
          "type": "address"
        }
      ],
      "name": "ERC20InvalidApprover",
      "type": "error"
    },
    {
      "inputs": [
        {
          "internalType": "address",
          "name": "receiver",
          "type": "address"
        }
      ],
      "name": "ERC20InvalidReceiver",
      "type": "error"
    },
    {
      "inputs": [
        {
          "internalType": "address",
          "name": "sender",
          "type": "address"
        }
      ],
      "name": "ERC20InvalidSender",
      "type": "error"
    },
    {
      "inputs": [
        {
          "internalType": "address",
          "name": "spender",
          "type": "address"
        }
      ],
      "name": "ERC20InvalidSpender",
      "type": "error"
    },
    {
      "inputs": [
        {
          "internalType": "uint256",
          "name": "deadline",
          "type": "uint256"
        }
      ],
      "name": "ERC2612ExpiredSignature",
      "type": "error"
    },
    {
      "inputs": [
        {
          "internalType": "address",
          "name": "signer",
          "type": "address"
        },
        {
          "internalType": "address",
          "name": "owner",
          "type": "address"
        }
      ],
      "name": "ERC2612InvalidSigner",
      "type": "error"
    },
    {
      "inputs": [
        {
          "internalType": "uint256",
          "name": "timepoint",
          "type": "uint256"
        },
        {
          "internalType": "uint48",
          "name": "clock",
          "type": "uint48"
        }
      ],
      "name": "ERC5805FutureLookup",
      "type": "error"
    },
    {
      "inputs": [],
      "name": "ERC6372InconsistentClock",
      "type": "error"
    },
    {
      "inputs": [],
      "name": "InitialMintAlreadyDone",
      "type": "error"
    },
    {
      "inputs": [
        {
          "internalType": "address",
          "name": "account",
          "type": "address"
        },
        {
          "internalType": "uint256",
          "name": "currentNonce",
          "type": "uint256"
        }
      ],
      "name": "InvalidAccountNonce",
      "type": "error"
    },
    {
      "inputs": [],
      "name": "InvalidShortString",
      "type": "error"
    },
    {
      "inputs": [
        {
          "internalType": "uint256",
          "name": "requested",
          "type": "uint256"
        },
        {
          "internalType": "uint256",
          "name": "available",
          "type": "uint256"
        }
      ],
      "name": "MaxSupplyExceeded",
      "type": "error"
    },
    {
      "inputs": [
        {
          "internalType": "address",
          "name": "owner",
          "type": "address"
        }
      ],
      "name": "OwnableInvalidOwner",
      "type": "error"
    },
    {
      "inputs": [
        {
          "internalType": "address",
          "name": "account",
          "type": "address"
        }
      ],
      "name": "OwnableUnauthorizedAccount",
      "type": "error"
    },
    {
      "inputs": [
        {
          "internalType": "uint8",
          "name": "bits",
          "type": "uint8"
        },
        {
          "internalType": "uint256",
          "name": "value",
          "type": "uint256"
        }
      ],
      "name": "SafeCastOverflowedUintDowncast",
      "type": "error"
    },
    {
      "inputs": [
        {
          "internalType": "string",
          "name": "str",
          "type": "string"
        }
      ],
      "name": "StringTooLong",
      "type": "error"
    },
    {
      "inputs": [
        {
          "internalType": "uint256",
          "name": "expiry",
          "type": "uint256"
        }
      ],
      "name": "VotesExpiredSignature",
      "type": "error"
    },
    {
      "anonymous": false,
      "inputs": [
        {
          "indexed": true,
          "internalType": "address",
          "name": "owner",
          "type": "address"
        },
        {
          "indexed": true,
          "internalType": "address",
          "name": "spender",
          "type": "address"
        },
        {
          "indexed": false,
          "internalType": "uint256",
          "name": "value",
          "type": "uint256"
        }
      ],
      "name": "Approval",
      "type": "event"
    },
    {
      "anonymous": false,
      "inputs": [
        {
          "indexed": true,
          "internalType": "address",
          "name": "delegator",
          "type": "address"
        },
        {
          "indexed": true,
          "internalType": "address",
          "name": "fromDelegate",
          "type": "address"
        },
        {
          "indexed": true,
          "internalType": "address",
          "name": "toDelegate",
          "type": "address"
        }
      ],
      "name": "DelegateChanged",
      "type": "event"
    },
    {
      "anonymous": false,
      "inputs": [
        {
          "indexed": true,
          "internalType": "address",
          "name": "delegate",
          "type": "address"
        },
        {
          "indexed": false,
          "internalType": "uint256",
          "name": "previousVotes",
          "type": "uint256"
        },
        {
          "indexed": false,
          "internalType": "uint256",
          "name": "newVotes",
          "type": "uint256"
        }
      ],
      "name": "DelegateVotesChanged",
      "type": "event"
    },
    {
      "anonymous": false,
      "inputs": [],
      "name": "EIP712DomainChanged",
      "type": "event"
    },
    {
      "anonymous": false,
      "inputs": [
        {
          "indexed": true,
          "internalType": "address",
          "name": "recipient",
          "type": "address"
        },
        {
          "indexed": false,
          "internalType": "uint256",
          "name": "amount",
          "type": "uint256"
        }
      ],
      "name": "InitialMintCompleted",
      "type": "event"
    },
    {
      "anonymous": false,
      "inputs": [
        {
          "indexed": true,
          "internalType": "address",
          "name": "previousOwner",
          "type": "address"
        },
        {
          "indexed": true,
          "internalType": "address",
          "name": "newOwner",
          "type": "address"
        }
      ],
      "name": "OwnershipTransferred",
      "type": "event"
    },
    {
      "anonymous": false,
      "inputs": [
        {
          "indexed": true,
          "internalType": "address",
          "name": "from",
          "type": "address"
        },
        {
          "indexed": true,
          "internalType": "address",
          "name": "to",
          "type": "address"
        },
        {
          "indexed": false,
          "internalType": "uint256",
          "name": "value",
          "type": "uint256"
        }
      ],
      "name": "Transfer",
      "type": "event"
    },
    {
      "inputs": [],
      "name": "CLOCK_MODE",
      "outputs": [
        {
          "internalType": "string",
          "name": "",
          "type": "string"
        }
      ],
      "stateMutability": "view",
      "type": "function"
    },
    {
      "inputs": [],
      "name": "DOMAIN_SEPARATOR",
      "outputs": [
        {
          "internalType": "bytes32",
          "name": "",
          "type": "bytes32"
        }
      ],
      "stateMutability": "view",
      "type": "function"
    },
    {
      "inputs": [],
      "name": "MAX_SUPPLY",
      "outputs": [
        {
          "internalType": "uint256",
          "name": "",
          "type": "uint256"
        }
      ],
      "stateMutability": "view",
      "type": "function"
    },
    {
      "inputs": [
        {
          "internalType": "address",
          "name": "owner",
          "type": "address"
        },
        {
          "internalType": "address",
          "name": "spender",
          "type": "address"
        }
      ],
      "name": "allowance",
      "outputs": [
        {
          "internalType": "uint256",
          "name": "",
          "type": "uint256"
        }
      ],
      "stateMutability": "view",
      "type": "function"
    },
    {
      "inputs": [
        {
          "internalType": "address",
          "name": "spender",
          "type": "address"
        },
        {
          "internalType": "uint256",
          "name": "value",
          "type": "uint256"
        }
      ],
      "name": "approve",
      "outputs": [
        {
          "internalType": "bool",
          "name": "",
          "type": "bool"
        }
      ],
      "stateMutability": "nonpayable",
      "type": "function"
    },
    {
      "inputs": [
        {
          "internalType": "address",
          "name": "account",
          "type": "address"
        }
      ],
      "name": "balanceOf",
      "outputs": [
        {
          "internalType": "uint256",
          "name": "",
          "type": "uint256"
        }
      ],
      "stateMutability": "view",
      "type": "function"
    },
    {
      "inputs": [
        {
          "internalType": "uint256",
          "name": "value",
          "type": "uint256"
        }
      ],
      "name": "burn",
      "outputs": [],
      "stateMutability": "nonpayable",
      "type": "function"
    },
    {
      "inputs": [
        {
          "internalType": "address",
          "name": "account",
          "type": "address"
        },
        {
          "internalType": "uint256",
          "name": "value",
          "type": "uint256"
        }
      ],
      "name": "burnFrom",
      "outputs": [],
      "stateMutability": "nonpayable",
      "type": "function"
    },
    {
      "inputs": [
        {
          "internalType": "address",
          "name": "account",
          "type": "address"
        },
        {
          "internalType": "uint32",
          "name": "pos",
          "type": "uint32"
        }
      ],
      "name": "checkpoints",
      "outputs": [
        {
          "components": [
            {
              "internalType": "uint48",
              "name": "_key",
              "type": "uint48"
            },
            {
              "internalType": "uint208",
              "name": "_value",
              "type": "uint208"
            }
          ],
          "internalType": "struct Checkpoints.Checkpoint208",
          "name": "",
          "type": "tuple"
        }
      ],
      "stateMutability": "view",
      "type": "function"
    },
    {
      "inputs": [],
      "name": "clock",
      "outputs": [
        {
          "internalType": "uint48",
          "name": "",
          "type": "uint48"
        }
      ],
      "stateMutability": "view",
      "type": "function"
    },
    {
      "inputs": [],
      "name": "decimals",
      "outputs": [
        {
          "internalType": "uint8",
          "name": "",
          "type": "uint8"
        }
      ],
      "stateMutability": "view",
      "type": "function"
    },
    {
      "inputs": [
        {
          "internalType": "address",
          "name": "delegatee",
          "type": "address"
        }
      ],
      "name": "delegate",
      "outputs": [],
      "stateMutability": "nonpayable",
      "type": "function"
    },
    {
      "inputs": [
        {
          "internalType": "address",
          "name": "delegatee",
          "type": "address"
        },
        {
          "internalType": "uint256",
          "name": "nonce",
          "type": "uint256"
        },
        {
          "internalType": "uint256",
          "name": "expiry",
          "type": "uint256"
        },
        {
          "internalType": "uint8",
          "name": "v",
          "type": "uint8"
        },
        {
          "internalType": "bytes32",
          "name": "r",
          "type": "bytes32"
        },
        {
          "internalType": "bytes32",
          "name": "s",
          "type": "bytes32"
        }
      ],
      "name": "delegateBySig",
      "outputs": [],
      "stateMutability": "nonpayable",
      "type": "function"
    },
    {
      "inputs": [
        {
          "internalType": "address",
          "name": "account",
          "type": "address"
        }
      ],
      "name": "delegates",
      "outputs": [
        {
          "internalType": "address",
          "name": "",
          "type": "address"
        }
      ],
      "stateMutability": "view",
      "type": "function"
    },
    {
      "inputs": [],
      "name": "eip712Domain",
      "outputs": [
        {
          "internalType": "bytes1",
          "name": "fields",
          "type": "bytes1"
        },
        {
          "internalType": "string",
          "name": "name",
          "type": "string"
        },
        {
          "internalType": "string",
          "name": "version",
          "type": "string"
        },
        {
          "internalType": "uint256",
          "name": "chainId",
          "type": "uint256"
        },
        {
          "internalType": "address",
          "name": "verifyingContract",
          "type": "address"
        },
        {
          "internalType": "bytes32",
          "name": "salt",
          "type": "bytes32"
        },
        {
          "internalType": "uint256[]",
          "name": "extensions",
          "type": "uint256[]"
        }
      ],
      "stateMutability": "view",
      "type": "function"
    },
    {
      "inputs": [
        {
          "internalType": "uint256",
          "name": "timepoint",
          "type": "uint256"
        }
      ],
      "name": "getPastTotalSupply",
      "outputs": [
        {
          "internalType": "uint256",
          "name": "",
          "type": "uint256"
        }
      ],
      "stateMutability": "view",
      "type": "function"
    },
    {
      "inputs": [
        {
          "internalType": "address",
          "name": "account",
          "type": "address"
        },
        {
          "internalType": "uint256",
          "name": "timepoint",
          "type": "uint256"
        }
      ],
      "name": "getPastVotes",
      "outputs": [
        {
          "internalType": "uint256",
          "name": "",
          "type": "uint256"
        }
      ],
      "stateMutability": "view",
      "type": "function"
    },
    {
      "inputs": [
        {
          "internalType": "address",
          "name": "account",
          "type": "address"
        }
      ],
      "name": "getVotes",
      "outputs": [
        {
          "internalType": "uint256",
          "name": "",
          "type": "uint256"
        }
      ],
      "stateMutability": "view",
      "type": "function"
    },
    {
      "inputs": [
        {
          "internalType": "address",
          "name": "recipient",
          "type": "address"
        },
        {
          "internalType": "uint256",
          "name": "amount",
          "type": "uint256"
        }
      ],
      "name": "initialMint",
      "outputs": [],
      "stateMutability": "nonpayable",
      "type": "function"
    },
    {
      "inputs": [],
      "name": "initialMintDone",
      "outputs": [
        {
          "internalType": "bool",
          "name": "",
          "type": "bool"
        }
      ],
      "stateMutability": "view",
      "type": "function"
    },
    {
      "inputs": [
        {
          "internalType": "address",
          "name": "to",
          "type": "address"
        },
        {
          "internalType": "uint256",
          "name": "amount",
          "type": "uint256"
        }
      ],
      "name": "mint",
      "outputs": [],
      "stateMutability": "nonpayable",
      "type": "function"
    },
    {
      "inputs": [],
      "name": "name",
      "outputs": [
        {
          "internalType": "string",
          "name": "",
          "type": "string"
        }
      ],
      "stateMutability": "view",
      "type": "function"
    },
    {
      "inputs": [
        {
          "internalType": "address",
          "name": "owner",
          "type": "address"
        }
      ],
      "name": "nonces",
      "outputs": [
        {
          "internalType": "uint256",
          "name": "",
          "type": "uint256"
        }
      ],
      "stateMutability": "view",
      "type": "function"
    },
    {
      "inputs": [
        {
          "internalType": "address",
          "name": "account",
          "type": "address"
        }
      ],
      "name": "numCheckpoints",
      "outputs": [
        {
          "internalType": "uint32",
          "name": "",
          "type": "uint32"
        }
      ],
      "stateMutability": "view",
      "type": "function"
    },
    {
      "inputs": [],
      "name": "owner",
      "outputs": [
        {
          "internalType": "address",
          "name": "",
          "type": "address"
        }
      ],
      "stateMutability": "view",
      "type": "function"
    },
    {
      "inputs": [
        {
          "internalType": "address",
          "name": "owner",
          "type": "address"
        },
        {
          "internalType": "address",
          "name": "spender",
          "type": "address"
        },
        {
          "internalType": "uint256",
          "name": "value",
          "type": "uint256"
        },
        {
          "internalType": "uint256",
          "name": "deadline",
          "type": "uint256"
        },
        {
          "internalType": "uint8",
          "name": "v",
          "type": "uint8"
        },
        {
          "internalType": "bytes32",
          "name": "r",
          "type": "bytes32"
        },
        {
          "internalType": "bytes32",
          "name": "s",
          "type": "bytes32"
        }
      ],
      "name": "permit",
      "outputs": [],
      "stateMutability": "nonpayable",
      "type": "function"
    },
    {
      "inputs": [],
      "name": "renounceOwnership",
      "outputs": [],
      "stateMutability": "nonpayable",
      "type": "function"
    },
    {
      "inputs": [],
      "name": "symbol",
      "outputs": [
        {
          "internalType": "string",
          "name": "",
          "type": "string"
        }
      ],
      "stateMutability": "view",
      "type": "function"
    },
    {
      "inputs": [],
      "name": "totalSupply",
      "outputs": [
        {
          "internalType": "uint256",
          "name": "",
          "type": "uint256"
        }
      ],
      "stateMutability": "view",
      "type": "function"
    },
    {
      "inputs": [
        {
          "internalType": "address",
          "name": "to",
          "type": "address"
        },
        {
          "internalType": "uint256",
          "name": "value",
          "type": "uint256"
        }
      ],
      "name": "transfer",
      "outputs": [
        {
          "internalType": "bool",
          "name": "",
          "type": "bool"
        }
      ],
      "stateMutability": "nonpayable",
      "type": "function"
    },
    {
      "inputs": [
        {
          "internalType": "address",
          "name": "from",
          "type": "address"
        },
        {
          "internalType": "address",
          "name": "to",
          "type": "address"
        },
        {
          "internalType": "uint256",
          "name": "value",
          "type": "uint256"
        }
      ],
      "name": "transferFrom",
      "outputs": [
        {
          "internalType": "bool",
          "name": "",
          "type": "bool"
        }
      ],
      "stateMutability": "nonpayable",
      "type": "function"
    },
    {
      "inputs": [
        {
          "internalType": "address",
          "name": "newOwner",
          "type": "address"
        }
      ],
      "name": "transferOwnership",
      "outputs": [],
      "stateMutability": "nonpayable",
      "type": "function"
    }
  ],
  "bytecode": "0x6101606040523480156200001257600080fd5b5060405162002688380380620026888339810160408190526200003591620002a0565b8060405180604001604052806009815260200168436f6e73756c44414f60b81b81525080604051806040016040528060018152602001603160f81b81525060405180604001604052806009815260200168436f6e73756c44414f60b81b8152506040518060400160405280600681526020016510d3d394d55360d21b8152508160039081620000c5919062000379565b506004620000d4828262000379565b50620000e691508390506005620001d2565b61012052620000f7816006620001d2565b61014052815160208084019190912060e052815190820120610100524660a0526200018560e05161010051604080517f8b73c3c69bb8fe3d512ecc4cf759cc79239f7b179b0ffacaa9a75d522b39400f60208201529081019290925260608201524660808201523060a082015260009060c00160405160208183030381529060405280519060200120905090565b60805250503060c052506001600160a01b038116620001bf57604051631e4fbdf760e01b8152600060048201526024015b60405180910390fd5b620001ca816200020b565b5050620004bb565b6000602083511015620001f257620001ea836200025d565b905062000205565b81620001ff848262000379565b5060ff90505b92915050565b600b80546001600160a01b038381166001600160a01b0319831681179093556040519116919082907f8be0079c531659141344cd1fd0a4f28419497f9722a3daafe3b4186f6b6457e090600090a35050565b600080829050601f815111156200028b578260405163305a27a960e01b8152600401620001b6919062000445565b8051620002988262000496565b179392505050565b600060208284031215620002b357600080fd5b81516001600160a01b0381168114620002cb57600080fd5b9392505050565b634e487b7160e01b600052604160045260246000fd5b600181811c90821680620002fd57607f821691505b6020821081036200031e57634e487b7160e01b600052602260045260246000fd5b50919050565b601f82111562000374576000816000526020600020601f850160051c810160208610156200034f5750805b601f850160051c820191505b8181101562000370578281556001016200035b565b5050505b505050565b81516001600160401b03811115620003955762000395620002d2565b620003ad81620003a68454620002e8565b8462000324565b602080601f831160018114620003e55760008415620003cc5750858301515b600019600386901b1c1916600185901b17855562000370565b600085815260208120601f198616915b828110156200041657888601518255948401946001909101908401620003f5565b5085821015620004355787850151600019600388901b60f8161c191681555b5050505050600190811b01905550565b60006020808352835180602085015260005b81811015620004755785810183015185820160400152820162000457565b506000604082860101526040601f19601f8301168501019250505092915050565b805160208083015191908110156200031e5760001960209190910360031b1b16919050565b60805160a05160c05160e05161010051610120516101405161217262000516600039600061104a0152600061101d01526000610d1801526000610cf001526000610c4b01526000610c7501526000610c9f01526121726000f3fe608060405234801561001057600080fd5b50600436106101f05760003560e01c806370a082311161010f57806395d89b41116100a2578063d505accf11610071578063d505accf14610463578063dd62ed3e14610476578063f1127ed8146104af578063f2fde38b146104ee57600080fd5b806395d89b41146104225780639ab24eb01461042a578063a9059cbb1461043d578063c3cda5201461045057600080fd5b806384b0196e116100de57806384b0196e146103c45780638da5cb5b146103df5780638e539e8c146103f057806391ddadf41461040357600080fd5b806370a082311461036d578063715018a61461039657806379cc67901461039e5780637ecebe00146103b157600080fd5b80633a46b1a811610187578063587cde1e11610156578063587cde1e146102db5780635c19a95c1461031f5780636d8d0ff3146103325780636fcfff451461034557600080fd5b80633a46b1a81461029857806340c10f19146102ab57806342966c68146102c05780634bf5d7e9146102d357600080fd5b8063313ce567116101c3578063313ce5671461025b57806332cb6b0c1461026a5780633644e5151461027c57806336c545ca1461028457600080fd5b806306fdde03146101f5578063095ea7b31461021357806318160ddd1461023657806323b872dd14610248575b600080fd5b6101fd610501565b60405161020a9190611d73565b60405180910390f35b610226610221366004611da2565b610593565b604051901515815260200161020a565b6002545b60405190815260200161020a565b610226610256366004611dcc565b6105ad565b6040516012815260200161020a565b61023a6a52b7d2dcc80cd2e400000081565b61023a6105d1565b600b5461022690600160a01b900460ff1681565b61023a6102a6366004611da2565b6105e0565b6102be6102b9366004611da2565b61061c565b005b6102be6102ce366004611e08565b61069e565b6101fd6106ab565b6103076102e9366004611e21565b6001600160a01b039081166000908152600860205260409020541690565b6040516001600160a01b03909116815260200161020a565b6102be61032d366004611e21565b610723565b6102be610340366004611da2565b61072e565b610358610353366004611e21565b610805565b60405163ffffffff909116815260200161020a565b61023a61037b366004611e21565b6001600160a01b031660009081526020819052604090205490565b6102be610810565b6102be6103ac366004611da2565b610824565b61023a6103bf366004611e21565b610839565b6103cc610844565b60405161020a9796959493929190611e3c565b600b546001600160a01b0316610307565b61023a6103fe366004611e08565b61088a565b61040b6108af565b60405165ffffffffffff909116815260200161020a565b6101fd6108b9565b61023a610438366004611e21565b6108c8565b61022661044b366004611da2565b6108e9565b6102be61045e366004611ee6565b6108f7565b6102be610471366004611f3e565b6109b4565b61023a610484366004611fa8565b6001600160a01b03918216600090815260016020908152604080832093909416825291909152205490565b6104c26104bd366004611fdb565b610aee565b60408051825165ffffffffffff1681526020928301516001600160d01b0316928101929092520161020a565b6102be6104fc366004611e21565b610b13565b6060600380546105109061201b565b80601f016020809104026020016040519081016040528092919081815260200182805461053c9061201b565b80156105895780601f1061055e57610100808354040283529160200191610589565b820191906000526020600020905b81548152906001019060200180831161056c57829003601f168201915b5050505050905090565b6000336105a1818585610b4e565b60019150505b92915050565b6000336105bb858285610b60565b6105c6858585610bdf565b506001949350505050565b60006105db610c3e565b905090565b600061060c6105ee83610d69565b6001600160a01b038516600090815260096020526040902090610db8565b6001600160d01b03169392505050565b610624610e6e565b6a52b7d2dcc80cd2e40000008161063a60025490565b610644919061206b565b1115610690578061065460025490565b610669906a52b7d2dcc80cd2e400000061207e565b604051637502c12360e11b8152600481019290925260248201526044015b60405180910390fd5b61069a8282610e9b565b5050565b6106a83382610ed1565b50565b60606106b5610f07565b65ffffffffffff166106c56108af565b65ffffffffffff16146106eb576040516301bfc1c560e61b815260040160405180910390fd5b5060408051808201909152601d81527f6d6f64653d626c6f636b6e756d6265722666726f6d3d64656661756c74000000602082015290565b3361069a8183610f12565b610736610e6e565b600b54600160a01b900460ff161561076157604051631abbd7d360e01b815260040160405180910390fd5b6a52b7d2dcc80cd2e40000008111156107a157604051637502c12360e11b8152600481018290526a52b7d2dcc80cd2e40000006024820152604401610687565b600b805460ff60a01b1916600160a01b1790556107be8282610e9b565b816001600160a01b03167fd7ba77d87d9f77d4eed01590f7557e587d19f6a622423649ba865ca141004622826040516107f991815260200190565b60405180910390a25050565b60006105a782610f84565b610818610e6e565b6108226000610fa6565b565b61082f823383610b60565b61069a8282610ed1565b60006105a782610ff8565b600060608060008060006060610858611016565b610860611043565b60408051600080825260208201909252600f60f81b9b939a50919850469750309650945092509050565b60006108a061089883610d69565b600a90610db8565b6001600160d01b031692915050565b60006105db610f07565b6060600480546105109061201b565b6001600160a01b03811660009081526009602052604081206108a090611070565b6000336105a1818585610bdf565b8342111561091b57604051632341d78760e11b815260048101859052602401610687565b604080517fe48329057bfd03d55e49b547132e39cffd9c1820ad7b9d4c5307691425d15adf60208201526001600160a01b0388169181019190915260608101869052608081018590526000906109959061098d9060a001604051602081830303815290604052805190602001206110a9565b8585856110d6565b90506109a18187611104565b6109ab8188610f12565b50505050505050565b834211156109d85760405163313c898160e11b815260048101859052602401610687565b60007f6e71edae12b1b97f4d1f60370fef10105fa2faae0126114a169c64845d6126c9888888610a258c6001600160a01b0316600090815260076020526040902080546001810190915590565b6040805160208101969096526001600160a01b0394851690860152929091166060840152608083015260a082015260c0810186905260e0016040516020818303038152906040528051906020012090506000610a80826110a9565b90506000610a90828787876110d6565b9050896001600160a01b0316816001600160a01b031614610ad7576040516325c0072360e11b81526001600160a01b0380831660048301528b166024820152604401610687565b610ae28a8a8a610b4e565b50505050505050505050565b6040805180820190915260008082526020820152610b0c8383611157565b9392505050565b610b1b610e6e565b6001600160a01b038116610b4557604051631e4fbdf760e01b815260006004820152602401610687565b6106a881610fa6565b610b5b838383600161118d565b505050565b6001600160a01b03838116600090815260016020908152604080832093861683529290522054600019811015610bd95781811015610bca57604051637dc7a0d960e11b81526001600160a01b03841660048201526024810182905260448101839052606401610687565b610bd98484848403600061118d565b50505050565b6001600160a01b038316610c0957604051634b637e8f60e11b815260006004820152602401610687565b6001600160a01b038216610c335760405163ec442f0560e01b815260006004820152602401610687565b610b5b838383611262565b6000306001600160a01b037f000000000000000000000000000000000000000000000000000000000000000016148015610c9757507f000000000000000000000000000000000000000000000000000000000000000046145b15610cc157507f000000000000000000000000000000000000000000000000000000000000000090565b6105db604080517f8b73c3c69bb8fe3d512ecc4cf759cc79239f7b179b0ffacaa9a75d522b39400f60208201527f0000000000000000000000000000000000000000000000000000000000000000918101919091527f000000000000000000000000000000000000000000000000000000000000000060608201524660808201523060a082015260009060c00160405160208183030381529060405280519060200120905090565b600080610d746108af565b90508065ffffffffffff168310610daf57604051637669fc0f60e11b81526004810184905265ffffffffffff82166024820152604401610687565b610b0c8361126d565b815460009081816005811115610e17576000610dd3846112a4565b610ddd908561207e565b60008881526020902090915081015465ffffffffffff9081169087161015610e0757809150610e15565b610e1281600161206b565b92505b505b6000610e25878785856113fd565b90508015610e6057610e4a87610e3c60018461207e565b600091825260209091200190565b54600160301b90046001600160d01b0316610e63565b60005b979650505050505050565b600b546001600160a01b031633146108225760405163118cdaa760e01b8152336004820152602401610687565b6001600160a01b038216610ec55760405163ec442f0560e01b815260006004820152602401610687565b61069a60008383611262565b6001600160a01b038216610efb57604051634b637e8f60e11b815260006004820152602401610687565b61069a82600083611262565b60006105db4361126d565b6001600160a01b0382811660008181526008602052604080822080548686166001600160a01b0319821681179092559151919094169392849290917f3134e8a2e6d97e929a7e54011ea5485d7d196dd5f0ba4d4ef95803e8e3fc257f9190a4610b5b8183610f7f8661145f565b61147d565b6001600160a01b0381166000908152600960205260408120546105a7906115e9565b600b80546001600160a01b038381166001600160a01b0319831681179093556040519116919082907f8be0079c531659141344cd1fd0a4f28419497f9722a3daafe3b4186f6b6457e090600090a35050565b6001600160a01b0381166000908152600760205260408120546105a7565b60606105db7f0000000000000000000000000000000000000000000000000000000000000000600561161a565b60606105db7f0000000000000000000000000000000000000000000000000000000000000000600661161a565b805460009080156110a05761108a83610e3c60018461207e565b54600160301b90046001600160d01b0316610b0c565b60009392505050565b60006105a76110b6610c3e565b8360405161190160f01b8152600281019290925260228201526042902090565b6000806000806110e8888888886116c5565b9250925092506110f88282611794565b50909695505050505050565b6001600160a01b0382166000908152600760205260409020805460018101909155818114610b5b576040516301d4b62360e61b81526001600160a01b038416600482015260248101829052604401610687565b60408051808201909152600080825260208201526001600160a01b0383166000908152600960205260409020610b0c908361184d565b6001600160a01b0384166111b75760405163e602df0560e01b815260006004820152602401610687565b6001600160a01b0383166111e157604051634a1406b160e11b815260006004820152602401610687565b6001600160a01b0380851660009081526001602090815260408083209387168352929052208290558015610bd957826001600160a01b0316846001600160a01b03167f8c5be1e5ebec7d5bd14f71427d1e84f3dd0314c0f7b2291e5b200ac8c7c3b9258460405161125491815260200190565b60405180910390a350505050565b610b5b8383836118bd565b600065ffffffffffff8211156112a0576040516306dfcc6560e41b81526030600482015260248101839052604401610687565b5090565b6000600182116112b2575090565b816001600160801b82106112cb5760809190911c9060401b5b6801000000000000000082106112e65760409190911c9060201b5b64010000000082106112fd5760209190911c9060101b5b6201000082106113125760109190911c9060081b5b61010082106113265760089190911c9060041b5b601082106113395760049190911c9060021b5b600482106113455760011b5b600302600190811c9081858161135d5761135d612091565b048201901c9050600181858161137557611375612091565b048201901c9050600181858161138d5761138d612091565b048201901c905060018185816113a5576113a5612091565b048201901c905060018185816113bd576113bd612091565b048201901c905060018185816113d5576113d5612091565b048201901c90506113f48185816113ee576113ee612091565b04821190565b90039392505050565b60005b818310156114575760006114148484611924565b60008781526020902090915065ffffffffffff86169082015465ffffffffffff16111561144357809250611451565b61144e81600161206b565b93505b50611400565b509392505050565b6001600160a01b0381166000908152602081905260408120546105a7565b816001600160a01b0316836001600160a01b03161415801561149f5750600081115b15610b5b576001600160a01b03831615611547576001600160a01b038316600090815260096020526040812081906114e29061193f6114dd8661194b565b61197f565b6001600160d01b031691506001600160d01b03169150846001600160a01b03167fdec2bacdd2f05b59de34da9b523dff8be42e5e38e818c82fdb0bae774387a724838360405161153c929190918252602082015260400190565b60405180910390a250505b6001600160a01b03821615610b5b576001600160a01b03821660009081526009602052604081208190611580906119b86114dd8661194b565b6001600160d01b031691506001600160d01b03169150836001600160a01b03167fdec2bacdd2f05b59de34da9b523dff8be42e5e38e818c82fdb0bae774387a72483836040516115da929190918252602082015260400190565b60405180910390a25050505050565b600063ffffffff8211156112a0576040516306dfcc6560e41b81526020600482015260248101839052604401610687565b606060ff83146116345761162d836119c4565b90506105a7565b8180546116409061201b565b80601f016020809104026020016040519081016040528092919081815260200182805461166c9061201b565b80156116b95780601f1061168e576101008083540402835291602001916116b9565b820191906000526020600020905b81548152906001019060200180831161169c57829003601f168201915b505050505090506105a7565b600080807f7fffffffffffffffffffffffffffffff5d576e7357a4501ddfe92f46681b20a0841115611700575060009150600390508261178a565b604080516000808252602082018084528a905260ff891692820192909252606081018790526080810186905260019060a0016020604051602081039080840390855afa158015611754573d6000803e3d6000fd5b5050604051601f1901519150506001600160a01b0381166117805750600092506001915082905061178a565b9250600091508190505b9450945094915050565b60008260038111156117a8576117a86120a7565b036117b1575050565b60018260038111156117c5576117c56120a7565b036117e35760405163f645eedf60e01b815260040160405180910390fd5b60028260038111156117f7576117f76120a7565b036118185760405163fce698f760e01b815260048101829052602401610687565b600382600381111561182c5761182c6120a7565b0361069a576040516335e2f38360e21b815260048101829052602401610687565b6040805180820190915260008082526020820152826000018263ffffffff168154811061187c5761187c6120bd565b60009182526020918290206040805180820190915291015465ffffffffffff81168252600160301b90046001600160d01b0316918101919091529392505050565b6118c8838383611a03565b6001600160a01b0383166119195760006118e160025490565b90506001600160d01b038082111561191657604051630e58ae9360e11b81526004810183905260248101829052604401610687565b50505b610b5b838383611b2d565b600061193360028484186120d3565b610b0c9084841661206b565b6000610b0c82846120f5565b60006001600160d01b038211156112a0576040516306dfcc6560e41b815260d0600482015260248101839052604401610687565b6000806119ab61198d6108af565b6119a361199988611070565b868863ffffffff16565b879190611ba3565b915091505b935093915050565b6000610b0c828461211c565b606060006119d183611bb1565b604080516020808252818301909252919250600091906020820181803683375050509182525060208101929092525090565b6001600160a01b038316611a2e578060026000828254611a23919061206b565b90915550611aa09050565b6001600160a01b03831660009081526020819052604090205481811015611a815760405163391434e360e21b81526001600160a01b03851660048201526024810182905260448101839052606401610687565b6001600160a01b03841660009081526020819052604090209082900390555b6001600160a01b038216611abc57600280548290039055611adb565b6001600160a01b03821660009081526020819052604090208054820190555b816001600160a01b0316836001600160a01b03167fddf252ad1be2c89b69c2b068fc378daa952ba7f163c4a11628f55a4df523b3ef83604051611b2091815260200190565b60405180910390a3505050565b6001600160a01b038316611b4f57611b4c600a6119b86114dd8461194b565b50505b6001600160a01b038216611b7157611b6e600a61193f6114dd8461194b565b50505b6001600160a01b03838116600090815260086020526040808220548584168352912054610b5b9291821691168361147d565b6000806119ab858585611bd9565b600060ff8216601f8111156105a757604051632cd44ac360e21b815260040160405180910390fd5b825460009081908015611cd2576000611bf787610e3c60018561207e565b805490915065ffffffffffff80821691600160301b90046001600160d01b0316908816821115611c3a57604051632520601d60e01b815260040160405180910390fd5b8765ffffffffffff168265ffffffffffff1603611c7357825465ffffffffffff16600160301b6001600160d01b03891602178355611cc4565b6040805180820190915265ffffffffffff808a1682526001600160d01b03808a1660208085019182528d54600181018f5560008f81529190912094519151909216600160301b029216919091179101555b94508593506119b092505050565b50506040805180820190915265ffffffffffff80851682526001600160d01b0380851660208085019182528854600181018a5560008a815291822095519251909316600160301b0291909316179201919091559050816119b0565b6000815180845260005b81811015611d5357602081850181015186830182015201611d37565b506000602082860101526020601f19601f83011685010191505092915050565b602081526000610b0c6020830184611d2d565b80356001600160a01b0381168114611d9d57600080fd5b919050565b60008060408385031215611db557600080fd5b611dbe83611d86565b946020939093013593505050565b600080600060608486031215611de157600080fd5b611dea84611d86565b9250611df860208501611d86565b9150604084013590509250925092565b600060208284031215611e1a57600080fd5b5035919050565b600060208284031215611e3357600080fd5b610b0c82611d86565b60ff60f81b881681526000602060e06020840152611e5d60e084018a611d2d565b8381036040850152611e6f818a611d2d565b606085018990526001600160a01b038816608086015260a0850187905284810360c08601528551808252602080880193509091019060005b81811015611ec357835183529284019291840191600101611ea7565b50909c9b505050505050505050505050565b803560ff81168114611d9d57600080fd5b60008060008060008060c08789031215611eff57600080fd5b611f0887611d86565b95506020870135945060408701359350611f2460608801611ed5565b92506080870135915060a087013590509295509295509295565b600080600080600080600060e0888a031215611f5957600080fd5b611f6288611d86565b9650611f7060208901611d86565b95506040880135945060608801359350611f8c60808901611ed5565b925060a0880135915060c0880135905092959891949750929550565b60008060408385031215611fbb57600080fd5b611fc483611d86565b9150611fd260208401611d86565b90509250929050565b60008060408385031215611fee57600080fd5b611ff783611d86565b9150602083013563ffffffff8116811461201057600080fd5b809150509250929050565b600181811c9082168061202f57607f821691505b60208210810361204f57634e487b7160e01b600052602260045260246000fd5b50919050565b634e487b7160e01b600052601160045260246000fd5b808201808211156105a7576105a7612055565b818103818111156105a7576105a7612055565b634e487b7160e01b600052601260045260246000fd5b634e487b7160e01b600052602160045260246000fd5b634e487b7160e01b600052603260045260246000fd5b6000826120f057634e487b7160e01b600052601260045260246000fd5b500490565b6001600160d01b0382811682821603908082111561211557612115612055565b5092915050565b6001600160d01b038181168382160190808211156121155761211561205556fea2646970667358221220d5759328495439b8e5eef8d748485803f917e407579d86f455002d89d730572b64736f6c63430008180033",
  "linkReferences": {},
  "deployedLinkReferences": {}
}