{
  "_format": "hh-sol-artifact-1",
  "contractName": "BeforeSwapDeltaLibrary",
  "sourceName": "@uniswap/v4-core/src/types/BeforeSwapDelta.sol",
  "abi": [
    {
      "inputs": [],
      "name": "ZERO_DELTA",
      "outputs": [
        {
          "internalType": "BeforeSwapDelta",
          "name": "",
          "type": "int256"
        }
      ],
      "stateMutability": "view",
      "type": "function"
    }
  ],
  "bytecode": "0x6087610038600b82828239805160001a607314602b57634e487b7160e01b600052600060045260246000fd5b30600052607381538281f3fe730000000000000000000000000000000000000000301460806040526004361060335760003560e01c806391cb4669146038575b600080fd5b603f600081565b60405190815260200160405180910390f3fea264697066735822122075dfce9c29f1e5164e0938424cc7e13929f310257427ac4ae1083581d2d5b12e64736f6c63430008180033",
  "linkReferences": {},
  "deployedLinkReferences": {}
}